{"abi":[{"type":"constructor","inputs":[{"name":"_usdc","type":"address","internalType":"address"},{"name":"_oracle","type":"address","internalType":"contract IOracle"}],"stateMutability":"nonpayable"},{"type":"function","name":"addDuration","inputs":[{"name":"duration","type":"uint256","internalType":"uint256"}],"outputs":[],"stateMutability":"nonpayable"},{"type":"function","name":"addProtocol","inputs":[{"name":"protocol","type":"string","internalType":"string"}],"outputs":[],"stateMutability":"nonpayable"},{"type":"function","name":"allMarkets","inputs":[{"name":"","type":"uint256","internalType":"uint256"}],"outputs":[{"name":"","type":"address","internalType":"address"}],"stateMutability":"view"},{"type":"function","name":"deployMarket","inputs":[{"name":"protocol","type":"string","internalType":"string"},{"name":"durationInDays","type":"uint256","internalType":"uint256"}],"outputs":[{"name":"market","type":"address","internalType":"address"}],"stateMutability":"nonpayable"},{"type":"function","name":"getAllActiveMarkets","inputs":[],"outputs":[{"name":"","type":"address[]","internalType":"address[]"}],"stateMutability":"view"},{"type":"function","name":"getAllMarkets","inputs":[],"outputs":[{"name":"","type":"address[]","internalType":"address[]"}],"stateMutability":"view"},{"type":"function","name":"getMarketAddress","inputs":[{"name":"protocol","type":"string","internalType":"string"},{"name":"durationInDays","type":"uint256","internalType":"uint256"}],"outputs":[{"name":"","type":"address","internalType":"address"}],"stateMutability":"view"},{"type":"function","name":"getMarketDetails","inputs":[{"name":"marketAddress","type":"address","internalType":"address"}],"outputs":[{"name":"protocol","type":"string","internalType":"string"},{"name":"question","type":"string","internalType":"string"},{"name":"endTime","type":"uint256","internalType":"uint256"},{"name":"yesPool","type":"uint256","internalType":"uint256"},{"name":"noPool","type":"uint256","internalType":"uint256"},{"name":"yesSupply","type":"uint256","internalType":"uint256"},{"name":"noSupply","type":"uint256","internalType":"uint256"},{"name":"yesPrice","type":"uint256","internalType":"uint256"},{"name":"noPrice","type":"uint256","internalType":"uint256"},{"name":"totalUsdcDeposited","type":"uint256","internalType":"uint256"},{"name":"resolved","type":"bool","internalType":"bool"},{"name":"yesWon","type":"bool","internalType":"bool"},{"name":"frozen","type":"bool","internalType":"bool"}],"stateMutability":"view"},{"type":"function","name":"getMarketInfo","inputs":[{"name":"protocol","type":"string","internalType":"string"},{"name":"durationInDays","type":"uint256","internalType":"uint256"}],"outputs":[{"name":"","type":"tuple","internalType":"struct PredictionMarketFactoryV2.MarketInfo","components":[{"name":"market","type":"address","internalType":"address"},{"name":"protocol","type":"string","internalType":"string"},{"name":"category","type":"string","internalType":"string"},{"name":"expiry","type":"uint256","internalType":"uint256"},{"name":"durationInDays","type":"uint256","internalType":"uint256"},{"name":"question","type":"string","internalType":"string"},{"name":"exists","type":"bool","internalType":"bool"}]}],"stateMutability":"view"},{"type":"function","name":"getMarketStatistics","inputs":[],"outputs":[{"name":"totalMarkets","type":"uint256","internalType":"uint256"},{"name":"activeMarkets","type":"uint256","internalType":"uint256"},{"name":"resolvedMarkets","type":"uint256","internalType":"uint256"},{"name":"totalVolumeUSDC","type":"uint256","internalType":"uint256"},{"name":"totalPlatformFees","type":"uint256","internalType":"uint256"}],"stateMutability":"view"},{"type":"function","name":"getMarketsByExpiry","inputs":[{"name":"durationInDays","type":"uint256","internalType":"uint256"}],"outputs":[{"name":"","type":"address[]","internalType":"address[]"}],"stateMutability":"view"},{"type":"function","name":"getMarketsByProtocol","inputs":[{"name":"protocol","type":"string","internalType":"string"}],"outputs":[{"name":"","type":"address[]","internalType":"address[]"}],"stateMutability":"view"},{"type":"function","name":"getSupportedDurations","inputs":[],"outputs":[{"name":"","type":"uint256[]","internalType":"uint256[]"}],"stateMutability":"view"},{"type":"function","name":"getSupportedProtocols","inputs":[],"outputs":[{"name":"","type":"string[]","internalType":"string[]"}],"stateMutability":"view"},{"type":"function","name":"getUserPositionInMarket","inputs":[{"name":"marketAddress","type":"address","internalType":"address"},{"name":"user","type":"address","internalType":"address"}],"outputs":[{"name":"userYesBalance","type":"uint256","internalType":"uint256"},{"name":"userNoBalance","type":"uint256","internalType":"uint256"},{"name":"potentialWinnings","type":"uint256","internalType":"uint256"}],"stateMutability":"view"},{"type":"function","name":"isDurationSupported","inputs":[{"name":"duration","type":"uint256","internalType":"uint256"}],"outputs":[{"name":"","type":"bool","internalType":"bool"}],"stateMutability":"view"},{"type":"function","name":"isProtocolSupported","inputs":[{"name":"protocol","type":"string","internalType":"string"}],"outputs":[{"name":"","type":"bool","internalType":"bool"}],"stateMutability":"view"},{"type":"function","name":"marketExists","inputs":[{"name":"protocol","type":"string","internalType":"string"},{"name":"durationInDays","type":"uint256","internalType":"uint256"}],"outputs":[{"name":"","type":"bool","internalType":"bool"}],"stateMutability":"view"},{"type":"function","name":"markets","inputs":[{"name":"","type":"bytes32","internalType":"bytes32"}],"outputs":[{"name":"market","type":"address","internalType":"address"},{"name":"protocol","type":"string","internalType":"string"},{"name":"category","type":"string","internalType":"string"},{"name":"expiry","type":"uint256","internalType":"uint256"},{"name":"durationInDays","type":"uint256","internalType":"uint256"},{"name":"question","type":"string","internalType":"string"},{"name":"exists","type":"bool","internalType":"bool"}],"stateMutability":"view"},{"type":"function","name":"marketsByExpiry","inputs":[{"name":"","type":"uint256","internalType":"uint256"},{"name":"","type":"uint256","internalType":"uint256"}],"outputs":[{"name":"","type":"address","internalType":"address"}],"stateMutability":"view"},{"type":"function","name":"marketsByProtocol","inputs":[{"name":"","type":"string","internalType":"string"},{"name":"","type":"uint256","internalType":"uint256"}],"outputs":[{"name":"","type":"address","internalType":"address"}],"stateMutability":"view"},{"type":"function","name":"oracle","inputs":[],"outputs":[{"name":"","type":"address","internalType":"contract IOracle"}],"stateMutability":"view"},{"type":"function","name":"supportedDurations","inputs":[{"name":"","type":"uint256","internalType":"uint256"}],"outputs":[{"name":"","type":"uint256","internalType":"uint256"}],"stateMutability":"view"},{"type":"function","name":"supportedProtocols","inputs":[{"name":"","type":"uint256","internalType":"uint256"}],"outputs":[{"name":"","type":"string","internalType":"string"}],"stateMutability":"view"},{"type":"function","name":"usdc","inputs":[],"outputs":[{"name":"","type":"address","internalType":"contract IERC20"}],"stateMutability":"view"},{"type":"event","name":"MarketCreated","inputs":[{"name":"market","type":"address","indexed":true,"internalType":"address"},{"name":"protocol","type":"string","indexed":false,"internalType":"string"},{"name":"expiry","type":"uint256","indexed":false,"internalType":"uint256"},{"name":"question","type":"string","indexed":false,"internalType":"string"}],"anonymous":false}],"bytecode":{"object":"0x60c06040523461050757604051601f61440438819003918201601f19168301916001600160401b038311848410176103c55780849260409485528339810103126105075780516001600160a01b03811691908290036105075760200151906001600160a01b038216820361050757604051608081016001600160401b038111828210176103c557604052601e8152605a602082015260b4604082015261016d60608201526005546004600555806004106104b1575b5060055f5260205f20905f5b600481106104995750505060805260a052600454680100000000000000008110156103c5578060016100f59201600455610521565b6103b257610103815461054d565b601f8111610479575b507f4b6966667950756e6368000000000000000000000000000000000000000000149055600454680100000000000000008110156103c5578060016101549201600455610521565b6103b257610162815461054d565b601f8111610459575b5060086320b735b960e11b019055600454680100000000000000008110156103c55780600161019d9201600455610521565b6103b2576101ab815461054d565b601f8111610439575b507f496e6372656d656e742046696e616e63650000000000000000000000000000229055600454680100000000000000008110156103c5578060016101fc9201600455610521565b6103b25761020a815461054d565b601f8111610419575b507f4d4f5245204d61726b65747300000000000000000000000000000000000000189055600454680100000000000000008110156103c55780600161025b9201600455610521565b6103b25761027261026c825461054d565b82610585565b600c6553747572647960d01b019055600454680100000000000000008110156103c5578060016102a59201600455610521565b6103b2576102b3815461054d565b601f81116103f9575b507f547261646f2046696e616e63650000000000000000000000000000000000001a9055600454680100000000000000008110156103c5578060016103049201600455610521565b6103b257610312815461054d565b601f81116103d9575b507f466978657320576f726c640000000000000000000000000000000000000000169055600454680100000000000000008110156103c5578060016103639201600455610521565b6103b25761037461026c825461054d565b600c654265657a696560d01b019055604051613e5690816105ae8239608051818181610766015261151c015260a05181818161078b0152610b460152f35b634e487b7160e01b5f525f60045260245ffd5b634e487b7160e01b5f52604160045260245ffd5b6103f390825f52601f60205f20910160051c81019061050b565b5f61031b565b61041390825f52601f60205f20910160051c81019061050b565b5f6102bc565b61043390825f52601f60205f20910160051c81019061050b565b5f610213565b61045390825f52601f60205f20910160051c81019061050b565b5f6101b4565b61047390825f52601f60205f20910160051c81019061050b565b5f61016b565b61049390825f52601f60205f20910160051c81019061050b565b5f61010c565b600190602061ffff84511693019281850155016100c0565b60055f52610501907f036b6384b5eca791c62761152d0c79bb0604c104a5fb6f4eb0703f3154bb3db0017f036b6384b5eca791c62761152d0c79bb0604c104a5fb6f4eb0703f3154bb3db461050b565b5f6100b4565b5f80fd5b818110610516575050565b5f815560010161050b565b6004548110156105395760045f5260205f2001905f90565b634e487b7160e01b5f52603260045260245ffd5b90600182811c9216801561057b575b602083101461056757565b634e487b7160e01b5f52602260045260245ffd5b91607f169161055c565b90601f8111610592575050565b6105ab915f52601f60205f20910160051c81019061050b565b56fe60806040526004361015610011575f80fd5b5f3560e01c8063015157cd146117825780630e270b601461174a5780631d626f88146116ac57806320160362146116785780633c188e84146115dc5780633df952d11461154b5780633e413bee1461150757806350924372146114c257806352d84d1e14611499578063532913a5146113ac578063533c9a551461133f5780636616c1121461110b57806368e84aef146110af57806369d4060114610ff95780636fcb0c0314610f32578063724f963014610efb5780637564912b14610e2d578063780b7ae214610b755780637dc0d1d014610b315780639ef8e837146106675780639f15f2e7146104d6578063b068f34f146102d8578063b0772d0b1461024b578063b29afc96146101fb5763f27b09991461012c575f80fd5b346101e45760403660031901126101e4576101456119ee565b6024356001600160a01b038116908190036101e457604051635b7c2dad60e01b8152600481019190915290606090829060249082906001600160a01b03165afa80156101f0575f905f5f916101ab575b6060935060405192835260208301526040820152f35b5050506060813d6060116101e8575b816101c760609383611819565b810103126101e45780516020820151604090920151606092610195565b5f80fd5b3d91506101ba565b6040513d5f823e3d90fd5b346101e45761021a61020c3661189d565b919060405191829182611a04565b03902080548210156101e457602091610232916117e8565b905460405160039290921b1c6001600160a01b03168152f35b346101e4575f3660031901126101e45760405180602060015491828152019060015f527fb10e2d527612073b26eecdfd717e6a320cf44b4afac2b0732d9fcbe2b7fa0cf6905f5b8181106102b9576102b5856102a981870382611819565b604051918291826118cf565b0390f35b82546001600160a01b0316845260209093019260019283019201610292565b346101e45760203660031901126101e4576001600160a01b036102f96119ee565b1660405163e567e86960e01b81525f81600481855afa9081156101f0575f916104bc575b506040516301fd6cd760e51b8152915f83600481845afa9283156101f0575f93610498575b506040516318cbe5db60e11b815290602082600481845afa9182156101f0575f92610462575b50610160600491604051928380926323341a0560e01b82525afa9081156101f0576103bf935f5f5f5f5f915f935f955f975f995f9b610414575b506103cd906040519e8f9e8f926101a084526101a0840190611911565b916020818403910152611911565b9a60408d015260608c015260808b015260a08a015260c089015260e08801526101008701526101208601521515610140850152151561016084015215156101808301520390f35b975099505050505050506103cd925061044591506101603d811161045b575b61043d8183611819565b810190611aea565b9b909a91999398949795969594939250906103a2565b503d610433565b9091506020813d602011610490575b8161047e60209383611819565b810103126101e4575190610160610368565b3d9150610471565b6104b59193503d805f833e6104ad8183611819565b810190611c9f565b9183610342565b6104d091503d805f833e6104ad8183611819565b8261031d565b346101e4576105416105336104ea3661189d565b5f60c06040959395516104fc816117fd565b8281526060602082015260606040820152826060820152826080820152606060a08201520152604051928391602083019586611a1b565b03601f198101835282611819565b5190205f525f60205260405f2060405161055a816117fd565b81546001600160a01b03168152604051916105838361057c816001850161196d565b0384611819565b6020820192835261065a604051916105a28361057c816002850161196d565b604084019283526003810154906060850191825260048101546080860190815261063b60ff6006604051946105e5866105de816005850161196d565b0387611819565b60a08a019586520154169560c088019615158752610628604051998a9960208b5260018060a01b0390511660208b01525160e060408b01526101008a0190611911565b9051888203601f190160608a0152611911565b925160808701525160a086015251848203601f190160c0860152611911565b9051151560e08301520390f35b346101e4576106753661189d565b61067e82611a6c565b15610af35761068c81611a32565b15610ab55760405160208101906106a881610533858786611a1b565b519020805f525f60205260ff600660405f20015416610a5357620151808202828104620151801483151715610a3f576106e19042611b4e565b6040516402bb4b636160dd1b602082015284519061072d600b60258360208a019580878484015e81016a206265206861636b65643f60a81b838201520301601419810184520182611819565b6040519061211e80830183811067ffffffffffffffff821117610a2b578760a06107ce6107c06040968896611d0388396001841b5f19017f0000000000000000000000000000000000000000000000000000000000000000811687527f000000000000000000000000000000000000000000000000000000000000000016602087015260c0888701819052860190611911565b84810360608601528c611911565b928084036080820152600e84526d6861636b2d696e737572616e636560901b602085015201520301905ff080156101f05760018060a01b031693604051936402bb4b636160dd1b602086015261084f600b6025878a5180888484015e81016a206265206861636b65643f60a81b838201520301601419810188520186611819565b600660405161085d816117fd565b87815261091560208201978a8952604080996108ff825161087e8482611819565b600e81526d6861636b2d696e737572616e636560901b60208201528387019081526108f560608801938d855260808901958c875260a08a0197885260c08a019b60018d525f525f6020525f209860018060a01b039051166bffffffffffffffffffffffff60a01b8a54161789555160018901611b5b565b5160028701611b5b565b5160038501555160048401555160058301611b5b565b019051151560ff8019835416911617905560015495600160401b871015610a2b57610a2286947f69d012a40a52d55baeb6ded14d0eada7c484d42ddb6209dce82797aea225969794610a11946109758b600160209d0160015560016117e8565b81549060031b908a821b9160018060a01b03901b19161790556109a7888a518061099f8982611a04565b039020611c5e565b5f5260038a526109b987895f20611c5e565b6109fe600b60258a5180946402bb4b636160dd1b8f830152885180918484015e81016a206265206861636b65643f60a81b838201520301601419810184520182611819565b8751948594606086526060860190611911565b918a85015283820388850152611911565b0390a251908152f35b634e487b7160e01b5f52604160045260245ffd5b634e487b7160e01b5f52601160045260245ffd5b60405162461bcd60e51b815260206004820152603460248201527f4d61726b657420616c72656164792065786973747320666f72207468697320706044820152733937ba37b1b7b61030b73210323ab930ba34b7b760611b6064820152608490fd5b60405162461bcd60e51b8152602060048201526016602482015275111d5c985d1a5bdb881b9bdd081cdd5c1c1bdc9d195960521b6044820152606490fd5b60405162461bcd60e51b8152602060048201526016602482015275141c9bdd1bd8dbdb081b9bdd081cdd5c1c1bdc9d195960521b6044820152606490fd5b346101e4575f3660031901126101e4576040517f00000000000000000000000000000000000000000000000000000000000000006001600160a01b03168152602090f35b346101e4575f3660031901126101e4576001545f805b828110610d255750610b9c81611ab7565b90610baa6040519283611819565b808252610bb9601f1991611ab7565b013660208301375f915f5b818110610bd957604051806102b585826118cf565b610be2816117b8565b90546040516318cbe5db60e11b815260039290921b1c6001600160a01b031690602081600481855afa9081156101f0575f91610cf4575b504211159081610c8a575b50610c32575b600101610bc4565b92610c3c846117b8565b9054845160039290921b1c6001600160a01b031690821015610c765781610c6e91602060019460051b87010152611adc565b939050610c2a565b634e487b7160e01b5f52603260045260245ffd5b604051633f6fa65560e01b81529150602090829060049082905afa9081156101f0575f91610cbb575b501585610c24565b90506020813d8211610cec575b81610cd560209383611819565b810103126101e457610ce690611acf565b85610cb3565b3d9150610cc8565b90506020813d8211610d1d575b81610d0e60209383611819565b810103126101e4575186610c19565b3d9150610d01565b610d2e816117b8565b90546040516318cbe5db60e11b815260039290921b1c6001600160a01b031690602081600481855afa9081156101f0575f91610dfc575b504211159081610d92575b50610d7e575b600101610b8b565b90610d8a600191611adc565b919050610d76565b604051633f6fa65560e01b81529150602090829060049082905afa9081156101f0575f91610dc3575b501584610d70565b90506020813d8211610df4575b81610ddd60209383611819565b810103126101e457610dee90611acf565b84610dbb565b3d9150610dd0565b90506020813d8211610e25575b81610e1660209383611819565b810103126101e4575185610d65565b3d9150610e09565b346101e45760203660031901126101e4576004355f525f60205260405f2060018060a01b0381541660405191610e6a8361057c816001850161196d565b610eef60405191610e828361057c816002850161196d565b6003810154906004810154610ed760ff600660405194610ea9866105de816005850161196d565b01541695610ec9604051998a998a5260e060208b015260e08a0190611911565b9088820360408a0152611911565b926060870152608086015284820360a0860152611911565b90151560c08301520390f35b346101e45760403660031901126101e4576024356004355f52600360205260405f2080548210156101e457602091610232916117e8565b346101e45760203660031901126101e45760043567ffffffffffffffff81116101e457610f63903690600401611857565b610f6c81611a6c565b610fb457600454600160401b811015610a2b57806001610f8f92016004556117d0565b919091610fa157610f9f91611b5b565b005b634e487b7160e01b5f525f60045260245ffd5b60405162461bcd60e51b815260206004820152601a60248201527f50726f746f636f6c20616c726561647920737570706f727465640000000000006044820152606490fd5b346101e4575f3660031901126101e4576040518060206005549283815201809260055f527f036b6384b5eca791c62761152d0c79bb0604c104a5fb6f4eb0703f3154bb3db0905f5b8181106110995750505081611057910382611819565b604051918291602083019060208452518091526040830191905f5b818110611080575050500390f35b8251845285945060209384019390920191600101611072565b8254845260209093019260019283019201611041565b346101e45760203660031901126101e4576004356004548110156101e4576110d6906117d0565b610fa1576110f06110f76102b5926040519283809261196d565b0382611819565b604051918291602083526020830190611911565b346101e4575f3660031901126101e4576001545f90818080805b84811061114d57509360a0946040519485526020850152604084015260608301526080820152f35b9291611158846117b8565b9054604051633f6fa65560e01b815260039290921b1c6001600160a01b031696906020816004818b5afa9081156101f0575f91611306575b5015611219576101606111a4600492611adc565b975b6040516323341a0560e01b815292839182905afa9182156101f0576001926111e2925f905f926111e9575b506111dc9192611b4e565b94611b4e565b9301611125565b6111dc925061120791506101603d811161045b5761043d8183611819565b505050965094505050505090916111d1565b956040516318cbe5db60e11b8152602081600481855afa9081156101f0575f916112d5575b5042111580611270575b611258575b6101606004916111a6565b91610160611267600492611adc565b9391505061124d565b50604051630153df6760e21b8152602081600481855afa9081156101f0575f9161129c575b5015611248565b90506020813d82116112cd575b816112b660209383611819565b810103126101e4576112c790611acf565b88611295565b3d91506112a9565b90506020813d82116112fe575b816112ef60209383611819565b810103126101e457518861123e565b3d91506112e2565b90506020813d8211611337575b8161132060209383611819565b810103126101e45761133190611acf565b88611190565b3d9150611313565b346101e45760203660031901126101e4576004355f52600360205260405f206040519081602082549182815201915f5260205f20905f5b81811061138d576102b5856102a981870382611819565b82546001600160a01b0316845260209093019260019283019201611376565b346101e4575f3660031901126101e4576004546113c881611ab7565b906113d66040519283611819565b80825260208201908160045f527f8a35acfbc15ff81a39ae7d344fd709f28e8600b4aa8c65c6b64bfe7fe36bd19b5f915b83831061147457848660405191829160208301906020845251809152604083019060408160051b85010192915f905b82821061144557505050500390f35b919360019193955060206114648192603f198a82030186528851611911565b9601920192018594939192611436565b60016020819260405161148b816110f0818961196d565b815201920192019190611407565b346101e45760203660031901126101e4576004356001548110156101e4576102326020916117b8565b346101e45760203660031901126101e45760043567ffffffffffffffff81116101e4576114fd6114f86020923690600401611857565b611a6c565b6040519015158152f35b346101e4575f3660031901126101e4576040517f00000000000000000000000000000000000000000000000000000000000000006001600160a01b03168152602090f35b346101e45760203660031901126101e45760043567ffffffffffffffff81116101e45761157f61158b913690600401611857565b60405191829182611a04565b0390206040519081602082549182815201915f5260205f20905f5b8181106115bd576102b5856102a981870382611819565b82546001600160a01b03168452602090930192600192830192016115a6565b346101e4576116046105336115f03661189d565b604093919351928391602083019586611a1b565b519020805f525f60205260ff600660405f200154161561163b575f525f602052602060018060a01b0360405f205416604051908152f35b60405162461bcd60e51b815260206004820152601560248201527413585c9ad95d08191bd95cc81b9bdd08195e1a5cdd605a1b6044820152606490fd5b346101e45761168c6105336115f03661189d565b5190205f525f602052602060ff600660405f200154166040519015158152f35b346101e45760203660031901126101e4576004356116c981611a32565b61170557600554600160401b811015610a2b578060016116ec92016005556117a0565b819291549060031b91821b915f19901b19161790555f80f35b60405162461bcd60e51b815260206004820152601a60248201527f4475726174696f6e20616c726561647920737570706f727465640000000000006044820152606490fd5b346101e45760203660031901126101e4576004356005548110156101e4576117736020916117a0565b90549060031b1c604051908152f35b346101e45760203660031901126101e45760206114fd600435611a32565b600554811015610c765760055f5260205f2001905f90565b600154811015610c765760015f5260205f2001905f90565b600454811015610c765760045f5260205f2001905f90565b8054821015610c76575f5260205f2001905f90565b60e0810190811067ffffffffffffffff821117610a2b57604052565b90601f8019910116810190811067ffffffffffffffff821117610a2b57604052565b67ffffffffffffffff8111610a2b57601f01601f191660200190565b81601f820112156101e45780359061186e8261183b565b9261187c6040519485611819565b828452602083830101116101e457815f926020809301838601378301015290565b60406003198201126101e4576004359067ffffffffffffffff82116101e4576118c891600401611857565b9060243590565b60206040818301928281528451809452019201905f5b8181106118f25750505090565b82516001600160a01b03168452602093840193909201916001016118e5565b805180835260209291819084018484015e5f828201840152601f01601f1916010190565b90600182811c92168015611963575b602083101461194f57565b634e487b7160e01b5f52602260045260245ffd5b91607f1691611944565b5f929181549161197c83611935565b80835292600181169081156119d1575060011461199857505050565b5f9081526020812093945091925b8383106119b7575060209250010190565b6001816020929493945483858701015201910191906119a6565b915050602093945060ff929192191683830152151560051b010190565b600435906001600160a01b03821682036101e457565b602091908291805192839101825e01600281520190565b60209291908391805192839101825e019081520190565b600554905f5b828110611a46575050505f90565b81611a50826117a0565b90549060031b1c14611a6457600101611a38565b505050600190565b600454905f5b828110611a80575050505f90565b6110f0611a9c611a8f836117d0565b506040519283809261196d565b602081519101208251602084012014611a6457600101611a72565b67ffffffffffffffff8111610a2b5760051b60200190565b519081151582036101e457565b5f198114610a3f5760010190565b90816101609103126101e45780519160208201519160408101519160608201519160808101519160a08201519160c08101519160e082015191611b306101008201611acf565b91611b4b610140611b446101208501611acf565b9301611acf565b90565b91908201809211610a3f57565b919091825167ffffffffffffffff8111610a2b57611b798254611935565b601f8111611c19575b506020601f8211600114611bbb57819293945f92611bb0575b50508160011b915f199060031b1c1916179055565b015190505f80611b9b565b601f19821690835f52805f20915f5b818110611c0157509583600195969710611be9575b505050811b019055565b01515f1960f88460031b161c191690555f8080611bdf565b9192602060018192868b015181550194019201611bca565b825f5260205f20601f830160051c81019160208410611c54575b601f0160051c01905b818110611c495750611b82565b5f8155600101611c3c565b9091508190611c33565b8054600160401b811015610a2b57611c7b916001820181556117e8565b81546001600160a01b0393841660039290921b91821b9390911b1916919091179055565b6020818303126101e45780519067ffffffffffffffff82116101e4570181601f820112156101e457805190611cd38261183b565b92611ce16040519485611819565b828452602083830101116101e457815f9260208093018386015e830101529056fe60c0604052346105635761211e8038038061001981610567565b928339810160c0828203126105635781516001600160a01b0381169290839003610563576020810151926001600160a01b03841684036105635760408201516001600160401b038111610563578361007291840161058c565b60608301519094906001600160401b038111610563578461009491850161058c565b60808401519094906001600160401b0381116105635760a0916100b891860161058c565b93015160809290925260a05283516001600160401b03811161039c575f54600181811c91168015610559575b602082101461037e57601f81116104f7575b50602094601f8211600114610496579481929394955f9261048b575b50508160011b915f199060031b1c1916175f555b82516001600160401b03811161039c57600154600181811c91168015610481575b602082101461037e57601f811161041e575b506020601f82116001146103bb57819293945f926103b0575b50508160011b915f199060031b1c1916176001555b81516001600160401b03811161039c57600254600181811c91168015610392575b602082101461037e57601f811161031b575b50602092601f82116001146102ba57928192935f926102af575b50508160011b915f199060031b1c1916176002555b6201518081029080820462015180149015171561029b57420180421161029b576003556b019d971e4fe8401e740000006008556b019d971e4fe8401e740000006009555f6006555f600755604051611b4090816105de82396080518181816102360152818161075101528181610ad401528181610cf001528181611002015281816112a601526114a6015260a0518181816105a8015281816106ce015281816108ee01528181610e8701526110b60152f35b634e487b7160e01b5f52601160045260245ffd5b015190505f806101d4565b601f1982169360025f52805f20915f5b86811061030357508360019596106102eb575b505050811b016002556101e9565b01515f1960f88460031b161c191690555f80806102dd565b919260206001819286850151815501940192016102ca565b60025f527f405787fa12a823e0f2b7631cc41b3ba8828b3321ca811111fa75cd3aa3bb5ace601f830160051c81019160208410610374575b601f0160051c01905b81811061036957506101ba565b5f815560010161035c565b9091508190610353565b634e487b7160e01b5f52602260045260245ffd5b90607f16906101a8565b634e487b7160e01b5f52604160045260245ffd5b015190505f80610172565b601f1982169060015f52805f20915f5b818110610406575095836001959697106103ee575b505050811b01600155610187565b01515f1960f88460031b161c191690555f80806103e0565b9192602060018192868b0151815501940192016103cb565b60015f527fb10e2d527612073b26eecdfd717e6a320cf44b4afac2b0732d9fcbe2b7fa0cf6601f830160051c81019160208410610477575b601f0160051c01905b81811061046c5750610159565b5f815560010161045f565b9091508190610456565b90607f1690610147565b015190505f80610112565b601f198216955f8052805f20915f5b8881106104df575083600195969798106104c7575b505050811b015f55610126565b01515f1960f88460031b161c191690555f80806104ba565b919260206001819286850151815501940192016104a5565b5f80527f290decd9548b62a8d60345a988386fc84ba6bc95484008f6362f93160ef3e563601f830160051c8101916020841061054f575b601f0160051c01905b81811061054457506100f6565b5f8155600101610537565b909150819061052e565b90607f16906100e4565b5f80fd5b6040519190601f01601f191682016001600160401b0381118382101761039c57604052565b81601f82011215610563578051906001600160401b03821161039c576105bb601f8301601f1916602001610567565b928284526020838301011161056357815f9260208093018386015e830101529056fe6080806040526004361015610012575f80fd5b5f3560e01c908163054f7d9c1461153557508063061dd98d1461143357806312b01b1614611419578063194a4e7e146113fc57806323341a051461136e57806329e2a741146113505780632ff2e9dc1461132a5780633197cbb61461130d57806331b7d413146112f057806334fbc9a1146112d55780633e413bee146112915780633f6fa6551461126f5780633f9ddfb5146112405780633fad9ae0146111885780634b339c0d1461109157806358c36e5c14610f8f5780635b7c2dad14610f3157806367e9d24b14610f145780636f1d4ea414610ef757806373b2e80e14610eb65780637dc0d1d014610e725780637f785d5e14610e555780638779086f14610e3b57806394677ba614610c83578063a3b5afb114610c66578063a877933f14610c29578063aa0e6bc414610bed578063aaf5eb6814610bcb578063b401faf114610a32578063c390bd30146108bb578063c573b73114610895578063c580f73714610878578063cbee38dc14610853578063cd2013e214610817578063d0b7830b146106a9578063df2e506614610583578063e567e869146104c8578063ef430aa6146103c45763f191dd32146101c9575f80fd5b346103c0576101d7366115b7565b600d5460ff81161590816103b1575b50806103a6575b6101f6906115cd565b610205620f424083101561160b565b6040516323b872dd60e01b8152336004820152306024820152604481018390526020816064815f6001600160a01b037f0000000000000000000000000000000000000000000000000000000000000000165af1801561039b5761026f915f9161036c575b5061166f565b60648202828104606414831517156103585761271061030c91046102d961029682866116de565b6102ab6102a2826117b8565b958610156119ae565b6102b68515156116eb565b6102ce856008546102c981831115611727565b6116de565b60085560095461176c565b600955335f52600460205260405f206102f384825461176c565b90556103018360065461176c565b600655600b5461176c565b600b5561031b82600a5461176c565b600a556040519160018352602083015260408201527f54b3dbdef11dba5c2d31f70f348a70ca0f7fc83fce4f7f1db955a9df2f63934c60603392a2005b634e487b7160e01b5f52601160045260245ffd5b61038e915060203d602011610394575b6103868183611557565b810190611657565b5f610269565b503d61037c565b6040513d5f823e3d90fd5b5060035442106101ed565b60ff915060101c16155f6101e6565b5f80fd5b346103c0575f3660031901126103c0576040515f6002548060011c906001811680156104be575b6020831081146104aa578285529081156104865750600114610428575b6104248361041881850382611557565b6040519182918261158d565b0390f35b60025f9081527f405787fa12a823e0f2b7631cc41b3ba8828b3321ca811111fa75cd3aa3bb5ace939250905b80821061046c57509091508101602001610418610408565b919260018160209254838588010152019101909291610454565b60ff191660208086019190915291151560051b840190910191506104189050610408565b634e487b7160e01b5f52602260045260245ffd5b91607f16916103eb565b346103c0575f3660031901126103c0576040515f6001548060011c90600181168015610579575b6020831081146104aa57828552908115610486575060011461051b576104248361041881850382611557565b60015f9081527fb10e2d527612073b26eecdfd717e6a320cf44b4afac2b0732d9fcbe2b7fa0cf6939250905b80821061055f57509091508101602001610418610408565b919260018160209254838588010152019101909291610547565b91607f16916104ef565b346103c0575f3660031901126103c057604051636a51ce3760e01b81523060048201527f00000000000000000000000000000000000000000000000000000000000000006001600160a01b0316602082602481845afa90811561039b576105f8925f92610688575b508161067e575b506118f1565b600d5460ff8160101c16610648578061061860ff6201000093161561192b565b62ff0000191617600d557fb2ce2a931a2019b6f6fecebbc5e97d79e45042a5268af05c1cad2760b3be40545f80a1005b60405162461bcd60e51b815260206004820152600e60248201526d20b63932b0b23c90333937bd32b760911b6044820152606490fd5b90503314826105f2565b6106a291925060203d602011610394576103868183611557565b90836105eb565b346103c0575f3660031901126103c057604051636a51ce3760e01b81523060048201527f00000000000000000000000000000000000000000000000000000000000000006001600160a01b0316602082602481845afa90811561039b5761071c925f9261068857508161067e57506118f1565b600b5480156107dc575f600b5560405163a9059cbb60e01b81523360048201526024810182905290602082806044810103815f7f00000000000000000000000000000000000000000000000000000000000000006001600160a01b03165af190811561039b576107b66020927f9870c8023baa016ac002ddfa7cdad341155acddddee3032c07d4baa4947ae643945f916107bf575061166f565b604051908152a1005b6107d69150843d8611610394576103868183611557565b85610269565b60405162461bcd60e51b81526020600482015260136024820152724e6f206665657320746f20776974686472617760681b6044820152606490fd5b346103c05760203660031901126103c0576004356001600160a01b038116908190036103c0575f526004602052602060405f2054604051908152f35b346103c0575f3660031901126103c057602060ff600d5460081c166040519015158152f35b346103c0575f3660031901126103c0576020600a54604051908152f35b346103c05760203660031901126103c05760206108b3600435611ad7565b604051908152f35b346103c05760203660031901126103c0576004358015158091036103c057604051636a51ce3760e01b81523060048201527f00000000000000000000000000000000000000000000000000000000000000006001600160a01b0316602082602481845afa90811561039b5761093d925f92610a11575b5081610a0757506118f1565b600d5460ff81166109cf5760035442106109945761ffff1916600882901b61ff001617600117600d556040519081527ff528f3b02f5c2503827fc677c9d0cb54ffbf11ed32cb659f73243b70dea7cf0e90602090a1005b60405162461bcd60e51b81526020600482015260136024820152724d61726b6574207374696c6c2061637469766560681b6044820152606490fd5b60405162461bcd60e51b815260206004820152601060248201526f105b1c9958591e481c995cdbdb1d995960821b6044820152606490fd5b90503314836105f2565b610a2b91925060203d602011610394576103868183611557565b9084610931565b346103c0575f3660031901126103c05760ff600d5416610a51816119ee565b335f52600c60205260ff60405f205416610b9457610a6e906119ee565b610a7733611a30565b8015610b6157335f818152600c60209081526040808320805460ff19166001179055600480835281842084905560058352818420939093555163a9059cbb60e01b815291820192909252602481018390529081806044810103815f7f00000000000000000000000000000000000000000000000000000000000000006001600160a01b03165af1801561039b57610b14915f91610b42575061166f565b6040519081527f1a31e733a172afcf46074b3106c17f0c298e226442682a03c1e99ce256139ec260203392a2005b610b5b915060203d602011610394576103868183611557565b83610269565b60405162461bcd60e51b815260206004820152600b60248201526a4e6f2077696e6e696e677360a81b6044820152606490fd5b60405162461bcd60e51b815260206004820152600f60248201526e105b1c9958591e4818db185a5b5959608a1b6044820152606490fd5b346103c0575f3660031901126103c0576020604051670de0b6b3a76400008152f35b346103c05760203660031901126103c0576004356001600160a01b038116908190036103c0575f526005602052602060405f2054604051908152f35b346103c05760203660031901126103c0576004356001600160a01b03811681036103c0576108b3602091610c6160ff600d54166119ee565b611a30565b346103c0575f3660031901126103c0576020600954604051908152f35b346103c057610c91366115b7565b600d5460ff8116159081610e2c575b5080610e21575b610cb0906115cd565b610cbf620f424083101561160b565b6040516323b872dd60e01b8152336004820152306024820152604481018390526020816064815f6001600160a01b037f0000000000000000000000000000000000000000000000000000000000000000165af1801561039b57610d28915f91610e02575061166f565b606482028281046064148315171561035857612710610db79104610d84610d4f82866116de565b610d5b6102a282611ad7565b610d668515156116eb565b610d79856009546102c981831115611727565b60095560085461176c565b600855335f52600560205260405f20610d9e84825461176c565b9055610dac8360075461176c565b600755600b5461176c565b600b55610dc682600a5461176c565b600a55604051915f8352602083015260408201527f54b3dbdef11dba5c2d31f70f348a70ca0f7fc83fce4f7f1db955a9df2f63934c60603392a2005b610e1b915060203d602011610394576103868183611557565b84610269565b506003544210610ca7565b60ff915060101c161583610ca0565b346103c0575f3660031901126103c05760206108b3611977565b346103c0575f3660031901126103c0576020600754604051908152f35b346103c0575f3660031901126103c0576040517f00000000000000000000000000000000000000000000000000000000000000006001600160a01b03168152602090f35b346103c05760203660031901126103c0576004356001600160a01b038116908190036103c0575f52600c602052602060ff60405f2054166040519015158152f35b346103c0575f3660031901126103c0576020600854604051908152f35b346103c0575f3660031901126103c0576020600654604051908152f35b346103c05760203660031901126103c0576004356001600160a01b0381168082036103c057606091815f52600460205260405f2054915f526005602052610f7c60405f205491611802565b9060405192835260208301526040820152f35b346103c05760203660031901126103c057600435600d5460ff8116159081611082575b5080611077575b610fc2906115cd565b610fd1620f424082101561160b565b6040516323b872dd60e01b8152336004820152306024820152604481018290526020816064815f6001600160a01b037f0000000000000000000000000000000000000000000000000000000000000000165af1801561039b5761103a915f91610b42575061166f565b6064810281810460641482151715610358576127109004610db761105e82846116de565b91610d8461106b84611ad7565b93610d668515156116eb565b506003544210610fb9565b60ff915060101c161582610fb2565b346103c0575f3660031901126103c057604051636a51ce3760e01b81523060048201527f00000000000000000000000000000000000000000000000000000000000000006001600160a01b0316602082602481845afa90811561039b57611104925f9261068857508161067e57506118f1565b600d5460ff8160101c161561114f5761112060ff82161561192b565b62ff00001916600d557fec33a40c16cb54a3aa8055d187508a1746f48ece03ec43ef4428c99f618ffca25f80a1005b60405162461bcd60e51b815260206004820152601160248201527026b0b935b2ba103737ba10333937bd32b760791b6044820152606490fd5b346103c0575f3660031901126103c0576040515f5f548060011c90600181168015611236575b6020831081146104aa5782855290811561048657506001146111da576104248361041881850382611557565b5f8080527f290decd9548b62a8d60345a988386fc84ba6bc95484008f6362f93160ef3e563939250905b80821061121c57509091508101602001610418610408565b919260018160209254838588010152019101909291611204565b91607f16916111ae565b346103c05760203660031901126103c0576004356001600160a01b03811681036103c0576108b3602091611802565b346103c0575f3660031901126103c057602060ff600d54166040519015158152f35b346103c0575f3660031901126103c0576040517f00000000000000000000000000000000000000000000000000000000000000006001600160a01b03168152602090f35b346103c0575f3660031901126103c057602060405160648152f35b346103c0575f3660031901126103c0576020604051620f42408152f35b346103c0575f3660031901126103c0576020600354604051908152f35b346103c0575f3660031901126103c05760206040516b033b2e3c9fd0803ce80000008152f35b346103c05760203660031901126103c05760206108b36004356117b8565b346103c0575f3660031901126103c05761016060085460ff600954600654600754611397611977565b61139f611779565b90600a5492600b5494600d5496604051998a5260208a015260408901526060880152608087015260a086015260c085015260e08401528181161515610100840152818160081c16151561012084015260101c161515610140820152f35b346103c0575f3660031901126103c0576020600b54604051908152f35b346103c0575f3660031901126103c05760206108b3611779565b346103c05760203660031901126103c057600435600d5460ff8116159081611526575b508061151b575b611466906115cd565b611475620f424082101561160b565b6040516323b872dd60e01b8152336004820152306024820152604481018290526020816064815f6001600160a01b037f0000000000000000000000000000000000000000000000000000000000000000165af1801561039b576114de915f91610b42575061166f565b606481028181046064148215171561035857612710900461030c61150282846116de565b916102d961150f846117b8565b936102b68515156116eb565b50600354421061145d565b60ff915060101c161582611456565b346103c0575f3660031901126103c05760209060ff600d5460101c1615158152f35b90601f8019910116810190811067ffffffffffffffff82111761157957604052565b634e487b7160e01b5f52604160045260245ffd5b602060409281835280519182918282860152018484015e5f828201840152601f01601f1916010190565b60409060031901126103c0576004359060243590565b156115d457565b60405162461bcd60e51b815260206004820152600f60248201526e4d61726b657420696e61637469766560881b6044820152606490fd5b1561161257565b60405162461bcd60e51b815260206004820152601a60248201527f42656c6f77206d696e696d756d20747261646520616d6f756e740000000000006044820152606490fd5b908160209103126103c0575180151581036103c05790565b1561167657565b60405162461bcd60e51b815260206004820152600f60248201526e151c985b9cd9995c8819985a5b1959608a1b6044820152606490fd5b8181029291811591840414171561035857565b81156116ca570490565b634e487b7160e01b5f52601260045260245ffd5b9190820391821161035857565b156116f257565b60405162461bcd60e51b815260206004820152600d60248201526c139bc81d1bdad95b9cc81bdd5d609a1b6044820152606490fd5b1561172e57565b60405162461bcd60e51b8152602060048201526016602482015275496e73756666696369656e74206c697175696469747960501b6044820152606490fd5b9190820180921161035857565b60095480156117b35760085490670de0b6b3a7640000820291808304670de0b6b3a76400001490151715610358576117b0916116c0565b90565b505f90565b600854801580156117f8575b6117f2576117ec6117b0926117e6600954916117e083866116ad565b9261176c565b906116c0565b906116de565b50505f90565b50600954156117c4565b60ff600d5416806118e457506001600160a01b03165f908152600460209081526040808320546005909252909120548115919082806118dc575b6118d55761184f600a54600b54906116de565b5f935f936006549182151590816118cc575b506118b4575b505060075491821515806118ab575b61188f575b5050508082111561188a575090565b905090565b6118a393509061189e916116ad565b6116c0565b5f808061187b565b50801515611876565b826118c493965061189e916116ad565b925f80611867565b9050155f611861565b5050505f90565b50801561183c565b90610c616117b0926119ee565b156118f857565b60405162461bcd60e51b815260206004820152600b60248201526a4f6e6c79206f7261636c6560a81b6044820152606490fd5b1561193257565b60405162461bcd60e51b815260206004820152601760248201527f4d61726b657420616c7265616479207265736f6c7665640000000000000000006044820152606490fd5b60085480156117b35760095490670de0b6b3a7640000820291808304670de0b6b3a76400001490151715610358576117b0916116c0565b156119b557565b60405162461bcd60e51b81526020600482015260116024820152700a6d8d2e0e0c2ceca40e8dede40d0d2ced607b1b6044820152606490fd5b156119f557565b60405162461bcd60e51b815260206004820152601360248201527213585c9ad95d081b9bdd081c995cdbdb1d9959606a1b6044820152606490fd5b611a3f600a54600b54906116de565b9060ff600d5460081c165f14611a93576001600160a01b03165f9081526004602052604090205480158015611a89575b6117f2576117b091611a80916116ad565b600654906116c0565b5060065415611a6f565b6001600160a01b03165f9081526005602052604090205480158015611acd575b6117f2576117b091611ac4916116ad565b600754906116c0565b5060075415611ab3565b6008549081158015611b00575b6117f2576117ec6117b0926117e6600954936117e085846116ad565b5060095415611ae456fea2646970667358221220155e6cbbe741ff051f4087b1381e9bc6e865725463a6eae892b60947e7feaa6664736f6c634300081c0033a26469706673582212208f039512a20ff8837f7efb2c23478869711a77a3bc773186af9288c291a8b33664736f6c634300081c0033","linkReferences":{}},"methodIdentifiers":{"addDuration(uint256)":"1d626f88","addProtocol(string)":"6fcb0c03","allMarkets(uint256)":"52d84d1e","deployMarket(string,uint256)":"9ef8e837","getAllActiveMarkets()":"780b7ae2","getAllMarkets()":"b0772d0b","getMarketAddress(string,uint256)":"3c188e84","getMarketDetails(address)":"b068f34f","getMarketInfo(string,uint256)":"9f15f2e7","getMarketStatistics()":"6616c112","getMarketsByExpiry(uint256)":"533c9a55","getMarketsByProtocol(string)":"3df952d1","getSupportedDurations()":"69d40601","getSupportedProtocols()":"532913a5","getUserPositionInMarket(address,address)":"f27b0999","isDurationSupported(uint256)":"015157cd","isProtocolSupported(string)":"50924372","marketExists(string,uint256)":"20160362","markets(bytes32)":"7564912b","marketsByExpiry(uint256,uint256)":"724f9630","marketsByProtocol(string,uint256)":"b29afc96","oracle()":"7dc0d1d0","supportedDurations(uint256)":"0e270b60","supportedProtocols(uint256)":"68e84aef","usdc()":"3e413bee"},"id":25}