{"abi":[{"type":"constructor","inputs":[{"name":"_usdc","type":"address","internalType":"address"},{"name":"_oracle","type":"address","internalType":"contract IOracle"}],"stateMutability":"nonpayable"},{"type":"function","name":"allMarkets","inputs":[{"name":"","type":"uint256","internalType":"uint256"}],"outputs":[{"name":"","type":"address","internalType":"address"}],"stateMutability":"view"},{"type":"function","name":"deployMarket","inputs":[{"name":"protocol","type":"string","internalType":"string"},{"name":"durationInDays","type":"uint256","internalType":"uint256"}],"outputs":[{"name":"market","type":"address","internalType":"address"},{"name":"yesToken","type":"address","internalType":"address"},{"name":"noToken","type":"address","internalType":"address"}],"stateMutability":"nonpayable"},{"type":"function","name":"getAllActiveMarkets","inputs":[],"outputs":[{"name":"","type":"address[]","internalType":"address[]"}],"stateMutability":"view"},{"type":"function","name":"getAllMarkets","inputs":[],"outputs":[{"name":"","type":"address[]","internalType":"address[]"}],"stateMutability":"view"},{"type":"function","name":"getMarketInfo","inputs":[{"name":"protocol","type":"string","internalType":"string"},{"name":"expiry","type":"uint256","internalType":"uint256"}],"outputs":[{"name":"","type":"tuple","internalType":"struct PredictionMarketFactory.MarketInfo","components":[{"name":"market","type":"address","internalType":"address"},{"name":"yesToken","type":"address","internalType":"address"},{"name":"noToken","type":"address","internalType":"address"},{"name":"protocol","type":"string","internalType":"string"},{"name":"category","type":"string","internalType":"string"},{"name":"expiry","type":"uint256","internalType":"uint256"},{"name":"durationInDays","type":"uint256","internalType":"uint256"},{"name":"question","type":"string","internalType":"string"},{"name":"exists","type":"bool","internalType":"bool"}]}],"stateMutability":"view"},{"type":"function","name":"getMarketsByExpiry","inputs":[{"name":"durationInDays","type":"uint256","internalType":"uint256"}],"outputs":[{"name":"","type":"address[]","internalType":"address[]"}],"stateMutability":"view"},{"type":"function","name":"getMarketsByProtocol","inputs":[{"name":"protocol","type":"string","internalType":"string"}],"outputs":[{"name":"","type":"address[]","internalType":"address[]"}],"stateMutability":"view"},{"type":"function","name":"getSupportedDurations","inputs":[],"outputs":[{"name":"","type":"uint256[]","internalType":"uint256[]"}],"stateMutability":"view"},{"type":"function","name":"getSupportedProtocols","inputs":[],"outputs":[{"name":"","type":"string[]","internalType":"string[]"}],"stateMutability":"view"},{"type":"function","name":"isDurationSupported","inputs":[{"name":"duration","type":"uint256","internalType":"uint256"}],"outputs":[{"name":"","type":"bool","internalType":"bool"}],"stateMutability":"view"},{"type":"function","name":"isProtocolSupported","inputs":[{"name":"protocol","type":"string","internalType":"string"}],"outputs":[{"name":"","type":"bool","internalType":"bool"}],"stateMutability":"view"},{"type":"function","name":"markets","inputs":[{"name":"","type":"bytes32","internalType":"bytes32"}],"outputs":[{"name":"market","type":"address","internalType":"address"},{"name":"yesToken","type":"address","internalType":"address"},{"name":"noToken","type":"address","internalType":"address"},{"name":"protocol","type":"string","internalType":"string"},{"name":"category","type":"string","internalType":"string"},{"name":"expiry","type":"uint256","internalType":"uint256"},{"name":"durationInDays","type":"uint256","internalType":"uint256"},{"name":"question","type":"string","internalType":"string"},{"name":"exists","type":"bool","internalType":"bool"}],"stateMutability":"view"},{"type":"function","name":"marketsByExpiry","inputs":[{"name":"","type":"uint256","internalType":"uint256"},{"name":"","type":"uint256","internalType":"uint256"}],"outputs":[{"name":"","type":"address","internalType":"address"}],"stateMutability":"view"},{"type":"function","name":"marketsByProtocol","inputs":[{"name":"","type":"string","internalType":"string"},{"name":"","type":"uint256","internalType":"uint256"}],"outputs":[{"name":"","type":"address","internalType":"address"}],"stateMutability":"view"},{"type":"function","name":"oracle","inputs":[],"outputs":[{"name":"","type":"address","internalType":"contract IOracle"}],"stateMutability":"view"},{"type":"function","name":"supportedDurations","inputs":[{"name":"","type":"uint256","internalType":"uint256"}],"outputs":[{"name":"","type":"uint256","internalType":"uint256"}],"stateMutability":"view"},{"type":"function","name":"supportedProtocols","inputs":[{"name":"","type":"uint256","internalType":"uint256"}],"outputs":[{"name":"","type":"string","internalType":"string"}],"stateMutability":"view"},{"type":"function","name":"usdc","inputs":[],"outputs":[{"name":"","type":"address","internalType":"contract IERC20"}],"stateMutability":"view"},{"type":"event","name":"MarketCreated","inputs":[{"name":"market","type":"address","indexed":true,"internalType":"address"},{"name":"yesToken","type":"address","indexed":true,"internalType":"address"},{"name":"noToken","type":"address","indexed":true,"internalType":"address"},{"name":"protocol","type":"string","indexed":false,"internalType":"string"},{"name":"expiry","type":"uint256","indexed":false,"internalType":"uint256"},{"name":"question","type":"string","indexed":false,"internalType":"string"}],"anonymous":false}],"bytecode":{"object":"0x60c06040526040518060800160405280601e61ffff168152602001605a61ffff16815260200160b461ffff16815260200161016d61ffff16815250600590600461004a929190610597565b50348015610056575f5ffd5b506040516196d73803806196d78339818101604052810190610078919061069c565b8173ffffffffffffffffffffffffffffffffffffffff1660808173ffffffffffffffffffffffffffffffffffffffff16815250508073ffffffffffffffffffffffffffffffffffffffff1660a08173ffffffffffffffffffffffffffffffffffffffff168152505060048060018154018082558091505060019003905f5260205f20015f6040518060400160405280600781526020017f556e697377617000000000000000000000000000000000000000000000000000815250909190915090816101439190610917565b5060048060018154018082558091505060019003905f5260205f20015f6040518060400160405280600481526020017f4161766500000000000000000000000000000000000000000000000000000000815250909190915090816101a79190610917565b5060048060018154018082558091505060019003905f5260205f20015f6040518060400160405280600881526020017f436f6d706f756e640000000000000000000000000000000000000000000000008152509091909150908161020b9190610917565b5060048060018154018082558091505060019003905f5260205f20015f6040518060400160405280600881526020017f4d616b657244414f0000000000000000000000000000000000000000000000008152509091909150908161026f9190610917565b5060048060018154018082558091505060019003905f5260205f20015f6040518060400160405280600581526020017f4375727665000000000000000000000000000000000000000000000000000000815250909190915090816102d39190610917565b5060048060018154018082558091505060019003905f5260205f20015f6040518060400160405280600981526020017f436861696e6c696e6b0000000000000000000000000000000000000000000000815250909190915090816103379190610917565b5060048060018154018082558091505060019003905f5260205f20015f6040518060400160405280600481526020017f4c69646f000000000000000000000000000000000000000000000000000000008152509091909150908161039b9190610917565b5060048060018154018082558091505060019003905f5260205f20015f6040518060400160405280600881526020017f42616c616e636572000000000000000000000000000000000000000000000000815250909190915090816103ff9190610917565b5060048060018154018082558091505060019003905f5260205f20015f6040518060400160405280600981526020017f53796e7468657469780000000000000000000000000000000000000000000000815250909190915090816104639190610917565b5060048060018154018082558091505060019003905f5260205f20015f6040518060400160405280600581526020017f596561726e000000000000000000000000000000000000000000000000000000815250909190915090816104c79190610917565b5060048060018154018082558091505060019003905f5260205f20015f6040518060400160405280600481526020017f416e6b72000000000000000000000000000000000000000000000000000000008152509091909150908161052b9190610917565b5060048060018154018082558091505060019003905f5260205f20015f6040518060400160405280600581526020017f53757368690000000000000000000000000000000000000000000000000000008152509091909150908161058f9190610917565b5050506109e6565b828054828255905f5260205f209081019282156105d7579160200282015b828111156105d6578251829061ffff169055916020019190600101906105b5565b5b5090506105e491906105e8565b5090565b5b808211156105ff575f815f9055506001016105e9565b5090565b5f5ffd5b5f73ffffffffffffffffffffffffffffffffffffffff82169050919050565b5f61063082610607565b9050919050565b61064081610626565b811461064a575f5ffd5b50565b5f8151905061065b81610637565b92915050565b5f61066b82610626565b9050919050565b61067b81610661565b8114610685575f5ffd5b50565b5f8151905061069681610672565b92915050565b5f5f604083850312156106b2576106b1610603565b5b5f6106bf8582860161064d565b92505060206106d085828601610688565b9150509250929050565b5f81519050919050565b7f4e487b71000000000000000000000000000000000000000000000000000000005f52604160045260245ffd5b7f4e487b71000000000000000000000000000000000000000000000000000000005f52602260045260245ffd5b5f600282049050600182168061075557607f821691505b60208210810361076857610767610711565b5b50919050565b5f819050815f5260205f209050919050565b5f6020601f8301049050919050565b5f82821b905092915050565b5f600883026107ca7fffffffffffffffffffffffffffffffffffffffffffffffffffffffffffffffff8261078f565b6107d4868361078f565b95508019841693508086168417925050509392505050565b5f819050919050565b5f819050919050565b5f61081861081361080e846107ec565b6107f5565b6107ec565b9050919050565b5f819050919050565b610831836107fe565b61084561083d8261081f565b84845461079b565b825550505050565b5f5f905090565b61085c61084d565b610867818484610828565b505050565b5b8181101561088a5761087f5f82610854565b60018101905061086d565b5050565b601f8211156108cf576108a08161076e565b6108a984610780565b810160208510156108b8578190505b6108cc6108c485610780565b83018261086c565b50505b505050565b5f82821c905092915050565b5f6108ef5f19846008026108d4565b1980831691505092915050565b5f61090783836108e0565b9150826002028217905092915050565b610920826106da565b67ffffffffffffffff811115610939576109386106e4565b5b610943825461073e565b61094e82828561088e565b5f60209050601f83116001811461097f575f841561096d578287015190505b61097785826108fc565b8655506109de565b601f19841661098d8661076e565b5f5b828110156109b45784890151825560018201915060208501945060208101905061098f565b868310156109d157848901516109cd601f8916826108e0565b8355505b6001600288020188555050505b505050505050565b60805160a051618cc2610a155f395f8181610e9d01526119af01525f8181610538015261198e0152618cc25ff3fe608060405234801561000f575f5ffd5b5060043610610114575f3560e01c806369d40601116100a05780637dc0d1d01161006f5780637dc0d1d0146103485780639ef8e837146103665780639f15f2e714610398578063b0772d0b146103c8578063b29afc96146103e657610114565b806369d40601146102a4578063724f9630146102c25780637564912b146102f2578063780b7ae21461032a57610114565b806350924372116100e757806350924372146101c657806352d84d1e146101f6578063532913a514610226578063533c9a551461024457806368e84aef1461027457610114565b8063015157cd146101185780630e270b60146101485780633df952d1146101785780633e413bee146101a8575b5f5ffd5b610132600480360381019061012d9190611d25565b610416565b60405161013f9190611d6a565b60405180910390f35b610162600480360381019061015d9190611d25565b61046d565b60405161016f9190611d92565b60405180910390f35b610192600480360381019061018d9190611ee7565b61048d565b60405161019f9190612015565b60405180910390f35b6101b0610536565b6040516101bd9190612090565b60405180910390f35b6101e060048036038101906101db9190611ee7565b61055a565b6040516101ed9190611d6a565b60405180910390f35b610210600480360381019061020b9190611d25565b6105cc565b60405161021d91906120b8565b60405180910390f35b61022e610607565b60405161023b91906121ec565b60405180910390f35b61025e60048036038101906102599190611d25565b6106db565b60405161026b9190612015565b60405180910390f35b61028e60048036038101906102899190611d25565b610777565b60405161029b9190612254565b60405180910390f35b6102ac61081d565b6040516102b9919061232b565b60405180910390f35b6102dc60048036038101906102d7919061234b565b610873565b6040516102e991906120b8565b60405180910390f35b61030c600480360381019061030791906123bc565b6108bb565b604051610321999897969594939291906123e7565b60405180910390f35b610332610aff565b60405161033f9190612015565b60405180910390f35b610350610e9b565b60405161035d91906124a7565b60405180910390f35b610380600480360381019061037b91906124c0565b610ebf565b60405161038f9392919061251a565b60405180910390f35b6103b260048036038101906103ad91906124c0565b611436565b6040516103bf919061262e565b60405180910390f35b6103d061176b565b6040516103dd9190612015565b60405180910390f35b61040060048036038101906103fb91906124c0565b6117f6565b60405161040d91906120b8565b60405180910390f35b5f5f5f90505b60058054905081101561046357826005828154811061043e5761043d61264e565b5b905f5260205f20015403610456576001915050610468565b808060010191505061041c565b505f90505b919050565b6005818154811061047c575f80fd5b905f5260205f20015f915090505481565b606060028260405161049f91906126b5565b908152602001604051809103902080548060200260200160405190810160405280929190818152602001828054801561052a57602002820191905f5260205f20905b815f9054906101000a900473ffffffffffffffffffffffffffffffffffffffff1673ffffffffffffffffffffffffffffffffffffffff16815260200190600101908083116104e1575b50505050509050919050565b7f000000000000000000000000000000000000000000000000000000000000000081565b5f5f5f90505b6004805490508110156105c2578280519060200120600482815481106105895761058861264e565b5b905f5260205f200160405161059e91906127c4565b6040518091039020036105b55760019150506105c7565b8080600101915050610560565b505f90505b919050565b600181815481106105db575f80fd5b905f5260205f20015f915054906101000a900473ffffffffffffffffffffffffffffffffffffffff1681565b60606004805480602002602001604051908101604052809291908181526020015f905b828210156106d2578382905f5260205f20018054610647906126f8565b80601f0160208091040260200160405190810160405280929190818152602001828054610673906126f8565b80156106be5780601f10610695576101008083540402835291602001916106be565b820191905f5260205f20905b8154815290600101906020018083116106a157829003601f168201915b50505050508152602001906001019061062a565b50505050905090565b606060035f8381526020019081526020015f2080548060200260200160405190810160405280929190818152602001828054801561076b57602002820191905f5260205f20905b815f9054906101000a900473ffffffffffffffffffffffffffffffffffffffff1673ffffffffffffffffffffffffffffffffffffffff1681526020019060010190808311610722575b50505050509050919050565b60048181548110610786575f80fd5b905f5260205f20015f91509050805461079e906126f8565b80601f01602080910402602001604051908101604052809291908181526020018280546107ca906126f8565b80156108155780601f106107ec57610100808354040283529160200191610815565b820191905f5260205f20905b8154815290600101906020018083116107f857829003601f168201915b505050505081565b6060600580548060200260200160405190810160405280929190818152602001828054801561086957602002820191905f5260205f20905b815481526020019060010190808311610855575b5050505050905090565b6003602052815f5260405f20818154811061088c575f80fd5b905f5260205f20015f915091509054906101000a900473ffffffffffffffffffffffffffffffffffffffff1681565b5f602052805f5260405f205f91509050805f015f9054906101000a900473ffffffffffffffffffffffffffffffffffffffff1690806001015f9054906101000a900473ffffffffffffffffffffffffffffffffffffffff1690806002015f9054906101000a900473ffffffffffffffffffffffffffffffffffffffff1690806003018054610948906126f8565b80601f0160208091040260200160405190810160405280929190818152602001828054610974906126f8565b80156109bf5780601f10610996576101008083540402835291602001916109bf565b820191905f5260205f20905b8154815290600101906020018083116109a257829003601f168201915b5050505050908060040180546109d4906126f8565b80601f0160208091040260200160405190810160405280929190818152602001828054610a00906126f8565b8015610a4b5780601f10610a2257610100808354040283529160200191610a4b565b820191905f5260205f20905b815481529060010190602001808311610a2e57829003601f168201915b505050505090806005015490806006015490806007018054610a6c906126f8565b80601f0160208091040260200160405190810160405280929190818152602001828054610a98906126f8565b8015610ae35780601f10610aba57610100808354040283529160200191610ae3565b820191905f5260205f20905b815481529060010190602001808311610ac657829003601f168201915b505050505090806008015f9054906101000a900460ff16905089565b60605f5f90505f5f90505b600180549050811015610c5e575f60018281548110610b2c57610b2b61264e565b5b905f5260205f20015f9054906101000a900473ffffffffffffffffffffffffffffffffffffffff1690508073ffffffffffffffffffffffffffffffffffffffff16633197cbb66040518163ffffffff1660e01b8152600401602060405180830381865afa158015610b9f573d5f5f3e3d5ffd5b505050506040513d601f19601f82011682018060405250810190610bc391906127ee565b4211158015610c3c57508073ffffffffffffffffffffffffffffffffffffffff16633f6fa6556040518163ffffffff1660e01b8152600401602060405180830381865afa158015610c16573d5f5f3e3d5ffd5b505050506040513d601f19601f82011682018060405250810190610c3a9190612843565b155b15610c50578280610c4c9061289b565b9350505b508080600101915050610b0a565b505f8167ffffffffffffffff811115610c7a57610c79611dc3565b5b604051908082528060200260200182016040528015610ca85781602001602082028036833780820191505090505b5090505f5f90505f5f90505b600180549050811015610e91575f60018281548110610cd657610cd561264e565b5b905f5260205f20015f9054906101000a900473ffffffffffffffffffffffffffffffffffffffff1690508073ffffffffffffffffffffffffffffffffffffffff16633197cbb66040518163ffffffff1660e01b8152600401602060405180830381865afa158015610d49573d5f5f3e3d5ffd5b505050506040513d601f19601f82011682018060405250810190610d6d91906127ee565b4211158015610de657508073ffffffffffffffffffffffffffffffffffffffff16633f6fa6556040518163ffffffff1660e01b8152600401602060405180830381865afa158015610dc0573d5f5f3e3d5ffd5b505050506040513d601f19601f82011682018060405250810190610de49190612843565b155b15610e835760018281548110610dff57610dfe61264e565b5b905f5260205f20015f9054906101000a900473ffffffffffffffffffffffffffffffffffffffff16848481518110610e3a57610e3961264e565b5b602002602001019073ffffffffffffffffffffffffffffffffffffffff16908173ffffffffffffffffffffffffffffffffffffffff16815250508280610e7f9061289b565b9350505b508080600101915050610cb4565b5081935050505090565b7f000000000000000000000000000000000000000000000000000000000000000081565b5f5f5f610ecb8561055a565b610f0a576040517f08c379a0000000000000000000000000000000000000000000000000000000008152600401610f019061292c565b60405180910390fd5b610f1384610416565b610f52576040517f08c379a0000000000000000000000000000000000000000000000000000000008152600401610f4990612994565b60405180910390fd5b5f6201518085610f6291906129b2565b42610f6d91906129f3565b90505f8682604051602001610f83929190612a46565b6040516020818303038152906040528051906020012090505f5f8281526020019081526020015f206008015f9054906101000a900460ff1615610ffb576040517f08c379a0000000000000000000000000000000000000000000000000000000008152600401610ff290612ab7565b60405180910390fd5b6110058787611856565b8095508196508297505050506040518061012001604052808673ffffffffffffffffffffffffffffffffffffffff1681526020018573ffffffffffffffffffffffffffffffffffffffff1681526020018473ffffffffffffffffffffffffffffffffffffffff1681526020018881526020016040518060400160405280600e81526020017f6861636b2d696e737572616e63650000000000000000000000000000000000008152508152602001838152602001878152602001886040516020016110cf9190612b69565b6040516020818303038152906040528152602001600115158152505f5f8381526020019081526020015f205f820151815f015f6101000a81548173ffffffffffffffffffffffffffffffffffffffff021916908373ffffffffffffffffffffffffffffffffffffffff1602179055506020820151816001015f6101000a81548173ffffffffffffffffffffffffffffffffffffffff021916908373ffffffffffffffffffffffffffffffffffffffff1602179055506040820151816002015f6101000a81548173ffffffffffffffffffffffffffffffffffffffff021916908373ffffffffffffffffffffffffffffffffffffffff16021790555060608201518160030190816111df9190612d2c565b5060808201518160040190816111f59190612d2c565b5060a0820151816005015560c0820151816006015560e082015181600701908161121f9190612d2c565b50610100820151816008015f6101000a81548160ff021916908315150217905550905050600185908060018154018082558091505060019003905f5260205f20015f9091909190916101000a81548173ffffffffffffffffffffffffffffffffffffffff021916908373ffffffffffffffffffffffffffffffffffffffff1602179055506002876040516112b391906126b5565b908152602001604051809103902085908060018154018082558091505060019003905f5260205f20015f9091909190916101000a81548173ffffffffffffffffffffffffffffffffffffffff021916908373ffffffffffffffffffffffffffffffffffffffff16021790555060035f8781526020019081526020015f2085908060018154018082558091505060019003905f5260205f20015f9091909190916101000a81548173ffffffffffffffffffffffffffffffffffffffff021916908373ffffffffffffffffffffffffffffffffffffffff1602179055508273ffffffffffffffffffffffffffffffffffffffff168473ffffffffffffffffffffffffffffffffffffffff168673ffffffffffffffffffffffffffffffffffffffff167f5014c34bb0b498c0d4fad9101ff487c96d659a9cee67cc2b071b58a3931072468a868c6040516020016114079190612b69565b60405160208183030381529060405260405161142593929190612dfb565b60405180910390a450509250925092565b61143e611c3d565b5f8383604051602001611452929190612a46565b6040516020818303038152906040528051906020012090505f5f8281526020019081526020015f20604051806101200160405290815f82015f9054906101000a900473ffffffffffffffffffffffffffffffffffffffff1673ffffffffffffffffffffffffffffffffffffffff1673ffffffffffffffffffffffffffffffffffffffff168152602001600182015f9054906101000a900473ffffffffffffffffffffffffffffffffffffffff1673ffffffffffffffffffffffffffffffffffffffff1673ffffffffffffffffffffffffffffffffffffffff168152602001600282015f9054906101000a900473ffffffffffffffffffffffffffffffffffffffff1673ffffffffffffffffffffffffffffffffffffffff1673ffffffffffffffffffffffffffffffffffffffff168152602001600382018054611594906126f8565b80601f01602080910402602001604051908101604052809291908181526020018280546115c0906126f8565b801561160b5780601f106115e25761010080835404028352916020019161160b565b820191905f5260205f20905b8154815290600101906020018083116115ee57829003601f168201915b50505050508152602001600482018054611624906126f8565b80601f0160208091040260200160405190810160405280929190818152602001828054611650906126f8565b801561169b5780601f106116725761010080835404028352916020019161169b565b820191905f5260205f20905b81548152906001019060200180831161167e57829003601f168201915b5050505050815260200160058201548152602001600682015481526020016007820180546116c8906126f8565b80601f01602080910402602001604051908101604052809291908181526020018280546116f4906126f8565b801561173f5780601f106117165761010080835404028352916020019161173f565b820191905f5260205f20905b81548152906001019060200180831161172257829003601f168201915b50505050508152602001600882015f9054906101000a900460ff16151515158152505091505092915050565b606060018054806020026020016040519081016040528092919081815260200182805480156117ec57602002820191905f5260205f20905b815f9054906101000a900473ffffffffffffffffffffffffffffffffffffffff1673ffffffffffffffffffffffffffffffffffffffff16815260200190600101908083116117a3575b5050505050905090565b6002828051602081018201805184825260208301602085012081835280955050505050508181548110611827575f80fd5b905f5260205f20015f915091509054906101000a900473ffffffffffffffffffffffffffffffffffffffff1681565b5f5f5f5f61186385611ae4565b90505f8187604051602001611879929190612ed2565b60405160208183030381529060405290505f828860405160200161189e929190612f55565b60405160208183030381529060405290505f83896040516020016118c3929190612fd8565b60405160208183030381529060405290505f848a6040516020016118e892919061305b565b60405160208183030381529060405290505f8a60405160200161190b9190612b69565b60405160208183030381529060405290508483600160405161192c90611cc7565b61193893929190613094565b604051809103905ff080158015611951573d5f5f3e3d5ffd5b5097508382600160405161196490611cc7565b61197093929190613094565b604051809103905ff080158015611989573d5f5f3e3d5ffd5b5096507f00000000000000000000000000000000000000000000000000000000000000007f00000000000000000000000000000000000000000000000000000000000000008989848f8f6040516119df90611cd4565b6119ef9796959493929190613121565b604051809103905ff080158015611a08573d5f5f3e3d5ffd5b5098508773ffffffffffffffffffffffffffffffffffffffff16636dcea85f8a6040518263ffffffff1660e01b8152600401611a4491906120b8565b5f604051808303815f87803b158015611a5b575f5ffd5b505af1158015611a6d573d5f5f3e3d5ffd5b505050508673ffffffffffffffffffffffffffffffffffffffff16636dcea85f8a6040518263ffffffff1660e01b8152600401611aaa91906120b8565b5f604051808303815f87803b158015611ac1575f5ffd5b505af1158015611ad3573d5f5f3e3d5ffd5b505050505050505050509250925092565b60605f8203611b2a576040518060400160405280600181526020017f30000000000000000000000000000000000000000000000000000000000000008152509050611c38565b5f8290505f5b5f8214611b59578080611b429061289b565b915050600a82611b5291906131dd565b9150611b30565b5f8167ffffffffffffffff811115611b7457611b73611dc3565b5b6040519080825280601f01601f191660200182016040528015611ba65781602001600182028036833780820191505090505b5090505b5f8514611c3157600182611bbe919061320d565b9150600a85611bcd9190613240565b6030611bd991906129f3565b60f81b818381518110611bef57611bee61264e565b5b60200101907effffffffffffffffffffffffffffffffffffffffffffffffffffffffffffff191690815f1a905350600a85611c2a91906131dd565b9450611baa565b8093505050505b919050565b6040518061012001604052805f73ffffffffffffffffffffffffffffffffffffffff1681526020015f73ffffffffffffffffffffffffffffffffffffffff1681526020015f73ffffffffffffffffffffffffffffffffffffffff16815260200160608152602001606081526020015f81526020015f8152602001606081526020015f151581525090565b611d988061327183390190565b613c848061500983390190565b5f604051905090565b5f5ffd5b5f5ffd5b5f819050919050565b611d0481611cf2565b8114611d0e575f5ffd5b50565b5f81359050611d1f81611cfb565b92915050565b5f60208284031215611d3a57611d39611cea565b5b5f611d4784828501611d11565b91505092915050565b5f8115159050919050565b611d6481611d50565b82525050565b5f602082019050611d7d5f830184611d5b565b92915050565b611d8c81611cf2565b82525050565b5f602082019050611da55f830184611d83565b92915050565b5f5ffd5b5f5ffd5b5f601f19601f8301169050919050565b7f4e487b71000000000000000000000000000000000000000000000000000000005f52604160045260245ffd5b611df982611db3565b810181811067ffffffffffffffff82111715611e1857611e17611dc3565b5b80604052505050565b5f611e2a611ce1565b9050611e368282611df0565b919050565b5f67ffffffffffffffff821115611e5557611e54611dc3565b5b611e5e82611db3565b9050602081019050919050565b828183375f83830152505050565b5f611e8b611e8684611e3b565b611e21565b905082815260208101848484011115611ea757611ea6611daf565b5b611eb2848285611e6b565b509392505050565b5f82601f830112611ece57611ecd611dab565b5b8135611ede848260208601611e79565b91505092915050565b5f60208284031215611efc57611efb611cea565b5b5f82013567ffffffffffffffff811115611f1957611f18611cee565b5b611f2584828501611eba565b91505092915050565b5f81519050919050565b5f82825260208201905092915050565b5f819050602082019050919050565b5f73ffffffffffffffffffffffffffffffffffffffff82169050919050565b5f611f8082611f57565b9050919050565b611f9081611f76565b82525050565b5f611fa18383611f87565b60208301905092915050565b5f602082019050919050565b5f611fc382611f2e565b611fcd8185611f38565b9350611fd883611f48565b805f5b83811015612008578151611fef8882611f96565b9750611ffa83611fad565b925050600181019050611fdb565b5085935050505092915050565b5f6020820190508181035f83015261202d8184611fb9565b905092915050565b5f819050919050565b5f61205861205361204e84611f57565b612035565b611f57565b9050919050565b5f6120698261203e565b9050919050565b5f61207a8261205f565b9050919050565b61208a81612070565b82525050565b5f6020820190506120a35f830184612081565b92915050565b6120b281611f76565b82525050565b5f6020820190506120cb5f8301846120a9565b92915050565b5f81519050919050565b5f82825260208201905092915050565b5f819050602082019050919050565b5f81519050919050565b5f82825260208201905092915050565b8281835e5f83830152505050565b5f61212c826120fa565b6121368185612104565b9350612146818560208601612114565b61214f81611db3565b840191505092915050565b5f6121658383612122565b905092915050565b5f602082019050919050565b5f612183826120d1565b61218d81856120db565b93508360208202850161219f856120eb565b805f5b858110156121da57848403895281516121bb858261215a565b94506121c68361216d565b925060208a019950506001810190506121a2565b50829750879550505050505092915050565b5f6020820190508181035f8301526122048184612179565b905092915050565b5f82825260208201905092915050565b5f612226826120fa565b612230818561220c565b9350612240818560208601612114565b61224981611db3565b840191505092915050565b5f6020820190508181035f83015261226c818461221c565b905092915050565b5f81519050919050565b5f82825260208201905092915050565b5f819050602082019050919050565b6122a681611cf2565b82525050565b5f6122b7838361229d565b60208301905092915050565b5f602082019050919050565b5f6122d982612274565b6122e3818561227e565b93506122ee8361228e565b805f5b8381101561231e57815161230588826122ac565b9750612310836122c3565b9250506001810190506122f1565b5085935050505092915050565b5f6020820190508181035f83015261234381846122cf565b905092915050565b5f5f6040838503121561236157612360611cea565b5b5f61236e85828601611d11565b925050602061237f85828601611d11565b9150509250929050565b5f819050919050565b61239b81612389565b81146123a5575f5ffd5b50565b5f813590506123b681612392565b92915050565b5f602082840312156123d1576123d0611cea565b5b5f6123de848285016123a8565b91505092915050565b5f610120820190506123fb5f83018c6120a9565b612408602083018b6120a9565b612415604083018a6120a9565b8181036060830152612427818961221c565b9050818103608083015261243b818861221c565b905061244a60a0830187611d83565b61245760c0830186611d83565b81810360e0830152612469818561221c565b9050612479610100830184611d5b565b9a9950505050505050505050565b5f6124918261205f565b9050919050565b6124a181612487565b82525050565b5f6020820190506124ba5f830184612498565b92915050565b5f5f604083850312156124d6576124d5611cea565b5b5f83013567ffffffffffffffff8111156124f3576124f2611cee565b5b6124ff85828601611eba565b925050602061251085828601611d11565b9150509250929050565b5f60608201905061252d5f8301866120a9565b61253a60208301856120a9565b61254760408301846120a9565b949350505050565b61255881611d50565b82525050565b5f61012083015f8301516125745f860182611f87565b5060208301516125876020860182611f87565b50604083015161259a6040860182611f87565b50606083015184820360608601526125b28282612122565b915050608083015184820360808601526125cc8282612122565b91505060a08301516125e160a086018261229d565b5060c08301516125f460c086018261229d565b5060e083015184820360e086015261260c8282612122565b91505061010083015161262361010086018261254f565b508091505092915050565b5f6020820190508181035f830152612646818461255e565b905092915050565b7f4e487b71000000000000000000000000000000000000000000000000000000005f52603260045260245ffd5b5f81905092915050565b5f61268f826120fa565b612699818561267b565b93506126a9818560208601612114565b80840191505092915050565b5f6126c08284612685565b915081905092915050565b7f4e487b71000000000000000000000000000000000000000000000000000000005f52602260045260245ffd5b5f600282049050600182168061270f57607f821691505b602082108103612722576127216126cb565b5b50919050565b5f81905092915050565b5f819050815f5260205f209050919050565b5f8154612750816126f8565b61275a8186612728565b9450600182165f81146127745760018114612789576127bb565b60ff19831686528115158202860193506127bb565b61279285612732565b5f5b838110156127b357815481890152600182019150602081019050612794565b838801955050505b50505092915050565b5f6127cf8284612744565b915081905092915050565b5f815190506127e881611cfb565b92915050565b5f6020828403121561280357612802611cea565b5b5f612810848285016127da565b91505092915050565b61282281611d50565b811461282c575f5ffd5b50565b5f8151905061283d81612819565b92915050565b5f6020828403121561285857612857611cea565b5b5f6128658482850161282f565b91505092915050565b7f4e487b71000000000000000000000000000000000000000000000000000000005f52601160045260245ffd5b5f6128a582611cf2565b91507fffffffffffffffffffffffffffffffffffffffffffffffffffffffffffffffff82036128d7576128d661286e565b5b600182019050919050565b7f50726f746f636f6c206e6f7420737570706f72746564000000000000000000005f82015250565b5f61291660168361220c565b9150612921826128e2565b602082019050919050565b5f6020820190508181035f8301526129438161290a565b9050919050565b7f4475726174696f6e206e6f7420737570706f72746564000000000000000000005f82015250565b5f61297e60168361220c565b91506129898261294a565b602082019050919050565b5f6020820190508181035f8301526129ab81612972565b9050919050565b5f6129bc82611cf2565b91506129c783611cf2565b92508282026129d581611cf2565b915082820484148315176129ec576129eb61286e565b5b5092915050565b5f6129fd82611cf2565b9150612a0883611cf2565b9250828201905080821115612a2057612a1f61286e565b5b92915050565b5f819050919050565b612a40612a3b82611cf2565b612a26565b82525050565b5f612a518285612685565b9150612a5d8284612a2f565b6020820191508190509392505050565b7f4d61726b657420616c72656164792065786973747300000000000000000000005f82015250565b5f612aa160158361220c565b9150612aac82612a6d565b602082019050919050565b5f6020820190508181035f830152612ace81612a95565b9050919050565b7f57696c6c200000000000000000000000000000000000000000000000000000005f82015250565b5f612b0960058361267b565b9150612b1482612ad5565b600582019050919050565b7f206265206861636b65643f0000000000000000000000000000000000000000005f82015250565b5f612b53600b8361267b565b9150612b5e82612b1f565b600b82019050919050565b5f612b7382612afd565b9150612b7f8284612685565b9150612b8a82612b47565b915081905092915050565b5f819050815f5260205f209050919050565b5f6020601f8301049050919050565b5f82821b905092915050565b5f60088302612bf17fffffffffffffffffffffffffffffffffffffffffffffffffffffffffffffffff82612bb6565b612bfb8683612bb6565b95508019841693508086168417925050509392505050565b5f612c2d612c28612c2384611cf2565b612035565b611cf2565b9050919050565b5f819050919050565b612c4683612c13565b612c5a612c5282612c34565b848454612bc2565b825550505050565b5f5f905090565b612c71612c62565b612c7c818484612c3d565b505050565b5b81811015612c9f57612c945f82612c69565b600181019050612c82565b5050565b601f821115612ce457612cb581612b95565b612cbe84612ba7565b81016020851015612ccd578190505b612ce1612cd985612ba7565b830182612c81565b50505b505050565b5f82821c905092915050565b5f612d045f1984600802612ce9565b1980831691505092915050565b5f612d1c8383612cf5565b9150826002028217905092915050565b612d35826120fa565b67ffffffffffffffff811115612d4e57612d4d611dc3565b5b612d5882546126f8565b612d63828285612ca3565b5f60209050601f831160018114612d94575f8415612d82578287015190505b612d8c8582612d11565b865550612df3565b601f198416612da286612b95565b5f5b82811015612dc957848901518255600182019150602085019450602081019050612da4565b86831015612de65784890151612de2601f891682612cf5565b8355505b6001600288020188555050505b505050505050565b5f6060820190508181035f830152612e13818661221c565b9050612e226020830185611d83565b8181036040830152612e34818461221c565b9050949350505050565b7f5945536861636b2d0000000000000000000000000000000000000000000000005f82015250565b5f612e7260088361267b565b9150612e7d82612e3e565b600882019050919050565b7f642d0000000000000000000000000000000000000000000000000000000000005f82015250565b5f612ebc60028361267b565b9150612ec782612e88565b600282019050919050565b5f612edc82612e66565b9150612ee88285612685565b9150612ef382612eb0565b9150612eff8284612685565b91508190509392505050565b7f4e4f6861636b2d000000000000000000000000000000000000000000000000005f82015250565b5f612f3f60078361267b565b9150612f4a82612f0b565b600782019050919050565b5f612f5f82612f33565b9150612f6b8285612685565b9150612f7682612eb0565b9150612f828284612685565b91508190509392505050565b7f5945532d000000000000000000000000000000000000000000000000000000005f82015250565b5f612fc260048361267b565b9150612fcd82612f8e565b600482019050919050565b5f612fe282612fb6565b9150612fee8285612685565b9150612ff982612eb0565b91506130058284612685565b91508190509392505050565b7f4e4f2d00000000000000000000000000000000000000000000000000000000005f82015250565b5f61304560038361267b565b915061305082613011565b600382019050919050565b5f61306582613039565b91506130718285612685565b915061307c82612eb0565b91506130888284612685565b91508190509392505050565b5f6060820190508181035f8301526130ac818661221c565b905081810360208301526130c0818561221c565b90506130cf60408301846120a9565b949350505050565b7f6861636b2d696e737572616e63650000000000000000000000000000000000005f82015250565b5f61310b600e8361220c565b9150613116826130d7565b602082019050919050565b5f610100820190506131355f83018a6120a9565b6131426020830189612498565b61314f60408301886120a9565b61315c60608301876120a9565b818103608083015261316e818661221c565b905081810360a0830152613182818561221c565b905081810360c0830152613195816130ff565b90506131a460e0830184611d83565b98975050505050505050565b7f4e487b71000000000000000000000000000000000000000000000000000000005f52601260045260245ffd5b5f6131e782611cf2565b91506131f283611cf2565b925082613202576132016131b0565b5b828204905092915050565b5f61321782611cf2565b915061322283611cf2565b925082820390508181111561323a5761323961286e565b5b92915050565b5f61324a82611cf2565b915061325583611cf2565b925082613265576132646131b0565b5b82820690509291505056fe6080604052601260025f6101000a81548160ff021916908360ff16021790555034801561002a575f5ffd5b50604051611d98380380611d98833981810160405281019061004c919061025a565b825f908161005a91906104f2565b50816001908161006a91906104f2565b508060045f6101000a81548173ffffffffffffffffffffffffffffffffffffffff021916908373ffffffffffffffffffffffffffffffffffffffff1602179055505050506105c1565b5f604051905090565b5f5ffd5b5f5ffd5b5f5ffd5b5f5ffd5b5f601f19601f8301169050919050565b7f4e487b71000000000000000000000000000000000000000000000000000000005f52604160045260245ffd5b610112826100cc565b810181811067ffffffffffffffff82111715610131576101306100dc565b5b80604052505050565b5f6101436100b3565b905061014f8282610109565b919050565b5f67ffffffffffffffff82111561016e5761016d6100dc565b5b610177826100cc565b9050602081019050919050565b8281835e5f83830152505050565b5f6101a461019f84610154565b61013a565b9050828152602081018484840111156101c0576101bf6100c8565b5b6101cb848285610184565b509392505050565b5f82601f8301126101e7576101e66100c4565b5b81516101f7848260208601610192565b91505092915050565b5f73ffffffffffffffffffffffffffffffffffffffff82169050919050565b5f61022982610200565b9050919050565b6102398161021f565b8114610243575f5ffd5b50565b5f8151905061025481610230565b92915050565b5f5f5f60608486031215610271576102706100bc565b5b5f84015167ffffffffffffffff81111561028e5761028d6100c0565b5b61029a868287016101d3565b935050602084015167ffffffffffffffff8111156102bb576102ba6100c0565b5b6102c7868287016101d3565b92505060406102d886828701610246565b9150509250925092565b5f81519050919050565b7f4e487b71000000000000000000000000000000000000000000000000000000005f52602260045260245ffd5b5f600282049050600182168061033057607f821691505b602082108103610343576103426102ec565b5b50919050565b5f819050815f5260205f209050919050565b5f6020601f8301049050919050565b5f82821b905092915050565b5f600883026103a57fffffffffffffffffffffffffffffffffffffffffffffffffffffffffffffffff8261036a565b6103af868361036a565b95508019841693508086168417925050509392505050565b5f819050919050565b5f819050919050565b5f6103f36103ee6103e9846103c7565b6103d0565b6103c7565b9050919050565b5f819050919050565b61040c836103d9565b610420610418826103fa565b848454610376565b825550505050565b5f5f905090565b610437610428565b610442818484610403565b505050565b5b818110156104655761045a5f8261042f565b600181019050610448565b5050565b601f8211156104aa5761047b81610349565b6104848461035b565b81016020851015610493578190505b6104a761049f8561035b565b830182610447565b50505b505050565b5f82821c905092915050565b5f6104ca5f19846008026104af565b1980831691505092915050565b5f6104e283836104bb565b9150826002028217905092915050565b6104fb826102e2565b67ffffffffffffffff811115610514576105136100dc565b5b61051e8254610319565b610529828285610469565b5f60209050601f83116001811461055a575f8415610548578287015190505b61055285826104d7565b8655506105b9565b601f19841661056886610349565b5f5b8281101561058f5784890151825560018201915060208501945060208101905061056a565b868310156105ac57848901516105a8601f8916826104bb565b8355505b6001600288020188555050505b505050505050565b6117ca806105ce5f395ff3fe608060405234801561000f575f5ffd5b50600436106100e8575f3560e01c806370a082311161008a57806395d89b411161006457806395d89b41146102485780639dc29fac14610266578063a9059cbb14610282578063dd62ed3e146102b2576100e8565b806370a08231146101de57806379cc67901461020e57806380f556051461022a576100e8565b806323b872dd116100c657806323b872dd14610158578063313ce5671461018857806340c10f19146101a65780636dcea85f146101c2576100e8565b806306fdde03146100ec578063095ea7b31461010a57806318160ddd1461013a575b5f5ffd5b6100f46102e2565b604051610101919061116d565b60405180910390f35b610124600480360381019061011f919061121e565b61036d565b6040516101319190611276565b60405180910390f35b61014261045a565b60405161014f919061129e565b60405180910390f35b610172600480360381019061016d91906112b7565b610460565b60405161017f9190611276565b60405180910390f35b610190610740565b60405161019d9190611322565b60405180910390f35b6101c060048036038101906101bb919061121e565b610752565b005b6101dc60048036038101906101d7919061133b565b610923565b005b6101f860048036038101906101f3919061133b565b610abb565b604051610205919061129e565b60405180910390f35b6102286004803603810190610223919061121e565b610ad0565b005b610232610cb3565b60405161023f9190611375565b60405180910390f35b610250610cd8565b60405161025d919061116d565b60405180910390f35b610280600480360381019061027b919061121e565b610d64565b005b61029c6004803603810190610297919061121e565b610f47565b6040516102a99190611276565b60405180910390f35b6102cc60048036038101906102c7919061138e565b6110dd565b6040516102d9919061129e565b60405180910390f35b5f80546102ee906113f9565b80601f016020809104026020016040519081016040528092919081815260200182805461031a906113f9565b80156103655780601f1061033c57610100808354040283529160200191610365565b820191905f5260205f20905b81548152906001019060200180831161034857829003601f168201915b505050505081565b5f8160065f3373ffffffffffffffffffffffffffffffffffffffff1673ffffffffffffffffffffffffffffffffffffffff1681526020019081526020015f205f8573ffffffffffffffffffffffffffffffffffffffff1673ffffffffffffffffffffffffffffffffffffffff1681526020019081526020015f20819055508273ffffffffffffffffffffffffffffffffffffffff163373ffffffffffffffffffffffffffffffffffffffff167f8c5be1e5ebec7d5bd14f71427d1e84f3dd0314c0f7b2291e5b200ac8c7c3b92584604051610448919061129e565b60405180910390a36001905092915050565b60035481565b5f8160055f8673ffffffffffffffffffffffffffffffffffffffff1673ffffffffffffffffffffffffffffffffffffffff1681526020019081526020015f205410156104e1576040517f08c379a00000000000000000000000000000000000000000000000000000000081526004016104d890611473565b60405180910390fd5b8160065f8673ffffffffffffffffffffffffffffffffffffffff1673ffffffffffffffffffffffffffffffffffffffff1681526020019081526020015f205f3373ffffffffffffffffffffffffffffffffffffffff1673ffffffffffffffffffffffffffffffffffffffff1681526020019081526020015f2054101561059c576040517f08c379a0000000000000000000000000000000000000000000000000000000008152600401610593906114db565b60405180910390fd5b8160055f8673ffffffffffffffffffffffffffffffffffffffff1673ffffffffffffffffffffffffffffffffffffffff1681526020019081526020015f205f8282546105e89190611526565b925050819055508160055f8573ffffffffffffffffffffffffffffffffffffffff1673ffffffffffffffffffffffffffffffffffffffff1681526020019081526020015f205f82825461063b9190611559565b925050819055508160065f8673ffffffffffffffffffffffffffffffffffffffff1673ffffffffffffffffffffffffffffffffffffffff1681526020019081526020015f205f3373ffffffffffffffffffffffffffffffffffffffff1673ffffffffffffffffffffffffffffffffffffffff1681526020019081526020015f205f8282546106c99190611526565b925050819055508273ffffffffffffffffffffffffffffffffffffffff168473ffffffffffffffffffffffffffffffffffffffff167fddf252ad1be2c89b69c2b068fc378daa952ba7f163c4a11628f55a4df523b3ef8460405161072d919061129e565b60405180910390a3600190509392505050565b60025f9054906101000a900460ff1681565b60045f9054906101000a900473ffffffffffffffffffffffffffffffffffffffff1673ffffffffffffffffffffffffffffffffffffffff163373ffffffffffffffffffffffffffffffffffffffff16146107e1576040517f08c379a00000000000000000000000000000000000000000000000000000000081526004016107d8906115d6565b60405180910390fd5b5f73ffffffffffffffffffffffffffffffffffffffff168273ffffffffffffffffffffffffffffffffffffffff160361084f576040517f08c379a00000000000000000000000000000000000000000000000000000000081526004016108469061163e565b60405180910390fd5b8060055f8473ffffffffffffffffffffffffffffffffffffffff1673ffffffffffffffffffffffffffffffffffffffff1681526020019081526020015f205f82825461089b9190611559565b925050819055508060035f8282546108b39190611559565b925050819055508173ffffffffffffffffffffffffffffffffffffffff165f73ffffffffffffffffffffffffffffffffffffffff167fddf252ad1be2c89b69c2b068fc378daa952ba7f163c4a11628f55a4df523b3ef83604051610917919061129e565b60405180910390a35050565b5f73ffffffffffffffffffffffffffffffffffffffff1660045f9054906101000a900473ffffffffffffffffffffffffffffffffffffffff1673ffffffffffffffffffffffffffffffffffffffff1614806109cb5750600173ffffffffffffffffffffffffffffffffffffffff1660045f9054906101000a900473ffffffffffffffffffffffffffffffffffffffff1673ffffffffffffffffffffffffffffffffffffffff16145b610a0a576040517f08c379a0000000000000000000000000000000000000000000000000000000008152600401610a01906116a6565b60405180910390fd5b5f73ffffffffffffffffffffffffffffffffffffffff168173ffffffffffffffffffffffffffffffffffffffff1603610a78576040517f08c379a0000000000000000000000000000000000000000000000000000000008152600401610a6f9061170e565b60405180910390fd5b8060045f6101000a81548173ffffffffffffffffffffffffffffffffffffffff021916908373ffffffffffffffffffffffffffffffffffffffff16021790555050565b6005602052805f5260405f205f915090505481565b60045f9054906101000a900473ffffffffffffffffffffffffffffffffffffffff1673ffffffffffffffffffffffffffffffffffffffff163373ffffffffffffffffffffffffffffffffffffffff1614610b5f576040517f08c379a0000000000000000000000000000000000000000000000000000000008152600401610b56906115d6565b60405180910390fd5b8060055f8473ffffffffffffffffffffffffffffffffffffffff1673ffffffffffffffffffffffffffffffffffffffff1681526020019081526020015f20541015610bdf576040517f08c379a0000000000000000000000000000000000000000000000000000000008152600401610bd690611776565b60405180910390fd5b8060055f8473ffffffffffffffffffffffffffffffffffffffff1673ffffffffffffffffffffffffffffffffffffffff1681526020019081526020015f205f828254610c2b9190611526565b925050819055508060035f828254610c439190611526565b925050819055505f73ffffffffffffffffffffffffffffffffffffffff168273ffffffffffffffffffffffffffffffffffffffff167fddf252ad1be2c89b69c2b068fc378daa952ba7f163c4a11628f55a4df523b3ef83604051610ca7919061129e565b60405180910390a35050565b60045f9054906101000a900473ffffffffffffffffffffffffffffffffffffffff1681565b60018054610ce5906113f9565b80601f0160208091040260200160405190810160405280929190818152602001828054610d11906113f9565b8015610d5c5780601f10610d3357610100808354040283529160200191610d5c565b820191905f5260205f20905b815481529060010190602001808311610d3f57829003601f168201915b505050505081565b60045f9054906101000a900473ffffffffffffffffffffffffffffffffffffffff1673ffffffffffffffffffffffffffffffffffffffff163373ffffffffffffffffffffffffffffffffffffffff1614610df3576040517f08c379a0000000000000000000000000000000000000000000000000000000008152600401610dea906115d6565b60405180910390fd5b8060055f8473ffffffffffffffffffffffffffffffffffffffff1673ffffffffffffffffffffffffffffffffffffffff1681526020019081526020015f20541015610e73576040517f08c379a0000000000000000000000000000000000000000000000000000000008152600401610e6a90611776565b60405180910390fd5b8060055f8473ffffffffffffffffffffffffffffffffffffffff1673ffffffffffffffffffffffffffffffffffffffff1681526020019081526020015f205f828254610ebf9190611526565b925050819055508060035f828254610ed79190611526565b925050819055505f73ffffffffffffffffffffffffffffffffffffffff168273ffffffffffffffffffffffffffffffffffffffff167fddf252ad1be2c89b69c2b068fc378daa952ba7f163c4a11628f55a4df523b3ef83604051610f3b919061129e565b60405180910390a35050565b5f8160055f3373ffffffffffffffffffffffffffffffffffffffff1673ffffffffffffffffffffffffffffffffffffffff1681526020019081526020015f20541015610fc8576040517f08c379a0000000000000000000000000000000000000000000000000000000008152600401610fbf90611473565b60405180910390fd5b8160055f3373ffffffffffffffffffffffffffffffffffffffff1673ffffffffffffffffffffffffffffffffffffffff1681526020019081526020015f205f8282546110149190611526565b925050819055508160055f8573ffffffffffffffffffffffffffffffffffffffff1673ffffffffffffffffffffffffffffffffffffffff1681526020019081526020015f205f8282546110679190611559565b925050819055508273ffffffffffffffffffffffffffffffffffffffff163373ffffffffffffffffffffffffffffffffffffffff167fddf252ad1be2c89b69c2b068fc378daa952ba7f163c4a11628f55a4df523b3ef846040516110cb919061129e565b60405180910390a36001905092915050565b6006602052815f5260405f20602052805f5260405f205f91509150505481565b5f81519050919050565b5f82825260208201905092915050565b8281835e5f83830152505050565b5f601f19601f8301169050919050565b5f61113f826110fd565b6111498185611107565b9350611159818560208601611117565b61116281611125565b840191505092915050565b5f6020820190508181035f8301526111858184611135565b905092915050565b5f5ffd5b5f73ffffffffffffffffffffffffffffffffffffffff82169050919050565b5f6111ba82611191565b9050919050565b6111ca816111b0565b81146111d4575f5ffd5b50565b5f813590506111e5816111c1565b92915050565b5f819050919050565b6111fd816111eb565b8114611207575f5ffd5b50565b5f81359050611218816111f4565b92915050565b5f5f604083850312156112345761123361118d565b5b5f611241858286016111d7565b92505060206112528582860161120a565b9150509250929050565b5f8115159050919050565b6112708161125c565b82525050565b5f6020820190506112895f830184611267565b92915050565b611298816111eb565b82525050565b5f6020820190506112b15f83018461128f565b92915050565b5f5f5f606084860312156112ce576112cd61118d565b5b5f6112db868287016111d7565b93505060206112ec868287016111d7565b92505060406112fd8682870161120a565b9150509250925092565b5f60ff82169050919050565b61131c81611307565b82525050565b5f6020820190506113355f830184611313565b92915050565b5f602082840312156113505761134f61118d565b5b5f61135d848285016111d7565b91505092915050565b61136f816111b0565b82525050565b5f6020820190506113885f830184611366565b92915050565b5f5f604083850312156113a4576113a361118d565b5b5f6113b1858286016111d7565b92505060206113c2858286016111d7565b9150509250929050565b7f4e487b71000000000000000000000000000000000000000000000000000000005f52602260045260245ffd5b5f600282049050600182168061141057607f821691505b602082108103611423576114226113cc565b5b50919050565b7f496e73756666696369656e742062616c616e63650000000000000000000000005f82015250565b5f61145d601483611107565b915061146882611429565b602082019050919050565b5f6020820190508181035f83015261148a81611451565b9050919050565b7f496e73756666696369656e7420616c6c6f77616e6365000000000000000000005f82015250565b5f6114c5601683611107565b91506114d082611491565b602082019050919050565b5f6020820190508181035f8301526114f2816114b9565b9050919050565b7f4e487b71000000000000000000000000000000000000000000000000000000005f52601160045260245ffd5b5f611530826111eb565b915061153b836111eb565b9250828203905081811115611553576115526114f9565b5b92915050565b5f611563826111eb565b915061156e836111eb565b9250828201905080821115611586576115856114f9565b5b92915050565b7f4f6e6c79206d61726b65742063616e2063616c6c0000000000000000000000005f82015250565b5f6115c0601483611107565b91506115cb8261158c565b602082019050919050565b5f6020820190508181035f8301526115ed816115b4565b9050919050565b7f43616e6e6f74206d696e7420746f207a65726f206164647265737300000000005f82015250565b5f611628601b83611107565b9150611633826115f4565b602082019050919050565b5f6020820190508181035f8301526116558161161c565b9050919050565b7f4d61726b657420616c72656164792073657400000000000000000000000000005f82015250565b5f611690601283611107565b915061169b8261165c565b602082019050919050565b5f6020820190508181035f8301526116bd81611684565b9050919050565b7f496e76616c6964206d61726b65742061646472657373000000000000000000005f82015250565b5f6116f8601683611107565b9150611703826116c4565b602082019050919050565b5f6020820190508181035f830152611725816116ec565b9050919050565b7f496e73756666696369656e742062616c616e636520746f206275726e000000005f82015250565b5f611760601c83611107565b915061176b8261172c565b602082019050919050565b5f6020820190508181035f83015261178d81611754565b905091905056fea264697066735822122085d0bd022379ac82c6e7c0be29b631bd50202c737823af5b9594076d4021e5c964736f6c634300081c0033610100604052348015610010575f5ffd5b50604051613c84380380613c84833981810160405281019061003291906103ab565b8773ffffffffffffffffffffffffffffffffffffffff1660808173ffffffffffffffffffffffffffffffffffffffff16815250508673ffffffffffffffffffffffffffffffffffffffff1660a08173ffffffffffffffffffffffffffffffffffffffff16815250508573ffffffffffffffffffffffffffffffffffffffff1660c08173ffffffffffffffffffffffffffffffffffffffff16815250508473ffffffffffffffffffffffffffffffffffffffff1660e08173ffffffffffffffffffffffffffffffffffffffff1681525050835f908161011091906106b7565b50826001908161012091906106b7565b50816002908161013091906106b7565b50620151808161014091906107b3565b4261014b91906107f4565b60038190555069d3c21bcecceda100000060048190555069d3c21bcecceda100000060058190555060055460045461018391906107b3565b6006819055505050505050505050610827565b5f604051905090565b5f5ffd5b5f5ffd5b5f73ffffffffffffffffffffffffffffffffffffffff82169050919050565b5f6101d0826101a7565b9050919050565b6101e0816101c6565b81146101ea575f5ffd5b50565b5f815190506101fb816101d7565b92915050565b5f61020b826101c6565b9050919050565b61021b81610201565b8114610225575f5ffd5b50565b5f8151905061023681610212565b92915050565b5f5ffd5b5f5ffd5b5f601f19601f8301169050919050565b7f4e487b71000000000000000000000000000000000000000000000000000000005f52604160045260245ffd5b61028a82610244565b810181811067ffffffffffffffff821117156102a9576102a8610254565b5b80604052505050565b5f6102bb610196565b90506102c78282610281565b919050565b5f67ffffffffffffffff8211156102e6576102e5610254565b5b6102ef82610244565b9050602081019050919050565b8281835e5f83830152505050565b5f61031c610317846102cc565b6102b2565b90508281526020810184848401111561033857610337610240565b5b6103438482856102fc565b509392505050565b5f82601f83011261035f5761035e61023c565b5b815161036f84826020860161030a565b91505092915050565b5f819050919050565b61038a81610378565b8114610394575f5ffd5b50565b5f815190506103a581610381565b92915050565b5f5f5f5f5f5f5f5f610100898b0312156103c8576103c761019f565b5b5f6103d58b828c016101ed565b98505060206103e68b828c01610228565b97505060406103f78b828c016101ed565b96505060606104088b828c016101ed565b955050608089015167ffffffffffffffff811115610429576104286101a3565b5b6104358b828c0161034b565b94505060a089015167ffffffffffffffff811115610456576104556101a3565b5b6104628b828c0161034b565b93505060c089015167ffffffffffffffff811115610483576104826101a3565b5b61048f8b828c0161034b565b92505060e06104a08b828c01610397565b9150509295985092959890939650565b5f81519050919050565b7f4e487b71000000000000000000000000000000000000000000000000000000005f52602260045260245ffd5b5f60028204905060018216806104fe57607f821691505b602082108103610511576105106104ba565b5b50919050565b5f819050815f5260205f209050919050565b5f6020601f8301049050919050565b5f82821b905092915050565b5f600883026105737fffffffffffffffffffffffffffffffffffffffffffffffffffffffffffffffff82610538565b61057d8683610538565b95508019841693508086168417925050509392505050565b5f819050919050565b5f6105b86105b36105ae84610378565b610595565b610378565b9050919050565b5f819050919050565b6105d18361059e565b6105e56105dd826105bf565b848454610544565b825550505050565b5f5f905090565b6105fc6105ed565b6106078184846105c8565b505050565b5b8181101561062a5761061f5f826105f4565b60018101905061060d565b5050565b601f82111561066f5761064081610517565b61064984610529565b81016020851015610658578190505b61066c61066485610529565b83018261060c565b50505b505050565b5f82821c905092915050565b5f61068f5f1984600802610674565b1980831691505092915050565b5f6106a78383610680565b9150826002028217905092915050565b6106c0826104b0565b67ffffffffffffffff8111156106d9576106d8610254565b5b6106e382546104e7565b6106ee82828561062e565b5f60209050601f83116001811461071f575f841561070d578287015190505b610717858261069c565b86555061077e565b601f19841661072d86610517565b5f5b828110156107545784890151825560018201915060208501945060208101905061072f565b86831015610771578489015161076d601f891682610680565b8355505b6001600288020188555050505b505050505050565b7f4e487b71000000000000000000000000000000000000000000000000000000005f52601160045260245ffd5b5f6107bd82610378565b91506107c883610378565b92508282026107d681610378565b915082820484148315176107ed576107ec610786565b5b5092915050565b5f6107fe82610378565b915061080983610378565b925082820190508082111561082157610820610786565b5b92915050565b60805160a05160c05160e05161337b6109095f395f818161094101528181610ed101528181611061015281816113e4015281816116b40152818161175f01528181611af10152611b9301525f818161084a01528181610fc901528181611546015281816115f1015281816119bf01528181611a610152818161237001526125ec01525f8181610aa801528181610b470152818161111f01528181611d4f01528181611dee0152818161203c01526120db01525f81816106f0015281816109e701528181610d770152818161124701528181611c1e015261244f015261337b5ff3fe608060405234801561000f575f5ffd5b5060043610610204575f3560e01c806394677ba611610118578063c580f737116100ab578063e1eb06001161007a578063e1eb06001461058c578063e567e869146105aa578063ef430aa6146105c8578063f0d9bb20146105e6578063f191dd321461060457610204565b8063c580f73714610521578063cbee38dc1461053f578063d81657431461055d578063df2e50661461058257610204565b8063b401faf1116100e7578063b401faf1146104ad578063b4f40c61146104b7578063c390bd30146104d5578063c573b731146104f157610204565b806394677ba614610425578063997aa8e014610441578063a877933f1461045f578063aaf5eb681461048f57610204565b80633f6fa6551161019b5780635b7c2dad1161016a5780635b7c2dad1461036a57806373b2e80e1461039b5780637dc0d1d0146103cb57806385c8bd6d146103e95780638779086f1461040757610204565b80633f6fa655146103085780633fad9ae0146103265780634b339c0d1461034457806358c36e5c1461034e57610204565b806329e2a741116101d757806329e2a7411461027e5780633197cbb6146102ae57806331b7d413146102cc5780633e413bee146102ea57610204565b8063054f7d9c14610208578063061dd98d1461022657806311a9f10a1461024257806312b01b1614610260575b5f5ffd5b610210610620565b60405161021d91906126fc565b60405180910390f35b610240600480360381019061023b919061274c565b610633565b005b61024a61093f565b60405161025791906127f1565b60405180910390f35b610268610963565b6040516102759190612819565b60405180910390f35b6102986004803603810190610293919061274c565b61099e565b6040516102a59190612819565b60405180910390f35b6102b66109d8565b6040516102c39190612819565b60405180910390f35b6102d46109de565b6040516102e19190612819565b60405180910390f35b6102f26109e5565b6040516102ff9190612852565b60405180910390f35b610310610a09565b60405161031d91906126fc565b60405180910390f35b61032e610a1b565b60405161033b91906128db565b60405180910390f35b61034c610aa6565b005b6103686004803603810190610363919061274c565b610cba565b005b610384600480360381019061037f9190612936565b610fc5565b604051610392929190612961565b60405180910390f35b6103b560048036038101906103b09190612936565b611100565b6040516103c291906126fc565b60405180910390f35b6103d361111d565b6040516103e091906129a8565b60405180910390f35b6103f1611141565b6040516103fe9190612819565b60405180910390f35b61040f61114f565b60405161041c9190612819565b60405180910390f35b61043f600480360381019061043a91906129c1565b61118a565b005b6104496114d9565b6040516104569190612819565b60405180910390f35b61047960048036038101906104749190612936565b6114df565b6040516104869190612819565b60405180910390f35b610497611820565b6040516104a49190612819565b60405180910390f35b6104b561182c565b005b6104bf611d47565b6040516104cc9190612819565b60405180910390f35b6104ef60048036038101906104ea9190612a29565b611d4d565b005b61050b6004803603810190610506919061274c565b611f7d565b6040516105189190612819565b60405180910390f35b610529611fb7565b6040516105369190612819565b60405180910390f35b610547611fbd565b60405161055491906126fc565b60405180910390f35b610565611fd0565b604051610579989796959493929190612a54565b60405180910390f35b61058a61203a565b005b610594612250565b6040516105a19190612819565b60405180910390f35b6105b2612256565b6040516105bf91906128db565b60405180910390f35b6105d06122e2565b6040516105dd91906128db565b60405180910390f35b6105ee61236e565b6040516105fb91906127f1565b60405180910390f35b61061e600480360381019061061991906129c1565b612392565b005b600960029054906101000a900460ff1681565b60095f9054906101000a900460ff1615801561065c5750600960029054906101000a900460ff16155b8015610669575060035442105b6106a8576040517f08c379a000000000000000000000000000000000000000000000000000000000815260040161069f90612b1a565b60405180910390fd5b620f42408110156106ee576040517f08c379a00000000000000000000000000000000000000000000000000000000081526004016106e590612b82565b60405180910390fd5b7f000000000000000000000000000000000000000000000000000000000000000073ffffffffffffffffffffffffffffffffffffffff166323b872dd3330846040518463ffffffff1660e01b815260040161074b93929190612baf565b6020604051808303815f875af1158015610767573d5f5f3e3d5ffd5b505050506040513d601f19601f8201168201806040525081019061078b9190612bf8565b6107ca576040517f08c379a00000000000000000000000000000000000000000000000000000000081526004016107c190612c6d565b60405180910390fd5b5f6107d48261099e565b90505f8111610818576040517f08c379a000000000000000000000000000000000000000000000000000000000815260040161080f90612cd5565b60405180910390fd5b8060045f8282546108299190612d20565b925050819055508160055f8282546108419190612d53565b925050819055507f000000000000000000000000000000000000000000000000000000000000000073ffffffffffffffffffffffffffffffffffffffff166340c10f1933836040518363ffffffff1660e01b81526004016108a3929190612d86565b5f604051808303815f87803b1580156108ba575f5ffd5b505af11580156108cc573d5f5f3e3d5ffd5b505050508160075f8282546108e19190612d53565b925050819055503373ffffffffffffffffffffffffffffffffffffffff167f54b3dbdef11dba5c2d31f70f348a70ca0f7fc83fce4f7f1db955a9df2f63934c6001848460405161093393929190612dad565b60405180910390a25050565b7f000000000000000000000000000000000000000000000000000000000000000081565b5f5f60055403610975575f905061099b565b600554670de0b6b3a764000060045461098e9190612de2565b6109989190612e50565b90505b90565b5f5f826005546109ae9190612d53565b90505f816006546109bf9190612e50565b9050806004546109cf9190612d20565b92505050919050565b60035481565b620f424081565b7f000000000000000000000000000000000000000000000000000000000000000081565b60095f9054906101000a900460ff1681565b5f8054610a2790612ead565b80601f0160208091040260200160405190810160405280929190818152602001828054610a5390612ead565b8015610a9e5780601f10610a7557610100808354040283529160200191610a9e565b820191905f5260205f20905b815481529060010190602001808311610a8157829003601f168201915b505050505081565b7f000000000000000000000000000000000000000000000000000000000000000073ffffffffffffffffffffffffffffffffffffffff16636a51ce37306040518263ffffffff1660e01b8152600401610aff9190612edd565b602060405180830381865afa158015610b1a573d5f5f3e3d5ffd5b505050506040513d601f19601f82011682018060405250810190610b3e9190612bf8565b8015610b9557507f000000000000000000000000000000000000000000000000000000000000000073ffffffffffffffffffffffffffffffffffffffff163373ffffffffffffffffffffffffffffffffffffffff16145b610bd4576040517f08c379a0000000000000000000000000000000000000000000000000000000008152600401610bcb90612f40565b60405180910390fd5b600960029054906101000a900460ff16610c23576040517f08c379a0000000000000000000000000000000000000000000000000000000008152600401610c1a90612fa8565b60405180910390fd5b60095f9054906101000a900460ff1615610c72576040517f08c379a0000000000000000000000000000000000000000000000000000000008152600401610c6990613010565b60405180910390fd5b5f600960026101000a81548160ff0219169083151502179055507fec33a40c16cb54a3aa8055d187508a1746f48ece03ec43ef4428c99f618ffca260405160405180910390a1565b60095f9054906101000a900460ff16158015610ce35750600960029054906101000a900460ff16155b8015610cf0575060035442105b610d2f576040517f08c379a0000000000000000000000000000000000000000000000000000000008152600401610d2690612b1a565b60405180910390fd5b620f4240811015610d75576040517f08c379a0000000000000000000000000000000000000000000000000000000008152600401610d6c90612b82565b60405180910390fd5b7f000000000000000000000000000000000000000000000000000000000000000073ffffffffffffffffffffffffffffffffffffffff166323b872dd3330846040518463ffffffff1660e01b8152600401610dd293929190612baf565b6020604051808303815f875af1158015610dee573d5f5f3e3d5ffd5b505050506040513d601f19601f82011682018060405250810190610e129190612bf8565b610e51576040517f08c379a0000000000000000000000000000000000000000000000000000000008152600401610e4890612c6d565b60405180910390fd5b5f610e5b82611f7d565b90505f8111610e9f576040517f08c379a0000000000000000000000000000000000000000000000000000000008152600401610e9690612cd5565b60405180910390fd5b8060055f828254610eb09190612d20565b925050819055508160045f828254610ec89190612d53565b925050819055507f000000000000000000000000000000000000000000000000000000000000000073ffffffffffffffffffffffffffffffffffffffff166340c10f1933836040518363ffffffff1660e01b8152600401610f2a929190612d86565b5f604051808303815f87803b158015610f41575f5ffd5b505af1158015610f53573d5f5f3e3d5ffd5b505050508160075f828254610f689190612d53565b925050819055503373ffffffffffffffffffffffffffffffffffffffff167f54b3dbdef11dba5c2d31f70f348a70ca0f7fc83fce4f7f1db955a9df2f63934c5f8484604051610fb993929190612dad565b60405180910390a25050565b5f5f7f000000000000000000000000000000000000000000000000000000000000000073ffffffffffffffffffffffffffffffffffffffff166370a08231846040518263ffffffff1660e01b81526004016110209190612edd565b602060405180830381865afa15801561103b573d5f5f3e3d5ffd5b505050506040513d601f19601f8201168201806040525081019061105f9190613042565b7f000000000000000000000000000000000000000000000000000000000000000073ffffffffffffffffffffffffffffffffffffffff166370a08231856040518263ffffffff1660e01b81526004016110b89190612edd565b602060405180830381865afa1580156110d3573d5f5f3e3d5ffd5b505050506040513d601f19601f820116820180604052508101906110f79190613042565b91509150915091565b6008602052805f5260405f205f915054906101000a900460ff1681565b7f000000000000000000000000000000000000000000000000000000000000000081565b69d3c21bcecceda100000081565b5f5f60045403611161575f9050611187565b600454670de0b6b3a764000060055461117a9190612de2565b6111849190612e50565b90505b90565b60095f9054906101000a900460ff161580156111b35750600960029054906101000a900460ff16155b80156111c0575060035442105b6111ff576040517f08c379a00000000000000000000000000000000000000000000000000000000081526004016111f690612b1a565b60405180910390fd5b620f4240821015611245576040517f08c379a000000000000000000000000000000000000000000000000000000000815260040161123c90612b82565b60405180910390fd5b7f000000000000000000000000000000000000000000000000000000000000000073ffffffffffffffffffffffffffffffffffffffff166323b872dd3330856040518463ffffffff1660e01b81526004016112a293929190612baf565b6020604051808303815f875af11580156112be573d5f5f3e3d5ffd5b505050506040513d601f19601f820116820180604052508101906112e29190612bf8565b611321576040517f08c379a000000000000000000000000000000000000000000000000000000000815260040161131890612c6d565b60405180910390fd5b5f61132b83611f7d565b905081811015611370576040517f08c379a0000000000000000000000000000000000000000000000000000000008152600401611367906130b7565b60405180910390fd5b5f81116113b2576040517f08c379a00000000000000000000000000000000000000000000000000000000081526004016113a990612cd5565b60405180910390fd5b8060055f8282546113c39190612d20565b925050819055508260045f8282546113db9190612d53565b925050819055507f000000000000000000000000000000000000000000000000000000000000000073ffffffffffffffffffffffffffffffffffffffff166340c10f1933836040518363ffffffff1660e01b815260040161143d929190612d86565b5f604051808303815f87803b158015611454575f5ffd5b505af1158015611466573d5f5f3e3d5ffd5b505050508260075f82825461147b9190612d53565b925050819055503373ffffffffffffffffffffffffffffffffffffffff167f54b3dbdef11dba5c2d31f70f348a70ca0f7fc83fce4f7f1db955a9df2f63934c5f85846040516114cc93929190612dad565b60405180910390a2505050565b60045481565b5f60095f9054906101000a900460ff1661152e576040517f08c379a00000000000000000000000000000000000000000000000000000000081526004016115259061311f565b60405180910390fd5b600960019054906101000a900460ff16156116b1575f7f000000000000000000000000000000000000000000000000000000000000000073ffffffffffffffffffffffffffffffffffffffff166370a08231846040518263ffffffff1660e01b815260040161159d9190612edd565b602060405180830381865afa1580156115b8573d5f5f3e3d5ffd5b505050506040513d601f19601f820116820180604052508101906115dc9190613042565b90505f81036115ee575f91505061181b565b5f7f000000000000000000000000000000000000000000000000000000000000000073ffffffffffffffffffffffffffffffffffffffff166318160ddd6040518163ffffffff1660e01b8152600401602060405180830381865afa158015611658573d5f5f3e3d5ffd5b505050506040513d601f19601f8201168201806040525081019061167c9190613042565b90505f810361168f575f9250505061181b565b806007548361169e9190612de2565b6116a89190612e50565b9250505061181b565b5f7f000000000000000000000000000000000000000000000000000000000000000073ffffffffffffffffffffffffffffffffffffffff166370a08231846040518263ffffffff1660e01b815260040161170b9190612edd565b602060405180830381865afa158015611726573d5f5f3e3d5ffd5b505050506040513d601f19601f8201168201806040525081019061174a9190613042565b90505f810361175c575f91505061181b565b5f7f000000000000000000000000000000000000000000000000000000000000000073ffffffffffffffffffffffffffffffffffffffff166318160ddd6040518163ffffffff1660e01b8152600401602060405180830381865afa1580156117c6573d5f5f3e3d5ffd5b505050506040513d601f19601f820116820180604052508101906117ea9190613042565b90505f81036117fd575f9250505061181b565b806007548361180c9190612de2565b6118169190612e50565b925050505b919050565b670de0b6b3a764000081565b60095f9054906101000a900460ff1661187a576040517f08c379a00000000000000000000000000000000000000000000000000000000081526004016118719061311f565b60405180910390fd5b60085f3373ffffffffffffffffffffffffffffffffffffffff1673ffffffffffffffffffffffffffffffffffffffff1681526020019081526020015f205f9054906101000a900460ff1615611904576040517f08c379a00000000000000000000000000000000000000000000000000000000081526004016118fb90613187565b60405180910390fd5b5f61190e336114df565b90505f8111611952576040517f08c379a0000000000000000000000000000000000000000000000000000000008152600401611949906131ef565b60405180910390fd5b600160085f3373ffffffffffffffffffffffffffffffffffffffff1673ffffffffffffffffffffffffffffffffffffffff1681526020019081526020015f205f6101000a81548160ff021916908315150217905550600960019054906101000a900460ff1615611aee575f7f000000000000000000000000000000000000000000000000000000000000000073ffffffffffffffffffffffffffffffffffffffff166370a08231336040518263ffffffff1660e01b8152600401611a169190612edd565b602060405180830381865afa158015611a31573d5f5f3e3d5ffd5b505050506040513d601f19601f82011682018060405250810190611a559190613042565b90505f811115611ae8577f000000000000000000000000000000000000000000000000000000000000000073ffffffffffffffffffffffffffffffffffffffff16639dc29fac33836040518363ffffffff1660e01b8152600401611aba929190612d86565b5f604051808303815f87803b158015611ad1575f5ffd5b505af1158015611ae3573d5f5f3e3d5ffd5b505050505b50611c1c565b5f7f000000000000000000000000000000000000000000000000000000000000000073ffffffffffffffffffffffffffffffffffffffff166370a08231336040518263ffffffff1660e01b8152600401611b489190612edd565b602060405180830381865afa158015611b63573d5f5f3e3d5ffd5b505050506040513d601f19601f82011682018060405250810190611b879190613042565b90505f811115611c1a577f000000000000000000000000000000000000000000000000000000000000000073ffffffffffffffffffffffffffffffffffffffff16639dc29fac33836040518363ffffffff1660e01b8152600401611bec929190612d86565b5f604051808303815f87803b158015611c03575f5ffd5b505af1158015611c15573d5f5f3e3d5ffd5b505050505b505b7f000000000000000000000000000000000000000000000000000000000000000073ffffffffffffffffffffffffffffffffffffffff1663a9059cbb33836040518363ffffffff1660e01b8152600401611c77929190612d86565b6020604051808303815f875af1158015611c93573d5f5f3e3d5ffd5b505050506040513d601f19601f82011682018060405250810190611cb79190612bf8565b611cf6576040517f08c379a0000000000000000000000000000000000000000000000000000000008152600401611ced90612c6d565b60405180910390fd5b3373ffffffffffffffffffffffffffffffffffffffff167f1a31e733a172afcf46074b3106c17f0c298e226442682a03c1e99ce256139ec282604051611d3c9190612819565b60405180910390a250565b60065481565b7f000000000000000000000000000000000000000000000000000000000000000073ffffffffffffffffffffffffffffffffffffffff16636a51ce37306040518263ffffffff1660e01b8152600401611da69190612edd565b602060405180830381865afa158015611dc1573d5f5f3e3d5ffd5b505050506040513d601f19601f82011682018060405250810190611de59190612bf8565b8015611e3c57507f000000000000000000000000000000000000000000000000000000000000000073ffffffffffffffffffffffffffffffffffffffff163373ffffffffffffffffffffffffffffffffffffffff16145b611e7b576040517f08c379a0000000000000000000000000000000000000000000000000000000008152600401611e7290612f40565b60405180910390fd5b60095f9054906101000a900460ff1615611eca576040517f08c379a0000000000000000000000000000000000000000000000000000000008152600401611ec190613257565b60405180910390fd5b600354421015611f0f576040517f08c379a0000000000000000000000000000000000000000000000000000000008152600401611f06906132bf565b60405180910390fd5b600160095f6101000a81548160ff02191690831515021790555080600960016101000a81548160ff0219169083151502179055507ff528f3b02f5c2503827fc677c9d0cb54ffbf11ed32cb659f73243b70dea7cf0e81604051611f7291906126fc565b60405180910390a150565b5f5f82600454611f8d9190612d53565b90505f81600654611f9e9190612e50565b905080600554611fae9190612d20565b92505050919050565b60075481565b600960019054906101000a900460ff1681565b5f5f5f5f5f5f5f5f600454600554611fe661114f565b611fee610963565b60075460095f9054906101000a900460ff16600960019054906101000a900460ff16600960029054906101000a900460ff16975097509750975097509750975097509091929394959697565b7f000000000000000000000000000000000000000000000000000000000000000073ffffffffffffffffffffffffffffffffffffffff16636a51ce37306040518263ffffffff1660e01b81526004016120939190612edd565b602060405180830381865afa1580156120ae573d5f5f3e3d5ffd5b505050506040513d601f19601f820116820180604052508101906120d29190612bf8565b801561212957507f000000000000000000000000000000000000000000000000000000000000000073ffffffffffffffffffffffffffffffffffffffff163373ffffffffffffffffffffffffffffffffffffffff16145b612168576040517f08c379a000000000000000000000000000000000000000000000000000000000815260040161215f90612f40565b60405180910390fd5b600960029054906101000a900460ff16156121b8576040517f08c379a00000000000000000000000000000000000000000000000000000000081526004016121af90613327565b60405180910390fd5b60095f9054906101000a900460ff1615612207576040517f08c379a00000000000000000000000000000000000000000000000000000000081526004016121fe90613010565b60405180910390fd5b6001600960026101000a81548160ff0219169083151502179055507fb2ce2a931a2019b6f6fecebbc5e97d79e45042a5268af05c1cad2760b3be405460405160405180910390a1565b60055481565b6001805461226390612ead565b80601f016020809104026020016040519081016040528092919081815260200182805461228f90612ead565b80156122da5780601f106122b1576101008083540402835291602001916122da565b820191905f5260205f20905b8154815290600101906020018083116122bd57829003601f168201915b505050505081565b600280546122ef90612ead565b80601f016020809104026020016040519081016040528092919081815260200182805461231b90612ead565b80156123665780601f1061233d57610100808354040283529160200191612366565b820191905f5260205f20905b81548152906001019060200180831161234957829003601f168201915b505050505081565b7f000000000000000000000000000000000000000000000000000000000000000081565b60095f9054906101000a900460ff161580156123bb5750600960029054906101000a900460ff16155b80156123c8575060035442105b612407576040517f08c379a00000000000000000000000000000000000000000000000000000000081526004016123fe90612b1a565b60405180910390fd5b620f424082101561244d576040517f08c379a000000000000000000000000000000000000000000000000000000000815260040161244490612b82565b60405180910390fd5b7f000000000000000000000000000000000000000000000000000000000000000073ffffffffffffffffffffffffffffffffffffffff166323b872dd3330856040518463ffffffff1660e01b81526004016124aa93929190612baf565b6020604051808303815f875af11580156124c6573d5f5f3e3d5ffd5b505050506040513d601f19601f820116820180604052508101906124ea9190612bf8565b612529576040517f08c379a000000000000000000000000000000000000000000000000000000000815260040161252090612c6d565b60405180910390fd5b5f6125338361099e565b905081811015612578576040517f08c379a000000000000000000000000000000000000000000000000000000000815260040161256f906130b7565b60405180910390fd5b5f81116125ba576040517f08c379a00000000000000000000000000000000000000000000000000000000081526004016125b190612cd5565b60405180910390fd5b8060045f8282546125cb9190612d20565b925050819055508260055f8282546125e39190612d53565b925050819055507f000000000000000000000000000000000000000000000000000000000000000073ffffffffffffffffffffffffffffffffffffffff166340c10f1933836040518363ffffffff1660e01b8152600401612645929190612d86565b5f604051808303815f87803b15801561265c575f5ffd5b505af115801561266e573d5f5f3e3d5ffd5b505050508260075f8282546126839190612d53565b925050819055503373ffffffffffffffffffffffffffffffffffffffff167f54b3dbdef11dba5c2d31f70f348a70ca0f7fc83fce4f7f1db955a9df2f63934c600185846040516126d593929190612dad565b60405180910390a2505050565b5f8115159050919050565b6126f6816126e2565b82525050565b5f60208201905061270f5f8301846126ed565b92915050565b5f5ffd5b5f819050919050565b61272b81612719565b8114612735575f5ffd5b50565b5f8135905061274681612722565b92915050565b5f6020828403121561276157612760612715565b5b5f61276e84828501612738565b91505092915050565b5f73ffffffffffffffffffffffffffffffffffffffff82169050919050565b5f819050919050565b5f6127b96127b46127af84612777565b612796565b612777565b9050919050565b5f6127ca8261279f565b9050919050565b5f6127db826127c0565b9050919050565b6127eb816127d1565b82525050565b5f6020820190506128045f8301846127e2565b92915050565b61281381612719565b82525050565b5f60208201905061282c5f83018461280a565b92915050565b5f61283c826127c0565b9050919050565b61284c81612832565b82525050565b5f6020820190506128655f830184612843565b92915050565b5f81519050919050565b5f82825260208201905092915050565b8281835e5f83830152505050565b5f601f19601f8301169050919050565b5f6128ad8261286b565b6128b78185612875565b93506128c7818560208601612885565b6128d081612893565b840191505092915050565b5f6020820190508181035f8301526128f381846128a3565b905092915050565b5f61290582612777565b9050919050565b612915816128fb565b811461291f575f5ffd5b50565b5f813590506129308161290c565b92915050565b5f6020828403121561294b5761294a612715565b5b5f61295884828501612922565b91505092915050565b5f6040820190506129745f83018561280a565b612981602083018461280a565b9392505050565b5f612992826127c0565b9050919050565b6129a281612988565b82525050565b5f6020820190506129bb5f830184612999565b92915050565b5f5f604083850312156129d7576129d6612715565b5b5f6129e485828601612738565b92505060206129f585828601612738565b9150509250929050565b612a08816126e2565b8114612a12575f5ffd5b50565b5f81359050612a23816129ff565b92915050565b5f60208284031215612a3e57612a3d612715565b5b5f612a4b84828501612a15565b91505092915050565b5f61010082019050612a685f83018b61280a565b612a75602083018a61280a565b612a82604083018961280a565b612a8f606083018861280a565b612a9c608083018761280a565b612aa960a08301866126ed565b612ab660c08301856126ed565b612ac360e08301846126ed565b9998505050505050505050565b7f4d61726b657420696e61637469766500000000000000000000000000000000005f82015250565b5f612b04600f83612875565b9150612b0f82612ad0565b602082019050919050565b5f6020820190508181035f830152612b3181612af8565b9050919050565b7f42656c6f77206d696e696d756d20747261646520616d6f756e740000000000005f82015250565b5f612b6c601a83612875565b9150612b7782612b38565b602082019050919050565b5f6020820190508181035f830152612b9981612b60565b9050919050565b612ba9816128fb565b82525050565b5f606082019050612bc25f830186612ba0565b612bcf6020830185612ba0565b612bdc604083018461280a565b949350505050565b5f81519050612bf2816129ff565b92915050565b5f60208284031215612c0d57612c0c612715565b5b5f612c1a84828501612be4565b91505092915050565b7f5472616e73666572206661696c656400000000000000000000000000000000005f82015250565b5f612c57600f83612875565b9150612c6282612c23565b602082019050919050565b5f6020820190508181035f830152612c8481612c4b565b9050919050565b7f4e6f20746f6b656e73206f7574000000000000000000000000000000000000005f82015250565b5f612cbf600d83612875565b9150612cca82612c8b565b602082019050919050565b5f6020820190508181035f830152612cec81612cb3565b9050919050565b7f4e487b71000000000000000000000000000000000000000000000000000000005f52601160045260245ffd5b5f612d2a82612719565b9150612d3583612719565b9250828203905081811115612d4d57612d4c612cf3565b5b92915050565b5f612d5d82612719565b9150612d6883612719565b9250828201905080821115612d8057612d7f612cf3565b5b92915050565b5f604082019050612d995f830185612ba0565b612da6602083018461280a565b9392505050565b5f606082019050612dc05f8301866126ed565b612dcd602083018561280a565b612dda604083018461280a565b949350505050565b5f612dec82612719565b9150612df783612719565b9250828202612e0581612719565b91508282048414831517612e1c57612e1b612cf3565b5b5092915050565b7f4e487b71000000000000000000000000000000000000000000000000000000005f52601260045260245ffd5b5f612e5a82612719565b9150612e6583612719565b925082612e7557612e74612e23565b5b828204905092915050565b7f4e487b71000000000000000000000000000000000000000000000000000000005f52602260045260245ffd5b5f6002820490506001821680612ec457607f821691505b602082108103612ed757612ed6612e80565b5b50919050565b5f602082019050612ef05f830184612ba0565b92915050565b7f4f6e6c79206f7261636c650000000000000000000000000000000000000000005f82015250565b5f612f2a600b83612875565b9150612f3582612ef6565b602082019050919050565b5f6020820190508181035f830152612f5781612f1e565b9050919050565b7f4d61726b6574206e6f742066726f7a656e0000000000000000000000000000005f82015250565b5f612f92601183612875565b9150612f9d82612f5e565b602082019050919050565b5f6020820190508181035f830152612fbf81612f86565b9050919050565b7f4d61726b657420616c7265616479207265736f6c7665640000000000000000005f82015250565b5f612ffa601783612875565b915061300582612fc6565b602082019050919050565b5f6020820190508181035f83015261302781612fee565b9050919050565b5f8151905061303c81612722565b92915050565b5f6020828403121561305757613056612715565b5b5f6130648482850161302e565b91505092915050565b7f536c69707061676520746f6f20686967680000000000000000000000000000005f82015250565b5f6130a1601183612875565b91506130ac8261306d565b602082019050919050565b5f6020820190508181035f8301526130ce81613095565b9050919050565b7f4d61726b6574206e6f74207265736f6c766564000000000000000000000000005f82015250565b5f613109601383612875565b9150613114826130d5565b602082019050919050565b5f6020820190508181035f830152613136816130fd565b9050919050565b7f416c726561647920636c61696d656400000000000000000000000000000000005f82015250565b5f613171600f83612875565b915061317c8261313d565b602082019050919050565b5f6020820190508181035f83015261319e81613165565b9050919050565b7f4e6f2077696e6e696e67730000000000000000000000000000000000000000005f82015250565b5f6131d9600b83612875565b91506131e4826131a5565b602082019050919050565b5f6020820190508181035f830152613206816131cd565b9050919050565b7f416c7265616479207265736f6c766564000000000000000000000000000000005f82015250565b5f613241601083612875565b915061324c8261320d565b602082019050919050565b5f6020820190508181035f83015261326e81613235565b9050919050565b7f4d61726b6574207374696c6c20616374697665000000000000000000000000005f82015250565b5f6132a9601383612875565b91506132b482613275565b602082019050919050565b5f6020820190508181035f8301526132d68161329d565b9050919050565b7f416c72656164792066726f7a656e0000000000000000000000000000000000005f82015250565b5f613311600e83612875565b915061331c826132dd565b602082019050919050565b5f6020820190508181035f83015261333e81613305565b905091905056fea2646970667358221220e96f061bac1462a77b0e5ca4ade502daa294458fc93af796390c07b5bb3e8ce264736f6c634300081c0033a2646970667358221220d7e25d5c9a7317709a0a22aa6b51ef93534ba84f9a17933d512ff37f1315d6bd64736f6c634300081c0033","linkReferences":{}},"methodIdentifiers":{"allMarkets(uint256)":"52d84d1e","deployMarket(string,uint256)":"9ef8e837","getAllActiveMarkets()":"780b7ae2","getAllMarkets()":"b0772d0b","getMarketInfo(string,uint256)":"9f15f2e7","getMarketsByExpiry(uint256)":"533c9a55","getMarketsByProtocol(string)":"3df952d1","getSupportedDurations()":"69d40601","getSupportedProtocols()":"532913a5","isDurationSupported(uint256)":"015157cd","isProtocolSupported(string)":"50924372","markets(bytes32)":"7564912b","marketsByExpiry(uint256,uint256)":"724f9630","marketsByProtocol(string,uint256)":"b29afc96","oracle()":"7dc0d1d0","supportedDurations(uint256)":"0e270b60","supportedProtocols(uint256)":"68e84aef","usdc()":"3e413bee"},"id":26}