{"abi":[{"type":"constructor","inputs":[{"name":"_usdc","type":"address","internalType":"address"},{"name":"_oracle","type":"address","internalType":"contract IOracle"},{"name":"_question","type":"string","internalType":"string"},{"name":"_protocolName","type":"string","internalType":"string"},{"name":"_category","type":"string","internalType":"string"},{"name":"_durationInDays","type":"uint256","internalType":"uint256"}],"stateMutability":"nonpayable"},{"type":"function","name":"INITIAL_SUPPLY","inputs":[],"outputs":[{"name":"","type":"uint256","internalType":"uint256"}],"stateMutability":"view"},{"type":"function","name":"MIN_TRADE_AMOUNT","inputs":[],"outputs":[{"name":"","type":"uint256","internalType":"uint256"}],"stateMutability":"view"},{"type":"function","name":"PLATFORM_FEE","inputs":[],"outputs":[{"name":"","type":"uint256","internalType":"uint256"}],"stateMutability":"view"},{"type":"function","name":"PRECISION","inputs":[],"outputs":[{"name":"","type":"uint256","internalType":"uint256"}],"stateMutability":"view"},{"type":"function","name":"buyNo","inputs":[{"name":"usdcAmount","type":"uint256","internalType":"uint256"}],"outputs":[],"stateMutability":"nonpayable"},{"type":"function","name":"buyNoWithSlippage","inputs":[{"name":"usdcAmount","type":"uint256","internalType":"uint256"},{"name":"minTokensOut","type":"uint256","internalType":"uint256"}],"outputs":[],"stateMutability":"nonpayable"},{"type":"function","name":"buyYes","inputs":[{"name":"usdcAmount","type":"uint256","internalType":"uint256"}],"outputs":[],"stateMutability":"nonpayable"},{"type":"function","name":"buyYesWithSlippage","inputs":[{"name":"usdcAmount","type":"uint256","internalType":"uint256"},{"name":"minTokensOut","type":"uint256","internalType":"uint256"}],"outputs":[],"stateMutability":"nonpayable"},{"type":"function","name":"calculatePayout","inputs":[{"name":"user","type":"address","internalType":"address"}],"outputs":[{"name":"","type":"uint256","internalType":"uint256"}],"stateMutability":"view"},{"type":"function","name":"category","inputs":[],"outputs":[{"name":"","type":"string","internalType":"string"}],"stateMutability":"view"},{"type":"function","name":"claimWinnings","inputs":[],"outputs":[],"stateMutability":"nonpayable"},{"type":"function","name":"endTime","inputs":[],"outputs":[{"name":"","type":"uint256","internalType":"uint256"}],"stateMutability":"view"},{"type":"function","name":"freezeMarket","inputs":[],"outputs":[],"stateMutability":"nonpayable"},{"type":"function","name":"frozen","inputs":[],"outputs":[{"name":"","type":"bool","internalType":"bool"}],"stateMutability":"view"},{"type":"function","name":"getMarketInfo","inputs":[],"outputs":[{"name":"_yesPool","type":"uint256","internalType":"uint256"},{"name":"_noPool","type":"uint256","internalType":"uint256"},{"name":"_yesSupply","type":"uint256","internalType":"uint256"},{"name":"_noSupply","type":"uint256","internalType":"uint256"},{"name":"_yesPrice","type":"uint256","internalType":"uint256"},{"name":"_noPrice","type":"uint256","internalType":"uint256"},{"name":"_totalUsdcDeposited","type":"uint256","internalType":"uint256"},{"name":"_platformFees","type":"uint256","internalType":"uint256"},{"name":"_resolved","type":"bool","internalType":"bool"},{"name":"_yesWon","type":"bool","internalType":"bool"},{"name":"_frozen","type":"bool","internalType":"bool"}],"stateMutability":"view"},{"type":"function","name":"getNoPrice","inputs":[],"outputs":[{"name":"","type":"uint256","internalType":"uint256"}],"stateMutability":"view"},{"type":"function","name":"getNoTokensOut","inputs":[{"name":"usdcIn","type":"uint256","internalType":"uint256"}],"outputs":[{"name":"","type":"uint256","internalType":"uint256"}],"stateMutability":"view"},{"type":"function","name":"getPotentialWinnings","inputs":[{"name":"user","type":"address","internalType":"address"}],"outputs":[{"name":"","type":"uint256","internalType":"uint256"}],"stateMutability":"view"},{"type":"function","name":"getUserPosition","inputs":[{"name":"user","type":"address","internalType":"address"}],"outputs":[{"name":"userYesBalance","type":"uint256","internalType":"uint256"},{"name":"userNoBalance","type":"uint256","internalType":"uint256"},{"name":"potentialWinnings","type":"uint256","internalType":"uint256"}],"stateMutability":"view"},{"type":"function","name":"getYesPrice","inputs":[],"outputs":[{"name":"","type":"uint256","internalType":"uint256"}],"stateMutability":"view"},{"type":"function","name":"getYesTokensOut","inputs":[{"name":"usdcIn","type":"uint256","internalType":"uint256"}],"outputs":[{"name":"","type":"uint256","internalType":"uint256"}],"stateMutability":"view"},{"type":"function","name":"hasClaimed","inputs":[{"name":"","type":"address","internalType":"address"}],"outputs":[{"name":"","type":"bool","internalType":"bool"}],"stateMutability":"view"},{"type":"function","name":"noBalances","inputs":[{"name":"","type":"address","internalType":"address"}],"outputs":[{"name":"","type":"uint256","internalType":"uint256"}],"stateMutability":"view"},{"type":"function","name":"noPool","inputs":[],"outputs":[{"name":"","type":"uint256","internalType":"uint256"}],"stateMutability":"view"},{"type":"function","name":"noSupply","inputs":[],"outputs":[{"name":"","type":"uint256","internalType":"uint256"}],"stateMutability":"view"},{"type":"function","name":"oracle","inputs":[],"outputs":[{"name":"","type":"address","internalType":"contract IOracle"}],"stateMutability":"view"},{"type":"function","name":"platformFees","inputs":[],"outputs":[{"name":"","type":"uint256","internalType":"uint256"}],"stateMutability":"view"},{"type":"function","name":"protocolName","inputs":[],"outputs":[{"name":"","type":"string","internalType":"string"}],"stateMutability":"view"},{"type":"function","name":"question","inputs":[],"outputs":[{"name":"","type":"string","internalType":"string"}],"stateMutability":"view"},{"type":"function","name":"resolveMarket","inputs":[{"name":"_yesWon","type":"bool","internalType":"bool"}],"outputs":[],"stateMutability":"nonpayable"},{"type":"function","name":"resolved","inputs":[],"outputs":[{"name":"","type":"bool","internalType":"bool"}],"stateMutability":"view"},{"type":"function","name":"totalUsdcDeposited","inputs":[],"outputs":[{"name":"","type":"uint256","internalType":"uint256"}],"stateMutability":"view"},{"type":"function","name":"unfreezeMarket","inputs":[],"outputs":[],"stateMutability":"nonpayable"},{"type":"function","name":"usdc","inputs":[],"outputs":[{"name":"","type":"address","internalType":"contract IERC20"}],"stateMutability":"view"},{"type":"function","name":"withdrawPlatformFees","inputs":[],"outputs":[],"stateMutability":"nonpayable"},{"type":"function","name":"yesBalances","inputs":[{"name":"","type":"address","internalType":"address"}],"outputs":[{"name":"","type":"uint256","internalType":"uint256"}],"stateMutability":"view"},{"type":"function","name":"yesPool","inputs":[],"outputs":[{"name":"","type":"uint256","internalType":"uint256"}],"stateMutability":"view"},{"type":"function","name":"yesSupply","inputs":[],"outputs":[{"name":"","type":"uint256","internalType":"uint256"}],"stateMutability":"view"},{"type":"function","name":"yesWon","inputs":[],"outputs":[{"name":"","type":"bool","internalType":"bool"}],"stateMutability":"view"},{"type":"event","name":"MarketFrozen","inputs":[],"anonymous":false},{"type":"event","name":"MarketResolved","inputs":[{"name":"yesWon","type":"bool","indexed":false,"internalType":"bool"}],"anonymous":false},{"type":"event","name":"MarketUnfrozen","inputs":[],"anonymous":false},{"type":"event","name":"PlatformFeesWithdrawn","inputs":[{"name":"amount","type":"uint256","indexed":false,"internalType":"uint256"}],"anonymous":false},{"type":"event","name":"TokensPurchased","inputs":[{"name":"user","type":"address","indexed":true,"internalType":"address"},{"name":"isYes","type":"bool","indexed":false,"internalType":"bool"},{"name":"usdcAmount","type":"uint256","indexed":false,"internalType":"uint256"},{"name":"tokensReceived","type":"uint256","indexed":false,"internalType":"uint256"}],"anonymous":false},{"type":"event","name":"WinningsClaimed","inputs":[{"name":"user","type":"address","indexed":true,"internalType":"address"},{"name":"amount","type":"uint256","indexed":false,"internalType":"uint256"}],"anonymous":false}],"bytecode":{"object":"0x60c0604052346105635761211e8038038061001981610567565b928339810160c0828203126105635781516001600160a01b0381169290839003610563576020810151926001600160a01b03841684036105635760408201516001600160401b038111610563578361007291840161058c565b60608301519094906001600160401b038111610563578461009491850161058c565b60808401519094906001600160401b0381116105635760a0916100b891860161058c565b93015160809290925260a05283516001600160401b03811161039c575f54600181811c91168015610559575b602082101461037e57601f81116104f7575b50602094601f8211600114610496579481929394955f9261048b575b50508160011b915f199060031b1c1916175f555b82516001600160401b03811161039c57600154600181811c91168015610481575b602082101461037e57601f811161041e575b506020601f82116001146103bb57819293945f926103b0575b50508160011b915f199060031b1c1916176001555b81516001600160401b03811161039c57600254600181811c91168015610392575b602082101461037e57601f811161031b575b50602092601f82116001146102ba57928192935f926102af575b50508160011b915f199060031b1c1916176002555b6201518081029080820462015180149015171561029b57420180421161029b576003556b019d971e4fe8401e740000006008556b019d971e4fe8401e740000006009555f6006555f600755604051611b4090816105de82396080518181816102360152818161075101528181610ad401528181610cf001528181611002015281816112a601526114a6015260a0518181816105a8015281816106ce015281816108ee01528181610e8701526110b60152f35b634e487b7160e01b5f52601160045260245ffd5b015190505f806101d4565b601f1982169360025f52805f20915f5b86811061030357508360019596106102eb575b505050811b016002556101e9565b01515f1960f88460031b161c191690555f80806102dd565b919260206001819286850151815501940192016102ca565b60025f527f405787fa12a823e0f2b7631cc41b3ba8828b3321ca811111fa75cd3aa3bb5ace601f830160051c81019160208410610374575b601f0160051c01905b81811061036957506101ba565b5f815560010161035c565b9091508190610353565b634e487b7160e01b5f52602260045260245ffd5b90607f16906101a8565b634e487b7160e01b5f52604160045260245ffd5b015190505f80610172565b601f1982169060015f52805f20915f5b818110610406575095836001959697106103ee575b505050811b01600155610187565b01515f1960f88460031b161c191690555f80806103e0565b9192602060018192868b0151815501940192016103cb565b60015f527fb10e2d527612073b26eecdfd717e6a320cf44b4afac2b0732d9fcbe2b7fa0cf6601f830160051c81019160208410610477575b601f0160051c01905b81811061046c5750610159565b5f815560010161045f565b9091508190610456565b90607f1690610147565b015190505f80610112565b601f198216955f8052805f20915f5b8881106104df575083600195969798106104c7575b505050811b015f55610126565b01515f1960f88460031b161c191690555f80806104ba565b919260206001819286850151815501940192016104a5565b5f80527f290decd9548b62a8d60345a988386fc84ba6bc95484008f6362f93160ef3e563601f830160051c8101916020841061054f575b601f0160051c01905b81811061054457506100f6565b5f8155600101610537565b909150819061052e565b90607f16906100e4565b5f80fd5b6040519190601f01601f191682016001600160401b0381118382101761039c57604052565b81601f82011215610563578051906001600160401b03821161039c576105bb601f8301601f1916602001610567565b928284526020838301011161056357815f9260208093018386015e830101529056fe6080806040526004361015610012575f80fd5b5f3560e01c908163054f7d9c1461153557508063061dd98d1461143357806312b01b1614611419578063194a4e7e146113fc57806323341a051461136e57806329e2a741146113505780632ff2e9dc1461132a5780633197cbb61461130d57806331b7d413146112f057806334fbc9a1146112d55780633e413bee146112915780633f6fa6551461126f5780633f9ddfb5146112405780633fad9ae0146111885780634b339c0d1461109157806358c36e5c14610f8f5780635b7c2dad14610f3157806367e9d24b14610f145780636f1d4ea414610ef757806373b2e80e14610eb65780637dc0d1d014610e725780637f785d5e14610e555780638779086f14610e3b57806394677ba614610c83578063a3b5afb114610c66578063a877933f14610c29578063aa0e6bc414610bed578063aaf5eb6814610bcb578063b401faf114610a32578063c390bd30146108bb578063c573b73114610895578063c580f73714610878578063cbee38dc14610853578063cd2013e214610817578063d0b7830b146106a9578063df2e506614610583578063e567e869146104c8578063ef430aa6146103c45763f191dd32146101c9575f80fd5b346103c0576101d7366115b7565b600d5460ff81161590816103b1575b50806103a6575b6101f6906115cd565b610205620f424083101561160b565b6040516323b872dd60e01b8152336004820152306024820152604481018390526020816064815f6001600160a01b037f0000000000000000000000000000000000000000000000000000000000000000165af1801561039b5761026f915f9161036c575b5061166f565b60648202828104606414831517156103585761271061030c91046102d961029682866116de565b6102ab6102a2826117b8565b958610156119ae565b6102b68515156116eb565b6102ce856008546102c981831115611727565b6116de565b60085560095461176c565b600955335f52600460205260405f206102f384825461176c565b90556103018360065461176c565b600655600b5461176c565b600b5561031b82600a5461176c565b600a556040519160018352602083015260408201527f54b3dbdef11dba5c2d31f70f348a70ca0f7fc83fce4f7f1db955a9df2f63934c60603392a2005b634e487b7160e01b5f52601160045260245ffd5b61038e915060203d602011610394575b6103868183611557565b810190611657565b5f610269565b503d61037c565b6040513d5f823e3d90fd5b5060035442106101ed565b60ff915060101c16155f6101e6565b5f80fd5b346103c0575f3660031901126103c0576040515f6002548060011c906001811680156104be575b6020831081146104aa578285529081156104865750600114610428575b6104248361041881850382611557565b6040519182918261158d565b0390f35b60025f9081527f405787fa12a823e0f2b7631cc41b3ba8828b3321ca811111fa75cd3aa3bb5ace939250905b80821061046c57509091508101602001610418610408565b919260018160209254838588010152019101909291610454565b60ff191660208086019190915291151560051b840190910191506104189050610408565b634e487b7160e01b5f52602260045260245ffd5b91607f16916103eb565b346103c0575f3660031901126103c0576040515f6001548060011c90600181168015610579575b6020831081146104aa57828552908115610486575060011461051b576104248361041881850382611557565b60015f9081527fb10e2d527612073b26eecdfd717e6a320cf44b4afac2b0732d9fcbe2b7fa0cf6939250905b80821061055f57509091508101602001610418610408565b919260018160209254838588010152019101909291610547565b91607f16916104ef565b346103c0575f3660031901126103c057604051636a51ce3760e01b81523060048201527f00000000000000000000000000000000000000000000000000000000000000006001600160a01b0316602082602481845afa90811561039b576105f8925f92610688575b508161067e575b506118f1565b600d5460ff8160101c16610648578061061860ff6201000093161561192b565b62ff0000191617600d557fb2ce2a931a2019b6f6fecebbc5e97d79e45042a5268af05c1cad2760b3be40545f80a1005b60405162461bcd60e51b815260206004820152600e60248201526d20b63932b0b23c90333937bd32b760911b6044820152606490fd5b90503314826105f2565b6106a291925060203d602011610394576103868183611557565b90836105eb565b346103c0575f3660031901126103c057604051636a51ce3760e01b81523060048201527f00000000000000000000000000000000000000000000000000000000000000006001600160a01b0316602082602481845afa90811561039b5761071c925f9261068857508161067e57506118f1565b600b5480156107dc575f600b5560405163a9059cbb60e01b81523360048201526024810182905290602082806044810103815f7f00000000000000000000000000000000000000000000000000000000000000006001600160a01b03165af190811561039b576107b66020927f9870c8023baa016ac002ddfa7cdad341155acddddee3032c07d4baa4947ae643945f916107bf575061166f565b604051908152a1005b6107d69150843d8611610394576103868183611557565b85610269565b60405162461bcd60e51b81526020600482015260136024820152724e6f206665657320746f20776974686472617760681b6044820152606490fd5b346103c05760203660031901126103c0576004356001600160a01b038116908190036103c0575f526004602052602060405f2054604051908152f35b346103c0575f3660031901126103c057602060ff600d5460081c166040519015158152f35b346103c0575f3660031901126103c0576020600a54604051908152f35b346103c05760203660031901126103c05760206108b3600435611ad7565b604051908152f35b346103c05760203660031901126103c0576004358015158091036103c057604051636a51ce3760e01b81523060048201527f00000000000000000000000000000000000000000000000000000000000000006001600160a01b0316602082602481845afa90811561039b5761093d925f92610a11575b5081610a0757506118f1565b600d5460ff81166109cf5760035442106109945761ffff1916600882901b61ff001617600117600d556040519081527ff528f3b02f5c2503827fc677c9d0cb54ffbf11ed32cb659f73243b70dea7cf0e90602090a1005b60405162461bcd60e51b81526020600482015260136024820152724d61726b6574207374696c6c2061637469766560681b6044820152606490fd5b60405162461bcd60e51b815260206004820152601060248201526f105b1c9958591e481c995cdbdb1d995960821b6044820152606490fd5b90503314836105f2565b610a2b91925060203d602011610394576103868183611557565b9084610931565b346103c0575f3660031901126103c05760ff600d5416610a51816119ee565b335f52600c60205260ff60405f205416610b9457610a6e906119ee565b610a7733611a30565b8015610b6157335f818152600c60209081526040808320805460ff19166001179055600480835281842084905560058352818420939093555163a9059cbb60e01b815291820192909252602481018390529081806044810103815f7f00000000000000000000000000000000000000000000000000000000000000006001600160a01b03165af1801561039b57610b14915f91610b42575061166f565b6040519081527f1a31e733a172afcf46074b3106c17f0c298e226442682a03c1e99ce256139ec260203392a2005b610b5b915060203d602011610394576103868183611557565b83610269565b60405162461bcd60e51b815260206004820152600b60248201526a4e6f2077696e6e696e677360a81b6044820152606490fd5b60405162461bcd60e51b815260206004820152600f60248201526e105b1c9958591e4818db185a5b5959608a1b6044820152606490fd5b346103c0575f3660031901126103c0576020604051670de0b6b3a76400008152f35b346103c05760203660031901126103c0576004356001600160a01b038116908190036103c0575f526005602052602060405f2054604051908152f35b346103c05760203660031901126103c0576004356001600160a01b03811681036103c0576108b3602091610c6160ff600d54166119ee565b611a30565b346103c0575f3660031901126103c0576020600954604051908152f35b346103c057610c91366115b7565b600d5460ff8116159081610e2c575b5080610e21575b610cb0906115cd565b610cbf620f424083101561160b565b6040516323b872dd60e01b8152336004820152306024820152604481018390526020816064815f6001600160a01b037f0000000000000000000000000000000000000000000000000000000000000000165af1801561039b57610d28915f91610e02575061166f565b606482028281046064148315171561035857612710610db79104610d84610d4f82866116de565b610d5b6102a282611ad7565b610d668515156116eb565b610d79856009546102c981831115611727565b60095560085461176c565b600855335f52600560205260405f20610d9e84825461176c565b9055610dac8360075461176c565b600755600b5461176c565b600b55610dc682600a5461176c565b600a55604051915f8352602083015260408201527f54b3dbdef11dba5c2d31f70f348a70ca0f7fc83fce4f7f1db955a9df2f63934c60603392a2005b610e1b915060203d602011610394576103868183611557565b84610269565b506003544210610ca7565b60ff915060101c161583610ca0565b346103c0575f3660031901126103c05760206108b3611977565b346103c0575f3660031901126103c0576020600754604051908152f35b346103c0575f3660031901126103c0576040517f00000000000000000000000000000000000000000000000000000000000000006001600160a01b03168152602090f35b346103c05760203660031901126103c0576004356001600160a01b038116908190036103c0575f52600c602052602060ff60405f2054166040519015158152f35b346103c0575f3660031901126103c0576020600854604051908152f35b346103c0575f3660031901126103c0576020600654604051908152f35b346103c05760203660031901126103c0576004356001600160a01b0381168082036103c057606091815f52600460205260405f2054915f526005602052610f7c60405f205491611802565b9060405192835260208301526040820152f35b346103c05760203660031901126103c057600435600d5460ff8116159081611082575b5080611077575b610fc2906115cd565b610fd1620f424082101561160b565b6040516323b872dd60e01b8152336004820152306024820152604481018290526020816064815f6001600160a01b037f0000000000000000000000000000000000000000000000000000000000000000165af1801561039b5761103a915f91610b42575061166f565b6064810281810460641482151715610358576127109004610db761105e82846116de565b91610d8461106b84611ad7565b93610d668515156116eb565b506003544210610fb9565b60ff915060101c161582610fb2565b346103c0575f3660031901126103c057604051636a51ce3760e01b81523060048201527f00000000000000000000000000000000000000000000000000000000000000006001600160a01b0316602082602481845afa90811561039b57611104925f9261068857508161067e57506118f1565b600d5460ff8160101c161561114f5761112060ff82161561192b565b62ff00001916600d557fec33a40c16cb54a3aa8055d187508a1746f48ece03ec43ef4428c99f618ffca25f80a1005b60405162461bcd60e51b815260206004820152601160248201527026b0b935b2ba103737ba10333937bd32b760791b6044820152606490fd5b346103c0575f3660031901126103c0576040515f5f548060011c90600181168015611236575b6020831081146104aa5782855290811561048657506001146111da576104248361041881850382611557565b5f8080527f290decd9548b62a8d60345a988386fc84ba6bc95484008f6362f93160ef3e563939250905b80821061121c57509091508101602001610418610408565b919260018160209254838588010152019101909291611204565b91607f16916111ae565b346103c05760203660031901126103c0576004356001600160a01b03811681036103c0576108b3602091611802565b346103c0575f3660031901126103c057602060ff600d54166040519015158152f35b346103c0575f3660031901126103c0576040517f00000000000000000000000000000000000000000000000000000000000000006001600160a01b03168152602090f35b346103c0575f3660031901126103c057602060405160648152f35b346103c0575f3660031901126103c0576020604051620f42408152f35b346103c0575f3660031901126103c0576020600354604051908152f35b346103c0575f3660031901126103c05760206040516b033b2e3c9fd0803ce80000008152f35b346103c05760203660031901126103c05760206108b36004356117b8565b346103c0575f3660031901126103c05761016060085460ff600954600654600754611397611977565b61139f611779565b90600a5492600b5494600d5496604051998a5260208a015260408901526060880152608087015260a086015260c085015260e08401528181161515610100840152818160081c16151561012084015260101c161515610140820152f35b346103c0575f3660031901126103c0576020600b54604051908152f35b346103c0575f3660031901126103c05760206108b3611779565b346103c05760203660031901126103c057600435600d5460ff8116159081611526575b508061151b575b611466906115cd565b611475620f424082101561160b565b6040516323b872dd60e01b8152336004820152306024820152604481018290526020816064815f6001600160a01b037f0000000000000000000000000000000000000000000000000000000000000000165af1801561039b576114de915f91610b42575061166f565b606481028181046064148215171561035857612710900461030c61150282846116de565b916102d961150f846117b8565b936102b68515156116eb565b50600354421061145d565b60ff915060101c161582611456565b346103c0575f3660031901126103c05760209060ff600d5460101c1615158152f35b90601f8019910116810190811067ffffffffffffffff82111761157957604052565b634e487b7160e01b5f52604160045260245ffd5b602060409281835280519182918282860152018484015e5f828201840152601f01601f1916010190565b60409060031901126103c0576004359060243590565b156115d457565b60405162461bcd60e51b815260206004820152600f60248201526e4d61726b657420696e61637469766560881b6044820152606490fd5b1561161257565b60405162461bcd60e51b815260206004820152601a60248201527f42656c6f77206d696e696d756d20747261646520616d6f756e740000000000006044820152606490fd5b908160209103126103c0575180151581036103c05790565b1561167657565b60405162461bcd60e51b815260206004820152600f60248201526e151c985b9cd9995c8819985a5b1959608a1b6044820152606490fd5b8181029291811591840414171561035857565b81156116ca570490565b634e487b7160e01b5f52601260045260245ffd5b9190820391821161035857565b156116f257565b60405162461bcd60e51b815260206004820152600d60248201526c139bc81d1bdad95b9cc81bdd5d609a1b6044820152606490fd5b1561172e57565b60405162461bcd60e51b8152602060048201526016602482015275496e73756666696369656e74206c697175696469747960501b6044820152606490fd5b9190820180921161035857565b60095480156117b35760085490670de0b6b3a7640000820291808304670de0b6b3a76400001490151715610358576117b0916116c0565b90565b505f90565b600854801580156117f8575b6117f2576117ec6117b0926117e6600954916117e083866116ad565b9261176c565b906116c0565b906116de565b50505f90565b50600954156117c4565b60ff600d5416806118e457506001600160a01b03165f908152600460209081526040808320546005909252909120548115919082806118dc575b6118d55761184f600a54600b54906116de565b5f935f936006549182151590816118cc575b506118b4575b505060075491821515806118ab575b61188f575b5050508082111561188a575090565b905090565b6118a393509061189e916116ad565b6116c0565b5f808061187b565b50801515611876565b826118c493965061189e916116ad565b925f80611867565b9050155f611861565b5050505f90565b50801561183c565b90610c616117b0926119ee565b156118f857565b60405162461bcd60e51b815260206004820152600b60248201526a4f6e6c79206f7261636c6560a81b6044820152606490fd5b1561193257565b60405162461bcd60e51b815260206004820152601760248201527f4d61726b657420616c7265616479207265736f6c7665640000000000000000006044820152606490fd5b60085480156117b35760095490670de0b6b3a7640000820291808304670de0b6b3a76400001490151715610358576117b0916116c0565b156119b557565b60405162461bcd60e51b81526020600482015260116024820152700a6d8d2e0e0c2ceca40e8dede40d0d2ced607b1b6044820152606490fd5b156119f557565b60405162461bcd60e51b815260206004820152601360248201527213585c9ad95d081b9bdd081c995cdbdb1d9959606a1b6044820152606490fd5b611a3f600a54600b54906116de565b9060ff600d5460081c165f14611a93576001600160a01b03165f9081526004602052604090205480158015611a89575b6117f2576117b091611a80916116ad565b600654906116c0565b5060065415611a6f565b6001600160a01b03165f9081526005602052604090205480158015611acd575b6117f2576117b091611ac4916116ad565b600754906116c0565b5060075415611ab3565b6008549081158015611b00575b6117f2576117ec6117b0926117e6600954936117e085846116ad565b5060095415611ae456fea2646970667358221220155e6cbbe741ff051f4087b1381e9bc6e865725463a6eae892b60947e7feaa6664736f6c634300081c0033","linkReferences":{}},"methodIdentifiers":{"INITIAL_SUPPLY()":"2ff2e9dc","MIN_TRADE_AMOUNT()":"31b7d413","PLATFORM_FEE()":"34fbc9a1","PRECISION()":"aaf5eb68","buyNo(uint256)":"58c36e5c","buyNoWithSlippage(uint256,uint256)":"94677ba6","buyYes(uint256)":"061dd98d","buyYesWithSlippage(uint256,uint256)":"f191dd32","calculatePayout(address)":"a877933f","category()":"ef430aa6","claimWinnings()":"b401faf1","endTime()":"3197cbb6","freezeMarket()":"df2e5066","frozen()":"054f7d9c","getMarketInfo()":"23341a05","getNoPrice()":"12b01b16","getNoTokensOut(uint256)":"c573b731","getPotentialWinnings(address)":"3f9ddfb5","getUserPosition(address)":"5b7c2dad","getYesPrice()":"8779086f","getYesTokensOut(uint256)":"29e2a741","hasClaimed(address)":"73b2e80e","noBalances(address)":"aa0e6bc4","noPool()":"a3b5afb1","noSupply()":"7f785d5e","oracle()":"7dc0d1d0","platformFees()":"194a4e7e","protocolName()":"e567e869","question()":"3fad9ae0","resolveMarket(bool)":"c390bd30","resolved()":"3f6fa655","totalUsdcDeposited()":"c580f737","unfreezeMarket()":"4b339c0d","usdc()":"3e413bee","withdrawPlatformFees()":"d0b7830b","yesBalances(address)":"cd2013e2","yesPool()":"6f1d4ea4","yesSupply()":"67e9d24b","yesWon()":"cbee38dc"},"id":35}