{"abi":[{"type":"constructor","inputs":[{"name":"_usdc","type":"address","internalType":"address"},{"name":"_oracle","type":"address","internalType":"contract IOracle"},{"name":"_yesToken","type":"address","internalType":"address"},{"name":"_noToken","type":"address","internalType":"address"},{"name":"_question","type":"string","internalType":"string"},{"name":"_protocolName","type":"string","internalType":"string"},{"name":"_category","type":"string","internalType":"string"},{"name":"_durationInDays","type":"uint256","internalType":"uint256"}],"stateMutability":"nonpayable"},{"type":"function","name":"INITIAL_TOKENS","inputs":[],"outputs":[{"name":"","type":"uint256","internalType":"uint256"}],"stateMutability":"view"},{"type":"function","name":"MIN_TRADE_AMOUNT","inputs":[],"outputs":[{"name":"","type":"uint256","internalType":"uint256"}],"stateMutability":"view"},{"type":"function","name":"PRECISION","inputs":[],"outputs":[{"name":"","type":"uint256","internalType":"uint256"}],"stateMutability":"view"},{"type":"function","name":"buyNo","inputs":[{"name":"usdcAmount","type":"uint256","internalType":"uint256"}],"outputs":[],"stateMutability":"nonpayable"},{"type":"function","name":"buyNoWithSlippage","inputs":[{"name":"usdcAmount","type":"uint256","internalType":"uint256"},{"name":"minTokensOut","type":"uint256","internalType":"uint256"}],"outputs":[],"stateMutability":"nonpayable"},{"type":"function","name":"buyYes","inputs":[{"name":"usdcAmount","type":"uint256","internalType":"uint256"}],"outputs":[],"stateMutability":"nonpayable"},{"type":"function","name":"buyYesWithSlippage","inputs":[{"name":"usdcAmount","type":"uint256","internalType":"uint256"},{"name":"minTokensOut","type":"uint256","internalType":"uint256"}],"outputs":[],"stateMutability":"nonpayable"},{"type":"function","name":"calculatePayout","inputs":[{"name":"user","type":"address","internalType":"address"}],"outputs":[{"name":"","type":"uint256","internalType":"uint256"}],"stateMutability":"view"},{"type":"function","name":"category","inputs":[],"outputs":[{"name":"","type":"string","internalType":"string"}],"stateMutability":"view"},{"type":"function","name":"claimWinnings","inputs":[],"outputs":[],"stateMutability":"nonpayable"},{"type":"function","name":"endTime","inputs":[],"outputs":[{"name":"","type":"uint256","internalType":"uint256"}],"stateMutability":"view"},{"type":"function","name":"freezeMarket","inputs":[],"outputs":[],"stateMutability":"nonpayable"},{"type":"function","name":"frozen","inputs":[],"outputs":[{"name":"","type":"bool","internalType":"bool"}],"stateMutability":"view"},{"type":"function","name":"getMarketState","inputs":[],"outputs":[{"name":"_yesTokens","type":"uint256","internalType":"uint256"},{"name":"_noTokens","type":"uint256","internalType":"uint256"},{"name":"_yesPrice","type":"uint256","internalType":"uint256"},{"name":"_noPrice","type":"uint256","internalType":"uint256"},{"name":"_totalUsdcDeposited","type":"uint256","internalType":"uint256"},{"name":"_resolved","type":"bool","internalType":"bool"},{"name":"_yesWon","type":"bool","internalType":"bool"},{"name":"_frozen","type":"bool","internalType":"bool"}],"stateMutability":"view"},{"type":"function","name":"getNoPrice","inputs":[],"outputs":[{"name":"","type":"uint256","internalType":"uint256"}],"stateMutability":"view"},{"type":"function","name":"getNoTokensOut","inputs":[{"name":"usdcIn","type":"uint256","internalType":"uint256"}],"outputs":[{"name":"","type":"uint256","internalType":"uint256"}],"stateMutability":"view"},{"type":"function","name":"getUserPosition","inputs":[{"name":"user","type":"address","internalType":"address"}],"outputs":[{"name":"yesBalance","type":"uint256","internalType":"uint256"},{"name":"noBalance","type":"uint256","internalType":"uint256"}],"stateMutability":"view"},{"type":"function","name":"getYesPrice","inputs":[],"outputs":[{"name":"","type":"uint256","internalType":"uint256"}],"stateMutability":"view"},{"type":"function","name":"getYesTokensOut","inputs":[{"name":"usdcIn","type":"uint256","internalType":"uint256"}],"outputs":[{"name":"","type":"uint256","internalType":"uint256"}],"stateMutability":"view"},{"type":"function","name":"hasClaimed","inputs":[{"name":"","type":"address","internalType":"address"}],"outputs":[{"name":"","type":"bool","internalType":"bool"}],"stateMutability":"view"},{"type":"function","name":"k","inputs":[],"outputs":[{"name":"","type":"uint256","internalType":"uint256"}],"stateMutability":"view"},{"type":"function","name":"noToken","inputs":[],"outputs":[{"name":"","type":"address","internalType":"contract PredictionToken"}],"stateMutability":"view"},{"type":"function","name":"noTokens","inputs":[],"outputs":[{"name":"","type":"uint256","internalType":"uint256"}],"stateMutability":"view"},{"type":"function","name":"oracle","inputs":[],"outputs":[{"name":"","type":"address","internalType":"contract IOracle"}],"stateMutability":"view"},{"type":"function","name":"protocolName","inputs":[],"outputs":[{"name":"","type":"string","internalType":"string"}],"stateMutability":"view"},{"type":"function","name":"question","inputs":[],"outputs":[{"name":"","type":"string","internalType":"string"}],"stateMutability":"view"},{"type":"function","name":"resolveMarket","inputs":[{"name":"_yesWon","type":"bool","internalType":"bool"}],"outputs":[],"stateMutability":"nonpayable"},{"type":"function","name":"resolved","inputs":[],"outputs":[{"name":"","type":"bool","internalType":"bool"}],"stateMutability":"view"},{"type":"function","name":"totalUsdcDeposited","inputs":[],"outputs":[{"name":"","type":"uint256","internalType":"uint256"}],"stateMutability":"view"},{"type":"function","name":"unfreezeMarket","inputs":[],"outputs":[],"stateMutability":"nonpayable"},{"type":"function","name":"usdc","inputs":[],"outputs":[{"name":"","type":"address","internalType":"contract IERC20"}],"stateMutability":"view"},{"type":"function","name":"yesToken","inputs":[],"outputs":[{"name":"","type":"address","internalType":"contract PredictionToken"}],"stateMutability":"view"},{"type":"function","name":"yesTokens","inputs":[],"outputs":[{"name":"","type":"uint256","internalType":"uint256"}],"stateMutability":"view"},{"type":"function","name":"yesWon","inputs":[],"outputs":[{"name":"","type":"bool","internalType":"bool"}],"stateMutability":"view"},{"type":"event","name":"MarketFrozen","inputs":[],"anonymous":false},{"type":"event","name":"MarketResolved","inputs":[{"name":"yesWon","type":"bool","indexed":false,"internalType":"bool"}],"anonymous":false},{"type":"event","name":"MarketUnfrozen","inputs":[],"anonymous":false},{"type":"event","name":"TokensPurchased","inputs":[{"name":"user","type":"address","indexed":true,"internalType":"address"},{"name":"isYes","type":"bool","indexed":false,"internalType":"bool"},{"name":"usdcAmount","type":"uint256","indexed":false,"internalType":"uint256"},{"name":"tokensReceived","type":"uint256","indexed":false,"internalType":"uint256"}],"anonymous":false},{"type":"event","name":"WinningsClaimed","inputs":[{"name":"user","type":"address","indexed":true,"internalType":"address"},{"name":"amount","type":"uint256","indexed":false,"internalType":"uint256"}],"anonymous":false}],"bytecode":{"object":"0x610100604052348015610010575f5ffd5b50604051613c84380380613c84833981810160405281019061003291906103ab565b8773ffffffffffffffffffffffffffffffffffffffff1660808173ffffffffffffffffffffffffffffffffffffffff16815250508673ffffffffffffffffffffffffffffffffffffffff1660a08173ffffffffffffffffffffffffffffffffffffffff16815250508573ffffffffffffffffffffffffffffffffffffffff1660c08173ffffffffffffffffffffffffffffffffffffffff16815250508473ffffffffffffffffffffffffffffffffffffffff1660e08173ffffffffffffffffffffffffffffffffffffffff1681525050835f908161011091906106b7565b50826001908161012091906106b7565b50816002908161013091906106b7565b50620151808161014091906107b3565b4261014b91906107f4565b60038190555069d3c21bcecceda100000060048190555069d3c21bcecceda100000060058190555060055460045461018391906107b3565b6006819055505050505050505050610827565b5f604051905090565b5f5ffd5b5f5ffd5b5f73ffffffffffffffffffffffffffffffffffffffff82169050919050565b5f6101d0826101a7565b9050919050565b6101e0816101c6565b81146101ea575f5ffd5b50565b5f815190506101fb816101d7565b92915050565b5f61020b826101c6565b9050919050565b61021b81610201565b8114610225575f5ffd5b50565b5f8151905061023681610212565b92915050565b5f5ffd5b5f5ffd5b5f601f19601f8301169050919050565b7f4e487b71000000000000000000000000000000000000000000000000000000005f52604160045260245ffd5b61028a82610244565b810181811067ffffffffffffffff821117156102a9576102a8610254565b5b80604052505050565b5f6102bb610196565b90506102c78282610281565b919050565b5f67ffffffffffffffff8211156102e6576102e5610254565b5b6102ef82610244565b9050602081019050919050565b8281835e5f83830152505050565b5f61031c610317846102cc565b6102b2565b90508281526020810184848401111561033857610337610240565b5b6103438482856102fc565b509392505050565b5f82601f83011261035f5761035e61023c565b5b815161036f84826020860161030a565b91505092915050565b5f819050919050565b61038a81610378565b8114610394575f5ffd5b50565b5f815190506103a581610381565b92915050565b5f5f5f5f5f5f5f5f610100898b0312156103c8576103c761019f565b5b5f6103d58b828c016101ed565b98505060206103e68b828c01610228565b97505060406103f78b828c016101ed565b96505060606104088b828c016101ed565b955050608089015167ffffffffffffffff811115610429576104286101a3565b5b6104358b828c0161034b565b94505060a089015167ffffffffffffffff811115610456576104556101a3565b5b6104628b828c0161034b565b93505060c089015167ffffffffffffffff811115610483576104826101a3565b5b61048f8b828c0161034b565b92505060e06104a08b828c01610397565b9150509295985092959890939650565b5f81519050919050565b7f4e487b71000000000000000000000000000000000000000000000000000000005f52602260045260245ffd5b5f60028204905060018216806104fe57607f821691505b602082108103610511576105106104ba565b5b50919050565b5f819050815f5260205f209050919050565b5f6020601f8301049050919050565b5f82821b905092915050565b5f600883026105737fffffffffffffffffffffffffffffffffffffffffffffffffffffffffffffffff82610538565b61057d8683610538565b95508019841693508086168417925050509392505050565b5f819050919050565b5f6105b86105b36105ae84610378565b610595565b610378565b9050919050565b5f819050919050565b6105d18361059e565b6105e56105dd826105bf565b848454610544565b825550505050565b5f5f905090565b6105fc6105ed565b6106078184846105c8565b505050565b5b8181101561062a5761061f5f826105f4565b60018101905061060d565b5050565b601f82111561066f5761064081610517565b61064984610529565b81016020851015610658578190505b61066c61066485610529565b83018261060c565b50505b505050565b5f82821c905092915050565b5f61068f5f1984600802610674565b1980831691505092915050565b5f6106a78383610680565b9150826002028217905092915050565b6106c0826104b0565b67ffffffffffffffff8111156106d9576106d8610254565b5b6106e382546104e7565b6106ee82828561062e565b5f60209050601f83116001811461071f575f841561070d578287015190505b610717858261069c565b86555061077e565b601f19841661072d86610517565b5f5b828110156107545784890151825560018201915060208501945060208101905061072f565b86831015610771578489015161076d601f891682610680565b8355505b6001600288020188555050505b505050505050565b7f4e487b71000000000000000000000000000000000000000000000000000000005f52601160045260245ffd5b5f6107bd82610378565b91506107c883610378565b92508282026107d681610378565b915082820484148315176107ed576107ec610786565b5b5092915050565b5f6107fe82610378565b915061080983610378565b925082820190508082111561082157610820610786565b5b92915050565b60805160a05160c05160e05161337b6109095f395f818161094101528181610ed101528181611061015281816113e4015281816116b40152818161175f01528181611af10152611b9301525f818161084a01528181610fc901528181611546015281816115f1015281816119bf01528181611a610152818161237001526125ec01525f8181610aa801528181610b470152818161111f01528181611d4f01528181611dee0152818161203c01526120db01525f81816106f0015281816109e701528181610d770152818161124701528181611c1e015261244f015261337b5ff3fe608060405234801561000f575f5ffd5b5060043610610204575f3560e01c806394677ba611610118578063c580f737116100ab578063e1eb06001161007a578063e1eb06001461058c578063e567e869146105aa578063ef430aa6146105c8578063f0d9bb20146105e6578063f191dd321461060457610204565b8063c580f73714610521578063cbee38dc1461053f578063d81657431461055d578063df2e50661461058257610204565b8063b401faf1116100e7578063b401faf1146104ad578063b4f40c61146104b7578063c390bd30146104d5578063c573b731146104f157610204565b806394677ba614610425578063997aa8e014610441578063a877933f1461045f578063aaf5eb681461048f57610204565b80633f6fa6551161019b5780635b7c2dad1161016a5780635b7c2dad1461036a57806373b2e80e1461039b5780637dc0d1d0146103cb57806385c8bd6d146103e95780638779086f1461040757610204565b80633f6fa655146103085780633fad9ae0146103265780634b339c0d1461034457806358c36e5c1461034e57610204565b806329e2a741116101d757806329e2a7411461027e5780633197cbb6146102ae57806331b7d413146102cc5780633e413bee146102ea57610204565b8063054f7d9c14610208578063061dd98d1461022657806311a9f10a1461024257806312b01b1614610260575b5f5ffd5b610210610620565b60405161021d91906126fc565b60405180910390f35b610240600480360381019061023b919061274c565b610633565b005b61024a61093f565b60405161025791906127f1565b60405180910390f35b610268610963565b6040516102759190612819565b60405180910390f35b6102986004803603810190610293919061274c565b61099e565b6040516102a59190612819565b60405180910390f35b6102b66109d8565b6040516102c39190612819565b60405180910390f35b6102d46109de565b6040516102e19190612819565b60405180910390f35b6102f26109e5565b6040516102ff9190612852565b60405180910390f35b610310610a09565b60405161031d91906126fc565b60405180910390f35b61032e610a1b565b60405161033b91906128db565b60405180910390f35b61034c610aa6565b005b6103686004803603810190610363919061274c565b610cba565b005b610384600480360381019061037f9190612936565b610fc5565b604051610392929190612961565b60405180910390f35b6103b560048036038101906103b09190612936565b611100565b6040516103c291906126fc565b60405180910390f35b6103d361111d565b6040516103e091906129a8565b60405180910390f35b6103f1611141565b6040516103fe9190612819565b60405180910390f35b61040f61114f565b60405161041c9190612819565b60405180910390f35b61043f600480360381019061043a91906129c1565b61118a565b005b6104496114d9565b6040516104569190612819565b60405180910390f35b61047960048036038101906104749190612936565b6114df565b6040516104869190612819565b60405180910390f35b610497611820565b6040516104a49190612819565b60405180910390f35b6104b561182c565b005b6104bf611d47565b6040516104cc9190612819565b60405180910390f35b6104ef60048036038101906104ea9190612a29565b611d4d565b005b61050b6004803603810190610506919061274c565b611f7d565b6040516105189190612819565b60405180910390f35b610529611fb7565b6040516105369190612819565b60405180910390f35b610547611fbd565b60405161055491906126fc565b60405180910390f35b610565611fd0565b604051610579989796959493929190612a54565b60405180910390f35b61058a61203a565b005b610594612250565b6040516105a19190612819565b60405180910390f35b6105b2612256565b6040516105bf91906128db565b60405180910390f35b6105d06122e2565b6040516105dd91906128db565b60405180910390f35b6105ee61236e565b6040516105fb91906127f1565b60405180910390f35b61061e600480360381019061061991906129c1565b612392565b005b600960029054906101000a900460ff1681565b60095f9054906101000a900460ff1615801561065c5750600960029054906101000a900460ff16155b8015610669575060035442105b6106a8576040517f08c379a000000000000000000000000000000000000000000000000000000000815260040161069f90612b1a565b60405180910390fd5b620f42408110156106ee576040517f08c379a00000000000000000000000000000000000000000000000000000000081526004016106e590612b82565b60405180910390fd5b7f000000000000000000000000000000000000000000000000000000000000000073ffffffffffffffffffffffffffffffffffffffff166323b872dd3330846040518463ffffffff1660e01b815260040161074b93929190612baf565b6020604051808303815f875af1158015610767573d5f5f3e3d5ffd5b505050506040513d601f19601f8201168201806040525081019061078b9190612bf8565b6107ca576040517f08c379a00000000000000000000000000000000000000000000000000000000081526004016107c190612c6d565b60405180910390fd5b5f6107d48261099e565b90505f8111610818576040517f08c379a000000000000000000000000000000000000000000000000000000000815260040161080f90612cd5565b60405180910390fd5b8060045f8282546108299190612d20565b925050819055508160055f8282546108419190612d53565b925050819055507f000000000000000000000000000000000000000000000000000000000000000073ffffffffffffffffffffffffffffffffffffffff166340c10f1933836040518363ffffffff1660e01b81526004016108a3929190612d86565b5f604051808303815f87803b1580156108ba575f5ffd5b505af11580156108cc573d5f5f3e3d5ffd5b505050508160075f8282546108e19190612d53565b925050819055503373ffffffffffffffffffffffffffffffffffffffff167f54b3dbdef11dba5c2d31f70f348a70ca0f7fc83fce4f7f1db955a9df2f63934c6001848460405161093393929190612dad565b60405180910390a25050565b7f000000000000000000000000000000000000000000000000000000000000000081565b5f5f60055403610975575f905061099b565b600554670de0b6b3a764000060045461098e9190612de2565b6109989190612e50565b90505b90565b5f5f826005546109ae9190612d53565b90505f816006546109bf9190612e50565b9050806004546109cf9190612d20565b92505050919050565b60035481565b620f424081565b7f000000000000000000000000000000000000000000000000000000000000000081565b60095f9054906101000a900460ff1681565b5f8054610a2790612ead565b80601f0160208091040260200160405190810160405280929190818152602001828054610a5390612ead565b8015610a9e5780601f10610a7557610100808354040283529160200191610a9e565b820191905f5260205f20905b815481529060010190602001808311610a8157829003601f168201915b505050505081565b7f000000000000000000000000000000000000000000000000000000000000000073ffffffffffffffffffffffffffffffffffffffff16636a51ce37306040518263ffffffff1660e01b8152600401610aff9190612edd565b602060405180830381865afa158015610b1a573d5f5f3e3d5ffd5b505050506040513d601f19601f82011682018060405250810190610b3e9190612bf8565b8015610b9557507f000000000000000000000000000000000000000000000000000000000000000073ffffffffffffffffffffffffffffffffffffffff163373ffffffffffffffffffffffffffffffffffffffff16145b610bd4576040517f08c379a0000000000000000000000000000000000000000000000000000000008152600401610bcb90612f40565b60405180910390fd5b600960029054906101000a900460ff16610c23576040517f08c379a0000000000000000000000000000000000000000000000000000000008152600401610c1a90612fa8565b60405180910390fd5b60095f9054906101000a900460ff1615610c72576040517f08c379a0000000000000000000000000000000000000000000000000000000008152600401610c6990613010565b60405180910390fd5b5f600960026101000a81548160ff0219169083151502179055507fec33a40c16cb54a3aa8055d187508a1746f48ece03ec43ef4428c99f618ffca260405160405180910390a1565b60095f9054906101000a900460ff16158015610ce35750600960029054906101000a900460ff16155b8015610cf0575060035442105b610d2f576040517f08c379a0000000000000000000000000000000000000000000000000000000008152600401610d2690612b1a565b60405180910390fd5b620f4240811015610d75576040517f08c379a0000000000000000000000000000000000000000000000000000000008152600401610d6c90612b82565b60405180910390fd5b7f000000000000000000000000000000000000000000000000000000000000000073ffffffffffffffffffffffffffffffffffffffff166323b872dd3330846040518463ffffffff1660e01b8152600401610dd293929190612baf565b6020604051808303815f875af1158015610dee573d5f5f3e3d5ffd5b505050506040513d601f19601f82011682018060405250810190610e129190612bf8565b610e51576040517f08c379a0000000000000000000000000000000000000000000000000000000008152600401610e4890612c6d565b60405180910390fd5b5f610e5b82611f7d565b90505f8111610e9f576040517f08c379a0000000000000000000000000000000000000000000000000000000008152600401610e9690612cd5565b60405180910390fd5b8060055f828254610eb09190612d20565b925050819055508160045f828254610ec89190612d53565b925050819055507f000000000000000000000000000000000000000000000000000000000000000073ffffffffffffffffffffffffffffffffffffffff166340c10f1933836040518363ffffffff1660e01b8152600401610f2a929190612d86565b5f604051808303815f87803b158015610f41575f5ffd5b505af1158015610f53573d5f5f3e3d5ffd5b505050508160075f828254610f689190612d53565b925050819055503373ffffffffffffffffffffffffffffffffffffffff167f54b3dbdef11dba5c2d31f70f348a70ca0f7fc83fce4f7f1db955a9df2f63934c5f8484604051610fb993929190612dad565b60405180910390a25050565b5f5f7f000000000000000000000000000000000000000000000000000000000000000073ffffffffffffffffffffffffffffffffffffffff166370a08231846040518263ffffffff1660e01b81526004016110209190612edd565b602060405180830381865afa15801561103b573d5f5f3e3d5ffd5b505050506040513d601f19601f8201168201806040525081019061105f9190613042565b7f000000000000000000000000000000000000000000000000000000000000000073ffffffffffffffffffffffffffffffffffffffff166370a08231856040518263ffffffff1660e01b81526004016110b89190612edd565b602060405180830381865afa1580156110d3573d5f5f3e3d5ffd5b505050506040513d601f19601f820116820180604052508101906110f79190613042565b91509150915091565b6008602052805f5260405f205f915054906101000a900460ff1681565b7f000000000000000000000000000000000000000000000000000000000000000081565b69d3c21bcecceda100000081565b5f5f60045403611161575f9050611187565b600454670de0b6b3a764000060055461117a9190612de2565b6111849190612e50565b90505b90565b60095f9054906101000a900460ff161580156111b35750600960029054906101000a900460ff16155b80156111c0575060035442105b6111ff576040517f08c379a00000000000000000000000000000000000000000000000000000000081526004016111f690612b1a565b60405180910390fd5b620f4240821015611245576040517f08c379a000000000000000000000000000000000000000000000000000000000815260040161123c90612b82565b60405180910390fd5b7f000000000000000000000000000000000000000000000000000000000000000073ffffffffffffffffffffffffffffffffffffffff166323b872dd3330856040518463ffffffff1660e01b81526004016112a293929190612baf565b6020604051808303815f875af11580156112be573d5f5f3e3d5ffd5b505050506040513d601f19601f820116820180604052508101906112e29190612bf8565b611321576040517f08c379a000000000000000000000000000000000000000000000000000000000815260040161131890612c6d565b60405180910390fd5b5f61132b83611f7d565b905081811015611370576040517f08c379a0000000000000000000000000000000000000000000000000000000008152600401611367906130b7565b60405180910390fd5b5f81116113b2576040517f08c379a00000000000000000000000000000000000000000000000000000000081526004016113a990612cd5565b60405180910390fd5b8060055f8282546113c39190612d20565b925050819055508260045f8282546113db9190612d53565b925050819055507f000000000000000000000000000000000000000000000000000000000000000073ffffffffffffffffffffffffffffffffffffffff166340c10f1933836040518363ffffffff1660e01b815260040161143d929190612d86565b5f604051808303815f87803b158015611454575f5ffd5b505af1158015611466573d5f5f3e3d5ffd5b505050508260075f82825461147b9190612d53565b925050819055503373ffffffffffffffffffffffffffffffffffffffff167f54b3dbdef11dba5c2d31f70f348a70ca0f7fc83fce4f7f1db955a9df2f63934c5f85846040516114cc93929190612dad565b60405180910390a2505050565b60045481565b5f60095f9054906101000a900460ff1661152e576040517f08c379a00000000000000000000000000000000000000000000000000000000081526004016115259061311f565b60405180910390fd5b600960019054906101000a900460ff16156116b1575f7f000000000000000000000000000000000000000000000000000000000000000073ffffffffffffffffffffffffffffffffffffffff166370a08231846040518263ffffffff1660e01b815260040161159d9190612edd565b602060405180830381865afa1580156115b8573d5f5f3e3d5ffd5b505050506040513d601f19601f820116820180604052508101906115dc9190613042565b90505f81036115ee575f91505061181b565b5f7f000000000000000000000000000000000000000000000000000000000000000073ffffffffffffffffffffffffffffffffffffffff166318160ddd6040518163ffffffff1660e01b8152600401602060405180830381865afa158015611658573d5f5f3e3d5ffd5b505050506040513d601f19601f8201168201806040525081019061167c9190613042565b90505f810361168f575f9250505061181b565b806007548361169e9190612de2565b6116a89190612e50565b9250505061181b565b5f7f000000000000000000000000000000000000000000000000000000000000000073ffffffffffffffffffffffffffffffffffffffff166370a08231846040518263ffffffff1660e01b815260040161170b9190612edd565b602060405180830381865afa158015611726573d5f5f3e3d5ffd5b505050506040513d601f19601f8201168201806040525081019061174a9190613042565b90505f810361175c575f91505061181b565b5f7f000000000000000000000000000000000000000000000000000000000000000073ffffffffffffffffffffffffffffffffffffffff166318160ddd6040518163ffffffff1660e01b8152600401602060405180830381865afa1580156117c6573d5f5f3e3d5ffd5b505050506040513d601f19601f820116820180604052508101906117ea9190613042565b90505f81036117fd575f9250505061181b565b806007548361180c9190612de2565b6118169190612e50565b925050505b919050565b670de0b6b3a764000081565b60095f9054906101000a900460ff1661187a576040517f08c379a00000000000000000000000000000000000000000000000000000000081526004016118719061311f565b60405180910390fd5b60085f3373ffffffffffffffffffffffffffffffffffffffff1673ffffffffffffffffffffffffffffffffffffffff1681526020019081526020015f205f9054906101000a900460ff1615611904576040517f08c379a00000000000000000000000000000000000000000000000000000000081526004016118fb90613187565b60405180910390fd5b5f61190e336114df565b90505f8111611952576040517f08c379a0000000000000000000000000000000000000000000000000000000008152600401611949906131ef565b60405180910390fd5b600160085f3373ffffffffffffffffffffffffffffffffffffffff1673ffffffffffffffffffffffffffffffffffffffff1681526020019081526020015f205f6101000a81548160ff021916908315150217905550600960019054906101000a900460ff1615611aee575f7f000000000000000000000000000000000000000000000000000000000000000073ffffffffffffffffffffffffffffffffffffffff166370a08231336040518263ffffffff1660e01b8152600401611a169190612edd565b602060405180830381865afa158015611a31573d5f5f3e3d5ffd5b505050506040513d601f19601f82011682018060405250810190611a559190613042565b90505f811115611ae8577f000000000000000000000000000000000000000000000000000000000000000073ffffffffffffffffffffffffffffffffffffffff16639dc29fac33836040518363ffffffff1660e01b8152600401611aba929190612d86565b5f604051808303815f87803b158015611ad1575f5ffd5b505af1158015611ae3573d5f5f3e3d5ffd5b505050505b50611c1c565b5f7f000000000000000000000000000000000000000000000000000000000000000073ffffffffffffffffffffffffffffffffffffffff166370a08231336040518263ffffffff1660e01b8152600401611b489190612edd565b602060405180830381865afa158015611b63573d5f5f3e3d5ffd5b505050506040513d601f19601f82011682018060405250810190611b879190613042565b90505f811115611c1a577f000000000000000000000000000000000000000000000000000000000000000073ffffffffffffffffffffffffffffffffffffffff16639dc29fac33836040518363ffffffff1660e01b8152600401611bec929190612d86565b5f604051808303815f87803b158015611c03575f5ffd5b505af1158015611c15573d5f5f3e3d5ffd5b505050505b505b7f000000000000000000000000000000000000000000000000000000000000000073ffffffffffffffffffffffffffffffffffffffff1663a9059cbb33836040518363ffffffff1660e01b8152600401611c77929190612d86565b6020604051808303815f875af1158015611c93573d5f5f3e3d5ffd5b505050506040513d601f19601f82011682018060405250810190611cb79190612bf8565b611cf6576040517f08c379a0000000000000000000000000000000000000000000000000000000008152600401611ced90612c6d565b60405180910390fd5b3373ffffffffffffffffffffffffffffffffffffffff167f1a31e733a172afcf46074b3106c17f0c298e226442682a03c1e99ce256139ec282604051611d3c9190612819565b60405180910390a250565b60065481565b7f000000000000000000000000000000000000000000000000000000000000000073ffffffffffffffffffffffffffffffffffffffff16636a51ce37306040518263ffffffff1660e01b8152600401611da69190612edd565b602060405180830381865afa158015611dc1573d5f5f3e3d5ffd5b505050506040513d601f19601f82011682018060405250810190611de59190612bf8565b8015611e3c57507f000000000000000000000000000000000000000000000000000000000000000073ffffffffffffffffffffffffffffffffffffffff163373ffffffffffffffffffffffffffffffffffffffff16145b611e7b576040517f08c379a0000000000000000000000000000000000000000000000000000000008152600401611e7290612f40565b60405180910390fd5b60095f9054906101000a900460ff1615611eca576040517f08c379a0000000000000000000000000000000000000000000000000000000008152600401611ec190613257565b60405180910390fd5b600354421015611f0f576040517f08c379a0000000000000000000000000000000000000000000000000000000008152600401611f06906132bf565b60405180910390fd5b600160095f6101000a81548160ff02191690831515021790555080600960016101000a81548160ff0219169083151502179055507ff528f3b02f5c2503827fc677c9d0cb54ffbf11ed32cb659f73243b70dea7cf0e81604051611f7291906126fc565b60405180910390a150565b5f5f82600454611f8d9190612d53565b90505f81600654611f9e9190612e50565b905080600554611fae9190612d20565b92505050919050565b60075481565b600960019054906101000a900460ff1681565b5f5f5f5f5f5f5f5f600454600554611fe661114f565b611fee610963565b60075460095f9054906101000a900460ff16600960019054906101000a900460ff16600960029054906101000a900460ff16975097509750975097509750975097509091929394959697565b7f000000000000000000000000000000000000000000000000000000000000000073ffffffffffffffffffffffffffffffffffffffff16636a51ce37306040518263ffffffff1660e01b81526004016120939190612edd565b602060405180830381865afa1580156120ae573d5f5f3e3d5ffd5b505050506040513d601f19601f820116820180604052508101906120d29190612bf8565b801561212957507f000000000000000000000000000000000000000000000000000000000000000073ffffffffffffffffffffffffffffffffffffffff163373ffffffffffffffffffffffffffffffffffffffff16145b612168576040517f08c379a000000000000000000000000000000000000000000000000000000000815260040161215f90612f40565b60405180910390fd5b600960029054906101000a900460ff16156121b8576040517f08c379a00000000000000000000000000000000000000000000000000000000081526004016121af90613327565b60405180910390fd5b60095f9054906101000a900460ff1615612207576040517f08c379a00000000000000000000000000000000000000000000000000000000081526004016121fe90613010565b60405180910390fd5b6001600960026101000a81548160ff0219169083151502179055507fb2ce2a931a2019b6f6fecebbc5e97d79e45042a5268af05c1cad2760b3be405460405160405180910390a1565b60055481565b6001805461226390612ead565b80601f016020809104026020016040519081016040528092919081815260200182805461228f90612ead565b80156122da5780601f106122b1576101008083540402835291602001916122da565b820191905f5260205f20905b8154815290600101906020018083116122bd57829003601f168201915b505050505081565b600280546122ef90612ead565b80601f016020809104026020016040519081016040528092919081815260200182805461231b90612ead565b80156123665780601f1061233d57610100808354040283529160200191612366565b820191905f5260205f20905b81548152906001019060200180831161234957829003601f168201915b505050505081565b7f000000000000000000000000000000000000000000000000000000000000000081565b60095f9054906101000a900460ff161580156123bb5750600960029054906101000a900460ff16155b80156123c8575060035442105b612407576040517f08c379a00000000000000000000000000000000000000000000000000000000081526004016123fe90612b1a565b60405180910390fd5b620f424082101561244d576040517f08c379a000000000000000000000000000000000000000000000000000000000815260040161244490612b82565b60405180910390fd5b7f000000000000000000000000000000000000000000000000000000000000000073ffffffffffffffffffffffffffffffffffffffff166323b872dd3330856040518463ffffffff1660e01b81526004016124aa93929190612baf565b6020604051808303815f875af11580156124c6573d5f5f3e3d5ffd5b505050506040513d601f19601f820116820180604052508101906124ea9190612bf8565b612529576040517f08c379a000000000000000000000000000000000000000000000000000000000815260040161252090612c6d565b60405180910390fd5b5f6125338361099e565b905081811015612578576040517f08c379a000000000000000000000000000000000000000000000000000000000815260040161256f906130b7565b60405180910390fd5b5f81116125ba576040517f08c379a00000000000000000000000000000000000000000000000000000000081526004016125b190612cd5565b60405180910390fd5b8060045f8282546125cb9190612d20565b925050819055508260055f8282546125e39190612d53565b925050819055507f000000000000000000000000000000000000000000000000000000000000000073ffffffffffffffffffffffffffffffffffffffff166340c10f1933836040518363ffffffff1660e01b8152600401612645929190612d86565b5f604051808303815f87803b15801561265c575f5ffd5b505af115801561266e573d5f5f3e3d5ffd5b505050508260075f8282546126839190612d53565b925050819055503373ffffffffffffffffffffffffffffffffffffffff167f54b3dbdef11dba5c2d31f70f348a70ca0f7fc83fce4f7f1db955a9df2f63934c600185846040516126d593929190612dad565b60405180910390a2505050565b5f8115159050919050565b6126f6816126e2565b82525050565b5f60208201905061270f5f8301846126ed565b92915050565b5f5ffd5b5f819050919050565b61272b81612719565b8114612735575f5ffd5b50565b5f8135905061274681612722565b92915050565b5f6020828403121561276157612760612715565b5b5f61276e84828501612738565b91505092915050565b5f73ffffffffffffffffffffffffffffffffffffffff82169050919050565b5f819050919050565b5f6127b96127b46127af84612777565b612796565b612777565b9050919050565b5f6127ca8261279f565b9050919050565b5f6127db826127c0565b9050919050565b6127eb816127d1565b82525050565b5f6020820190506128045f8301846127e2565b92915050565b61281381612719565b82525050565b5f60208201905061282c5f83018461280a565b92915050565b5f61283c826127c0565b9050919050565b61284c81612832565b82525050565b5f6020820190506128655f830184612843565b92915050565b5f81519050919050565b5f82825260208201905092915050565b8281835e5f83830152505050565b5f601f19601f8301169050919050565b5f6128ad8261286b565b6128b78185612875565b93506128c7818560208601612885565b6128d081612893565b840191505092915050565b5f6020820190508181035f8301526128f381846128a3565b905092915050565b5f61290582612777565b9050919050565b612915816128fb565b811461291f575f5ffd5b50565b5f813590506129308161290c565b92915050565b5f6020828403121561294b5761294a612715565b5b5f61295884828501612922565b91505092915050565b5f6040820190506129745f83018561280a565b612981602083018461280a565b9392505050565b5f612992826127c0565b9050919050565b6129a281612988565b82525050565b5f6020820190506129bb5f830184612999565b92915050565b5f5f604083850312156129d7576129d6612715565b5b5f6129e485828601612738565b92505060206129f585828601612738565b9150509250929050565b612a08816126e2565b8114612a12575f5ffd5b50565b5f81359050612a23816129ff565b92915050565b5f60208284031215612a3e57612a3d612715565b5b5f612a4b84828501612a15565b91505092915050565b5f61010082019050612a685f83018b61280a565b612a75602083018a61280a565b612a82604083018961280a565b612a8f606083018861280a565b612a9c608083018761280a565b612aa960a08301866126ed565b612ab660c08301856126ed565b612ac360e08301846126ed565b9998505050505050505050565b7f4d61726b657420696e61637469766500000000000000000000000000000000005f82015250565b5f612b04600f83612875565b9150612b0f82612ad0565b602082019050919050565b5f6020820190508181035f830152612b3181612af8565b9050919050565b7f42656c6f77206d696e696d756d20747261646520616d6f756e740000000000005f82015250565b5f612b6c601a83612875565b9150612b7782612b38565b602082019050919050565b5f6020820190508181035f830152612b9981612b60565b9050919050565b612ba9816128fb565b82525050565b5f606082019050612bc25f830186612ba0565b612bcf6020830185612ba0565b612bdc604083018461280a565b949350505050565b5f81519050612bf2816129ff565b92915050565b5f60208284031215612c0d57612c0c612715565b5b5f612c1a84828501612be4565b91505092915050565b7f5472616e73666572206661696c656400000000000000000000000000000000005f82015250565b5f612c57600f83612875565b9150612c6282612c23565b602082019050919050565b5f6020820190508181035f830152612c8481612c4b565b9050919050565b7f4e6f20746f6b656e73206f7574000000000000000000000000000000000000005f82015250565b5f612cbf600d83612875565b9150612cca82612c8b565b602082019050919050565b5f6020820190508181035f830152612cec81612cb3565b9050919050565b7f4e487b71000000000000000000000000000000000000000000000000000000005f52601160045260245ffd5b5f612d2a82612719565b9150612d3583612719565b9250828203905081811115612d4d57612d4c612cf3565b5b92915050565b5f612d5d82612719565b9150612d6883612719565b9250828201905080821115612d8057612d7f612cf3565b5b92915050565b5f604082019050612d995f830185612ba0565b612da6602083018461280a565b9392505050565b5f606082019050612dc05f8301866126ed565b612dcd602083018561280a565b612dda604083018461280a565b949350505050565b5f612dec82612719565b9150612df783612719565b9250828202612e0581612719565b91508282048414831517612e1c57612e1b612cf3565b5b5092915050565b7f4e487b71000000000000000000000000000000000000000000000000000000005f52601260045260245ffd5b5f612e5a82612719565b9150612e6583612719565b925082612e7557612e74612e23565b5b828204905092915050565b7f4e487b71000000000000000000000000000000000000000000000000000000005f52602260045260245ffd5b5f6002820490506001821680612ec457607f821691505b602082108103612ed757612ed6612e80565b5b50919050565b5f602082019050612ef05f830184612ba0565b92915050565b7f4f6e6c79206f7261636c650000000000000000000000000000000000000000005f82015250565b5f612f2a600b83612875565b9150612f3582612ef6565b602082019050919050565b5f6020820190508181035f830152612f5781612f1e565b9050919050565b7f4d61726b6574206e6f742066726f7a656e0000000000000000000000000000005f82015250565b5f612f92601183612875565b9150612f9d82612f5e565b602082019050919050565b5f6020820190508181035f830152612fbf81612f86565b9050919050565b7f4d61726b657420616c7265616479207265736f6c7665640000000000000000005f82015250565b5f612ffa601783612875565b915061300582612fc6565b602082019050919050565b5f6020820190508181035f83015261302781612fee565b9050919050565b5f8151905061303c81612722565b92915050565b5f6020828403121561305757613056612715565b5b5f6130648482850161302e565b91505092915050565b7f536c69707061676520746f6f20686967680000000000000000000000000000005f82015250565b5f6130a1601183612875565b91506130ac8261306d565b602082019050919050565b5f6020820190508181035f8301526130ce81613095565b9050919050565b7f4d61726b6574206e6f74207265736f6c766564000000000000000000000000005f82015250565b5f613109601383612875565b9150613114826130d5565b602082019050919050565b5f6020820190508181035f830152613136816130fd565b9050919050565b7f416c726561647920636c61696d656400000000000000000000000000000000005f82015250565b5f613171600f83612875565b915061317c8261313d565b602082019050919050565b5f6020820190508181035f83015261319e81613165565b9050919050565b7f4e6f2077696e6e696e67730000000000000000000000000000000000000000005f82015250565b5f6131d9600b83612875565b91506131e4826131a5565b602082019050919050565b5f6020820190508181035f830152613206816131cd565b9050919050565b7f416c7265616479207265736f6c766564000000000000000000000000000000005f82015250565b5f613241601083612875565b915061324c8261320d565b602082019050919050565b5f6020820190508181035f83015261326e81613235565b9050919050565b7f4d61726b6574207374696c6c20616374697665000000000000000000000000005f82015250565b5f6132a9601383612875565b91506132b482613275565b602082019050919050565b5f6020820190508181035f8301526132d68161329d565b9050919050565b7f416c72656164792066726f7a656e0000000000000000000000000000000000005f82015250565b5f613311600e83612875565b915061331c826132dd565b602082019050919050565b5f6020820190508181035f83015261333e81613305565b905091905056fea2646970667358221220e96f061bac1462a77b0e5ca4ade502daa294458fc93af796390c07b5bb3e8ce264736f6c634300081c0033","linkReferences":{}},"methodIdentifiers":{"INITIAL_TOKENS()":"85c8bd6d","MIN_TRADE_AMOUNT()":"31b7d413","PRECISION()":"aaf5eb68","buyNo(uint256)":"58c36e5c","buyNoWithSlippage(uint256,uint256)":"94677ba6","buyYes(uint256)":"061dd98d","buyYesWithSlippage(uint256,uint256)":"f191dd32","calculatePayout(address)":"a877933f","category()":"ef430aa6","claimWinnings()":"b401faf1","endTime()":"3197cbb6","freezeMarket()":"df2e5066","frozen()":"054f7d9c","getMarketState()":"d8165743","getNoPrice()":"12b01b16","getNoTokensOut(uint256)":"c573b731","getUserPosition(address)":"5b7c2dad","getYesPrice()":"8779086f","getYesTokensOut(uint256)":"29e2a741","hasClaimed(address)":"73b2e80e","k()":"b4f40c61","noToken()":"11a9f10a","noTokens()":"e1eb0600","oracle()":"7dc0d1d0","protocolName()":"e567e869","question()":"3fad9ae0","resolveMarket(bool)":"c390bd30","resolved()":"3f6fa655","totalUsdcDeposited()":"c580f737","unfreezeMarket()":"4b339c0d","usdc()":"3e413bee","yesToken()":"f0d9bb20","yesTokens()":"997aa8e0","yesWon()":"cbee38dc"},"id":25}