{"abi":[{"type":"constructor","inputs":[{"name":"_name","type":"string","internalType":"string"},{"name":"_symbol","type":"string","internalType":"string"},{"name":"_market","type":"address","internalType":"address"}],"stateMutability":"nonpayable"},{"type":"function","name":"allowance","inputs":[{"name":"","type":"address","internalType":"address"},{"name":"","type":"address","internalType":"address"}],"outputs":[{"name":"","type":"uint256","internalType":"uint256"}],"stateMutability":"view"},{"type":"function","name":"approve","inputs":[{"name":"spender","type":"address","internalType":"address"},{"name":"amount","type":"uint256","internalType":"uint256"}],"outputs":[{"name":"","type":"bool","internalType":"bool"}],"stateMutability":"nonpayable"},{"type":"function","name":"balanceOf","inputs":[{"name":"","type":"address","internalType":"address"}],"outputs":[{"name":"","type":"uint256","internalType":"uint256"}],"stateMutability":"view"},{"type":"function","name":"burn","inputs":[{"name":"from","type":"address","internalType":"address"},{"name":"amount","type":"uint256","internalType":"uint256"}],"outputs":[],"stateMutability":"nonpayable"},{"type":"function","name":"burnFrom","inputs":[{"name":"from","type":"address","internalType":"address"},{"name":"amount","type":"uint256","internalType":"uint256"}],"outputs":[],"stateMutability":"nonpayable"},{"type":"function","name":"decimals","inputs":[],"outputs":[{"name":"","type":"uint8","internalType":"uint8"}],"stateMutability":"view"},{"type":"function","name":"market","inputs":[],"outputs":[{"name":"","type":"address","internalType":"address"}],"stateMutability":"view"},{"type":"function","name":"mint","inputs":[{"name":"to","type":"address","internalType":"address"},{"name":"amount","type":"uint256","internalType":"uint256"}],"outputs":[],"stateMutability":"nonpayable"},{"type":"function","name":"name","inputs":[],"outputs":[{"name":"","type":"string","internalType":"string"}],"stateMutability":"view"},{"type":"function","name":"setMarket","inputs":[{"name":"_market","type":"address","internalType":"address"}],"outputs":[],"stateMutability":"nonpayable"},{"type":"function","name":"symbol","inputs":[],"outputs":[{"name":"","type":"string","internalType":"string"}],"stateMutability":"view"},{"type":"function","name":"totalSupply","inputs":[],"outputs":[{"name":"","type":"uint256","internalType":"uint256"}],"stateMutability":"view"},{"type":"function","name":"transfer","inputs":[{"name":"to","type":"address","internalType":"address"},{"name":"amount","type":"uint256","internalType":"uint256"}],"outputs":[{"name":"","type":"bool","internalType":"bool"}],"stateMutability":"nonpayable"},{"type":"function","name":"transferFrom","inputs":[{"name":"from","type":"address","internalType":"address"},{"name":"to","type":"address","internalType":"address"},{"name":"amount","type":"uint256","internalType":"uint256"}],"outputs":[{"name":"","type":"bool","internalType":"bool"}],"stateMutability":"nonpayable"},{"type":"event","name":"Approval","inputs":[{"name":"owner","type":"address","indexed":true,"internalType":"address"},{"name":"spender","type":"address","indexed":true,"internalType":"address"},{"name":"value","type":"uint256","indexed":false,"internalType":"uint256"}],"anonymous":false},{"type":"event","name":"Transfer","inputs":[{"name":"from","type":"address","indexed":true,"internalType":"address"},{"name":"to","type":"address","indexed":true,"internalType":"address"},{"name":"value","type":"uint256","indexed":false,"internalType":"uint256"}],"anonymous":false}],"bytecode":{"object":"0x60806040523461034857610d69803803806100198161034c565b9283398101906060818303126103485780516001600160401b0381116103485782610045918301610371565b60208201519092906001600160401b03811161034857604091610069918401610371565b9101516001600160a01b03811690819003610348576002805460ff1916601217905582516001600160401b03811161025c575f54600181811c9116801561033e575b602082101461023e57601f81116102dc575b506020601f821160011461027b57819293945f92610270575b50508160011b915f199060031b1c1916175f555b81516001600160401b03811161025c57600154600181811c91168015610252575b602082101461023e57601f81116101db575b50602092601f821160011461017a57928192935f9261016f575b50508160011b915f199060031b1c1916176001555b600480546001600160a01b0319169190911790556040516109a690816103c38239f35b015190505f80610137565b601f1982169360015f52805f20915f5b8681106101c357508360019596106101ab575b505050811b0160015561014c565b01515f1960f88460031b161c191690555f808061019d565b9192602060018192868501518155019401920161018a565b60015f527fb10e2d527612073b26eecdfd717e6a320cf44b4afac2b0732d9fcbe2b7fa0cf6601f830160051c81019160208410610234575b601f0160051c01905b818110610229575061011d565b5f815560010161021c565b9091508190610213565b634e487b7160e01b5f52602260045260245ffd5b90607f169061010b565b634e487b7160e01b5f52604160045260245ffd5b015190505f806100d6565b601f198216905f8052805f20915f5b8181106102c4575095836001959697106102ac575b505050811b015f556100ea565b01515f1960f88460031b161c191690555f808061029f565b9192602060018192868b01518155019401920161028a565b5f80527f290decd9548b62a8d60345a988386fc84ba6bc95484008f6362f93160ef3e563601f830160051c81019160208410610334575b601f0160051c01905b81811061032957506100bd565b5f815560010161031c565b9091508190610313565b90607f16906100ab565b5f80fd5b6040519190601f01601f191682016001600160401b0381118382101761025c57604052565b81601f82011215610348578051906001600160401b03821161025c576103a0601f8301601f191660200161034c565b928284526020838301011161034857815f9260208093018386015e830101529056fe60806040526004361015610011575f80fd5b5f3560e01c806306fdde03146106bb578063095ea7b31461064257806318160ddd1461062557806323b872dd14610503578063313ce567146104e357806340c10f191461041a5780636dcea85f1461034057806370a082311461030857806379cc67901461019b57806380f55605146102e057806395d89b41146101c25780639dc29fac1461019b578063a9059cbb146101075763dd62ed3e146100b3575f80fd5b34610103576040366003190112610103576100cc6107b7565b6100d46107cd565b6001600160a01b039182165f908152600660209081526040808320949093168252928352819020549051908152f35b5f80fd5b34610103576040366003190112610103576101206107b7565b60243590335f52600560205261013c8260405f205410156107e3565b335f52600560205260405f20610153838254610826565b905560018060a01b031690815f52600560205260405f20610175828254610847565b90556040519081525f5160206109515f395f51905f5260203392a3602060405160018152f35b34610103576040366003190112610103576101c06101b76107b7565b60243590610897565b005b34610103575f366003190112610103576040515f6001548060011c906001811680156102d6575b6020831081146102c2578285529081156102a65750600114610250575b50819003601f01601f191681019067ffffffffffffffff82118183101761023c5760408290528190610238908261078d565b0390f35b634e487b7160e01b5f52604160045260245ffd5b60015f9081529091507fb10e2d527612073b26eecdfd717e6a320cf44b4afac2b0732d9fcbe2b7fa0cf65b82821061029057506020915082010182610206565b600181602092548385880101520191019061027b565b90506020925060ff191682840152151560051b82010182610206565b634e487b7160e01b5f52602260045260245ffd5b91607f16916101e9565b34610103575f366003190112610103576004546040516001600160a01b039091168152602090f35b34610103576020366003190112610103576001600160a01b036103296107b7565b165f526005602052602060405f2054604051908152f35b34610103576020366003190112610103576103596107b7565b600454906001600160a01b038216801590811561040f575b50156103d5576001600160a01b0316908115610397576001600160a01b03191617600455005b60405162461bcd60e51b8152602060048201526016602482015275496e76616c6964206d61726b6574206164647265737360501b6044820152606490fd5b60405162461bcd60e51b815260206004820152601260248201527113585c9ad95d08185b1c9958591e481cd95d60721b6044820152606490fd5b600191501483610371565b34610103576040366003190112610103576104336107b7565b6024359061044c60018060a01b03600454163314610854565b6001600160a01b031690811561049e575f5160206109515f395f51905f5260205f928484526005825260408420610484828254610847565b905561049281600354610847565b600355604051908152a3005b60405162461bcd60e51b815260206004820152601b60248201527f43616e6e6f74206d696e7420746f207a65726f206164647265737300000000006044820152606490fd5b34610103575f36600319011261010357602060ff60025416604051908152f35b346101035760603660031901126101035761051c6107b7565b6105246107cd565b6044359160018060a01b031690815f5260056020526105498360405f205410156107e3565b5f82815260066020908152604080832033845290915290205483116105e75760205f5160206109515f395f51905f5291835f526005825260405f2061058f868254610826565b905560018060a01b031693845f526005825260405f206105b0828254610847565b90555f8481526006835260408082203383528452902080546105d3908390610826565b9055604051908152a3602060405160018152f35b60405162461bcd60e51b8152602060048201526016602482015275496e73756666696369656e7420616c6c6f77616e636560501b6044820152606490fd5b34610103575f366003190112610103576020600354604051908152f35b346101035760403660031901126101035761065b6107b7565b335f8181526006602090815260408083206001600160a01b03909516808452948252918290206024359081905591519182527f8c5be1e5ebec7d5bd14f71427d1e84f3dd0314c0f7b2291e5b200ac8c7c3b92591a3602060405160018152f35b34610103575f366003190112610103576040515f5f548060011c90600181168015610783575b6020831081146102c2578285529081156102a6575060011461072f5750819003601f01601f191681019067ffffffffffffffff82118183101761023c5760408290528190610238908261078d565b5f8080529091507f290decd9548b62a8d60345a988386fc84ba6bc95484008f6362f93160ef3e5635b82821061076d57506020915082010182610206565b6001816020925483858801015201910190610758565b91607f16916106e1565b602060409281835280519182918282860152018484015e5f828201840152601f01601f1916010190565b600435906001600160a01b038216820361010357565b602435906001600160a01b038216820361010357565b156107ea57565b60405162461bcd60e51b8152602060048201526014602482015273496e73756666696369656e742062616c616e636560601b6044820152606490fd5b9190820391821161083357565b634e487b7160e01b5f52601160045260245ffd5b9190820180921161083357565b1561085b57565b60405162461bcd60e51b815260206004820152601460248201527313db9b1e481b585c9ad95d0818d85b8818d85b1b60621b6044820152606490fd5b6108ac60018060a01b03600454163314610854565b6001600160a01b03165f81815260056020526040902054821161090b575f5160206109515f395f51905f5260205f9383855260058252604085206108f1828254610826565b90556108ff81600354610826565b600355604051908152a3565b60405162461bcd60e51b815260206004820152601c60248201527f496e73756666696369656e742062616c616e636520746f206275726e000000006044820152606490fdfeddf252ad1be2c89b69c2b068fc378daa952ba7f163c4a11628f55a4df523b3efa2646970667358221220de0c408fc376e0e68be38e6c7a67d4271819f7f258441970ebc94e588fc396bc64736f6c634300081c0033","linkReferences":{}},"methodIdentifiers":{"allowance(address,address)":"dd62ed3e","approve(address,uint256)":"095ea7b3","balanceOf(address)":"70a08231","burn(address,uint256)":"9dc29fac","burnFrom(address,uint256)":"79cc6790","decimals()":"313ce567","market()":"80f55605","mint(address,uint256)":"40c10f19","name()":"06fdde03","setMarket(address)":"6dcea85f","symbol()":"95d89b41","totalSupply()":"18160ddd","transfer(address,uint256)":"a9059cbb","transferFrom(address,address,uint256)":"23b872dd"},"id":28}