{"abi":[{"type":"constructor","inputs":[],"stateMutability":"nonpayable"},{"type":"function","name":"canFreeze","inputs":[{"name":"market","type":"address","internalType":"address"}],"outputs":[{"name":"","type":"bool","internalType":"bool"}],"stateMutability":"view"},{"type":"function","name":"canResolve","inputs":[{"name":"market","type":"address","internalType":"address"}],"outputs":[{"name":"","type":"bool","internalType":"bool"}],"stateMutability":"view"},{"type":"function","name":"freezeMarket","inputs":[{"name":"market","type":"address","internalType":"address"}],"outputs":[],"stateMutability":"nonpayable"},{"type":"function","name":"getOwner","inputs":[],"outputs":[{"name":"","type":"address","internalType":"address"}],"stateMutability":"view"},{"type":"function","name":"getResolution","inputs":[{"name":"market","type":"address","internalType":"address"}],"outputs":[{"name":"resolved","type":"bool","internalType":"bool"},{"name":"result","type":"bool","internalType":"bool"}],"stateMutability":"view"},{"type":"function","name":"marketResolved","inputs":[{"name":"","type":"address","internalType":"address"}],"outputs":[{"name":"","type":"bool","internalType":"bool"}],"stateMutability":"view"},{"type":"function","name":"marketResult","inputs":[{"name":"","type":"address","internalType":"address"}],"outputs":[{"name":"","type":"bool","internalType":"bool"}],"stateMutability":"view"},{"type":"function","name":"owner","inputs":[],"outputs":[{"name":"","type":"address","internalType":"address"}],"stateMutability":"view"},{"type":"function","name":"resolveMarket","inputs":[{"name":"market","type":"address","internalType":"address"},{"name":"result","type":"bool","internalType":"bool"}],"outputs":[],"stateMutability":"nonpayable"},{"type":"function","name":"unfreezeMarket","inputs":[{"name":"market","type":"address","internalType":"address"}],"outputs":[],"stateMutability":"nonpayable"},{"type":"event","name":"MarketFrozen","inputs":[{"name":"market","type":"address","indexed":true,"internalType":"address"}],"anonymous":false},{"type":"event","name":"MarketResolved","inputs":[{"name":"market","type":"address","indexed":true,"internalType":"address"},{"name":"result","type":"bool","indexed":false,"internalType":"bool"}],"anonymous":false},{"type":"event","name":"MarketUnfrozen","inputs":[{"name":"market","type":"address","indexed":true,"internalType":"address"}],"anonymous":false}],"bytecode":{"object":"0x60a0806040523460365733608052610814908161003b823960805181818160b4015281816102c80152818161050601526106a10152f35b5f80fdfe60806040526004361015610011575f80fd5b5f5f3560e01c80630403188d146104e6578063144f0165146104a75780634a522b49146104555780635b9fbe07146104175780636a51ce37146104125780636bc388b214610412578063893d20e81461040d5780638da5cb5b1461040d578063b29473a7146102a85763d450cd9c14610088575f80fd5b346102a55760403660031901126102a5576100a1610649565b6024358015158091036101d2576100e2337f00000000000000000000000000000000000000000000000000000000000000006001600160a01b0316146106d0565b604051636a51ce3760e01b81526001600160a01b039092166004830181905291602081602481305afa90811561029a57849161026b575b5015610226578183528260205260ff6040842054166101e157813b156101d25782604051630c390bd360e41b8152826004820152818160248183885af180156101d6576101bd575b507fe1ed361a9267ee898f74c2ae2b43810623c3ff7fbafed1bf79c651e5122bbd5291836020925284825260408520600160ff19825416179055838552600182526040852060ff1981541660ff8316179055604051908152a280f35b816101c791610709565b6101d257825f610161565b8280fd5b6040513d84823e3d90fd5b60405162461bcd60e51b815260206004820152601760248201527f4d61726b657420616c7265616479207265736f6c7665640000000000000000006044820152606490fd5b60405162461bcd60e51b815260206004820152601a60248201527f43616e6e6f74207265736f6c76652074686973206d61726b65740000000000006044820152606490fd5b61028d915060203d602011610293575b6102858183610709565b81019061073f565b5f610119565b503d61027b565b6040513d86823e3d90fd5b80fd5b50346102a55760203660031901126102a5576102c2610649565b6102f6337f00000000000000000000000000000000000000000000000000000000000000006001600160a01b0316146106d0565b6040516335e1c45960e11b81526001600160a01b039091166004820181905290602081602481305afa9081156104025783916103e3575b501561039e57803b1561039a57604051634b339c0d60e01b81528290818160048183875af180156101d657610385575b50807f9d70968988366484026d19fd2ed45ba53154e653af0d3b64a6e30fd1e59e9c0291a280f35b8161038f91610709565b61039a57815f61035d565b5080fd5b60405162461bcd60e51b815260206004820152601b60248201527f43616e6e6f7420756e667265657a652074686973206d61726b657400000000006044820152606490fd5b6103fc915060203d602011610293576102858183610709565b5f61032d565b6040513d85823e3d90fd5b61068c565b61065f565b50346102a55760203660031901126102a55760209060ff906040906001600160a01b03610442610649565b1681528084522054166040519015158152f35b50346102a55760203660031901126102a55760409060ff826001600160a01b0361047d610649565b16928381528060205282828220541693815260016020522054168251911515825215156020820152f35b50346102a55760203660031901126102a55760209060ff906040906001600160a01b036104d2610649565b168152600184522054166040519015158152f35b50346105e15760203660031901126105e157610500610649565b610534337f00000000000000000000000000000000000000000000000000000000000000006001600160a01b0316146106d0565b6040516335e1c45960e11b81526001600160a01b039091166004820181905290602081602481305afa9081156105d6575f9161062a575b50156105e557803b156105e157604051636f97283360e11b81525f8160048183865af180156105d6576105c1575b507fb33cb2dd3d0d4f68fb707ddade8bd1e4c8ba3c3cf18274aff3968e86a0548da18280a280f35b6105ce9192505f90610709565b5f905f610599565b6040513d5f823e3d90fd5b5f80fd5b60405162461bcd60e51b815260206004820152601960248201527f43616e6e6f7420667265657a652074686973206d61726b6574000000000000006044820152606490fd5b610643915060203d602011610293576102858183610709565b5f61056b565b600435906001600160a01b03821682036105e157565b346105e15760203660031901126105e157602061068261067d610649565b610757565b6040519015158152f35b346105e1575f3660031901126105e1576040517f00000000000000000000000000000000000000000000000000000000000000006001600160a01b03168152602090f35b156106d757565b60405162461bcd60e51b815260206004820152600a60248201526927b7363c9037bbb732b960b11b6044820152606490fd5b90601f8019910116810190811067ffffffffffffffff82111761072b57604052565b634e487b7160e01b5f52604160045260245ffd5b908160209103126105e1575180151581036105e15790565b6040516307dc0d1d60e41b815290602090829060049082906001600160a01b03165afa5f918161079a575b5061078c57505f90565b6001600160a01b0316301490565b9091506020813d6020116107d6575b816107b660209383610709565b810103126105e157516001600160a01b03811681036105e157905f610782565b3d91506107a956fea2646970667358221220292eba6f51465df9a1356c2a8013d0fb173c0f20a6399867bdae23f7343c866e64736f6c634300081c0033","linkReferences":{}},"methodIdentifiers":{"canFreeze(address)":"6bc388b2","canResolve(address)":"6a51ce37","freezeMarket(address)":"0403188d","getOwner()":"893d20e8","getResolution(address)":"4a522b49","marketResolved(address)":"5b9fbe07","marketResult(address)":"144f0165","owner()":"8da5cb5b","resolveMarket(address,bool)":"d450cd9c","unfreezeMarket(address)":"b29473a7"},"id":24}