{"abi":[{"type":"constructor","inputs":[{"name":"_usdc","type":"address","internalType":"address"},{"name":"_oracle","type":"address","internalType":"contract IOracle"}],"stateMutability":"nonpayable"},{"type":"function","name":"allMarkets","inputs":[{"name":"","type":"uint256","internalType":"uint256"}],"outputs":[{"name":"","type":"address","internalType":"address"}],"stateMutability":"view"},{"type":"function","name":"deployMarket","inputs":[{"name":"protocol","type":"string","internalType":"string"},{"name":"durationInDays","type":"uint256","internalType":"uint256"}],"outputs":[{"name":"market","type":"address","internalType":"address"},{"name":"yesToken","type":"address","internalType":"address"},{"name":"noToken","type":"address","internalType":"address"}],"stateMutability":"nonpayable"},{"type":"function","name":"getAllActiveMarkets","inputs":[],"outputs":[{"name":"","type":"address[]","internalType":"address[]"}],"stateMutability":"view"},{"type":"function","name":"getAllMarkets","inputs":[],"outputs":[{"name":"","type":"address[]","internalType":"address[]"}],"stateMutability":"view"},{"type":"function","name":"getMarketInfo","inputs":[{"name":"protocol","type":"string","internalType":"string"},{"name":"expiry","type":"uint256","internalType":"uint256"}],"outputs":[{"name":"","type":"tuple","internalType":"struct PredictionMarketFactory.MarketInfo","components":[{"name":"market","type":"address","internalType":"address"},{"name":"yesToken","type":"address","internalType":"address"},{"name":"noToken","type":"address","internalType":"address"},{"name":"protocol","type":"string","internalType":"string"},{"name":"category","type":"string","internalType":"string"},{"name":"expiry","type":"uint256","internalType":"uint256"},{"name":"durationInDays","type":"uint256","internalType":"uint256"},{"name":"question","type":"string","internalType":"string"},{"name":"exists","type":"bool","internalType":"bool"}]}],"stateMutability":"view"},{"type":"function","name":"getMarketsByExpiry","inputs":[{"name":"durationInDays","type":"uint256","internalType":"uint256"}],"outputs":[{"name":"","type":"address[]","internalType":"address[]"}],"stateMutability":"view"},{"type":"function","name":"getMarketsByProtocol","inputs":[{"name":"protocol","type":"string","internalType":"string"}],"outputs":[{"name":"","type":"address[]","internalType":"address[]"}],"stateMutability":"view"},{"type":"function","name":"getSupportedDurations","inputs":[],"outputs":[{"name":"","type":"uint256[]","internalType":"uint256[]"}],"stateMutability":"view"},{"type":"function","name":"getSupportedProtocols","inputs":[],"outputs":[{"name":"","type":"string[]","internalType":"string[]"}],"stateMutability":"view"},{"type":"function","name":"isDurationSupported","inputs":[{"name":"duration","type":"uint256","internalType":"uint256"}],"outputs":[{"name":"","type":"bool","internalType":"bool"}],"stateMutability":"view"},{"type":"function","name":"isProtocolSupported","inputs":[{"name":"protocol","type":"string","internalType":"string"}],"outputs":[{"name":"","type":"bool","internalType":"bool"}],"stateMutability":"view"},{"type":"function","name":"markets","inputs":[{"name":"","type":"bytes32","internalType":"bytes32"}],"outputs":[{"name":"market","type":"address","internalType":"address"},{"name":"yesToken","type":"address","internalType":"address"},{"name":"noToken","type":"address","internalType":"address"},{"name":"protocol","type":"string","internalType":"string"},{"name":"category","type":"string","internalType":"string"},{"name":"expiry","type":"uint256","internalType":"uint256"},{"name":"durationInDays","type":"uint256","internalType":"uint256"},{"name":"question","type":"string","internalType":"string"},{"name":"exists","type":"bool","internalType":"bool"}],"stateMutability":"view"},{"type":"function","name":"marketsByExpiry","inputs":[{"name":"","type":"uint256","internalType":"uint256"},{"name":"","type":"uint256","internalType":"uint256"}],"outputs":[{"name":"","type":"address","internalType":"address"}],"stateMutability":"view"},{"type":"function","name":"marketsByProtocol","inputs":[{"name":"","type":"string","internalType":"string"},{"name":"","type":"uint256","internalType":"uint256"}],"outputs":[{"name":"","type":"address","internalType":"address"}],"stateMutability":"view"},{"type":"function","name":"oracle","inputs":[],"outputs":[{"name":"","type":"address","internalType":"contract IOracle"}],"stateMutability":"view"},{"type":"function","name":"supportedDurations","inputs":[{"name":"","type":"uint256","internalType":"uint256"}],"outputs":[{"name":"","type":"uint256","internalType":"uint256"}],"stateMutability":"view"},{"type":"function","name":"supportedProtocols","inputs":[{"name":"","type":"uint256","internalType":"uint256"}],"outputs":[{"name":"","type":"string","internalType":"string"}],"stateMutability":"view"},{"type":"function","name":"usdc","inputs":[],"outputs":[{"name":"","type":"address","internalType":"contract IERC20"}],"stateMutability":"view"},{"type":"event","name":"MarketCreated","inputs":[{"name":"market","type":"address","indexed":true,"internalType":"address"},{"name":"yesToken","type":"address","indexed":true,"internalType":"address"},{"name":"noToken","type":"address","indexed":true,"internalType":"address"},{"name":"protocol","type":"string","indexed":false,"internalType":"string"},{"name":"expiry","type":"uint256","indexed":false,"internalType":"uint256"},{"name":"question","type":"string","indexed":false,"internalType":"string"}],"anonymous":false}],"bytecode":{"object":"0x60c06040523461050757604051601f61508138819003918201601f19168301916001600160401b038311848410176103c55780849260409485528339810103126105075780516001600160a01b03811691908290036105075760200151906001600160a01b038216820361050757604051608081016001600160401b038111828210176103c557604052601e8152605a602082015260b4604082015261016d60608201526005546004600555806004106104b1575b5060055f5260205f20905f5b600481106104995750505060805260a052600454680100000000000000008110156103c5578060016100f59201600455610521565b6103b257610103815461054d565b601f8111610479575b507f4b6966667950756e6368000000000000000000000000000000000000000000149055600454680100000000000000008110156103c5578060016101549201600455610521565b6103b257610162815461054d565b601f8111610459575b5060086320b735b960e11b019055600454680100000000000000008110156103c55780600161019d9201600455610521565b6103b2576101ab815461054d565b601f8111610439575b507f496e6372656d656e742046696e616e63650000000000000000000000000000229055600454680100000000000000008110156103c5578060016101fc9201600455610521565b6103b25761020a815461054d565b601f8111610419575b507f4d4f5245204d61726b65747300000000000000000000000000000000000000189055600454680100000000000000008110156103c55780600161025b9201600455610521565b6103b25761027261026c825461054d565b82610585565b600c6553747572647960d01b019055600454680100000000000000008110156103c5578060016102a59201600455610521565b6103b2576102b3815461054d565b601f81116103f9575b507f547261646f2046696e616e63650000000000000000000000000000000000001a9055600454680100000000000000008110156103c5578060016103049201600455610521565b6103b257610312815461054d565b601f81116103d9575b507f466978657320576f726c640000000000000000000000000000000000000000169055600454680100000000000000008110156103c5578060016103639201600455610521565b6103b25761037461026c825461054d565b600c654265657a696560d01b019055604051614ad390816105ae823960805181818161067b015261157f015260a0518181816106a00152610e8e0152f35b634e487b7160e01b5f525f60045260245ffd5b634e487b7160e01b5f52604160045260245ffd5b6103f390825f52601f60205f20910160051c81019061050b565b5f61031b565b61041390825f52601f60205f20910160051c81019061050b565b5f6102bc565b61043390825f52601f60205f20910160051c81019061050b565b5f610213565b61045390825f52601f60205f20910160051c81019061050b565b5f6101b4565b61047390825f52601f60205f20910160051c81019061050b565b5f61016b565b61049390825f52601f60205f20910160051c81019061050b565b5f61010c565b600190602061ffff84511693019281850155016100c0565b60055f52610501907f036b6384b5eca791c62761152d0c79bb0604c104a5fb6f4eb0703f3154bb3db0017f036b6384b5eca791c62761152d0c79bb0604c104a5fb6f4eb0703f3154bb3db461050b565b5f6100b4565b5f80fd5b818110610516575050565b5f815560010161050b565b6004548110156105395760045f5260205f2001905f90565b634e487b7160e01b5f52603260045260245ffd5b90600182811c9216801561057b575b602083101461056757565b634e487b7160e01b5f52602260045260245ffd5b91607f169161055c565b90601f8111610592575050565b6105ab915f52601f60205f20910160051c81019061050b565b56fe60806040526004361015610011575f80fd5b5f5f3560e01c8063015157cd146116765780630e270b601461163e5780633df952d1146115ae5780633e413bee1461156a578063509243721461152657806352d84d1e146114fd578063532913a514611410578063533c9a55146113a357806368e84aef1461133457806369d406011461127e578063724f9630146112475780637564912b1461114f578063780b7ae214610ebd5780637dc0d1d014610e795780639ef8e837146103a55780639f15f2e7146101c3578063b0772d0b146101355763b29afc96146100e0575f80fd5b3461013257610100906100f2366118ae565b9290604051918291826118df565b03902090815483101561013257602061011984846116dc565b905460405160039290921b1c6001600160a01b03168152f35b80fd5b503461013257806003193601126101325760405180916020600154928381520191600182527fb10e2d527612073b26eecdfd717e6a320cf44b4afac2b0732d9fcbe2b7fa0cf6915b8181106101a4576101a0856101948187038261170d565b6040519182918261178f565b0390f35b82546001600160a01b031684526020909301926001928301920161017d565b50346101325760409061023b61022d6101db366118ae565b8461010087959395516101ed816116f1565b8281528260208201528289820152606080820152606060808201528260a08201528260c0820152606060e0820152015285519283916020830195866118f6565b03601f19810183528261170d565b51902081528060205220604051610251816116f1565b81546001600160a01b03908116825260018301548116602083019081526002840154909116604080840191825251919390916103979161029f82610298816003850161182d565b038361170d565b60608501918252604051916102c2836102bb816004860161182d565b038461170d565b6080860192835261037760058301549360a0880194855261036460068501549360c08a0194855260ff60086040519761030989610302816007850161182d565b038a61170d565b60e08d0198895201541615156101008b019081526040805160208082529c516001600160a01b039081169d82019d909d529c518c16908d0152985190991660608b0152975161012060808b01528998906101408a01906117d1565b9051888203601f190160a08a01526117d1565b925160c08701525160e086015251848203601f19016101008601526117d1565b905115156101208301520390f35b5034610d94576103b4366118ae565b90916103bf83611947565b15610e3b576103cd8261190d565b15610dfd57620151808202828104620151801483151715610de957420190814211610de95760405160208101906104098161022d8689866118f6565b51902090815f525f60205260ff600860405f20015416610dac57849261042e85611a3f565b60405192675945536861636b2d60c01b60208501528151938660208401958087602885015e82019161642d60f01b6028840152610579600283519661049482856028602089019b8a818e602a819e015e01015f838201520301601f19810186528561170d565b6104e4828b6027604051998a92664e4f6861636b2d60c81b6020850152865180918486015e830161642d60f01b838201528a518092602983015e01015f838201520301601f19810188528761170d565b610532828b60248b604051998a93635945532d60e01b6020860152875180918587015e84019061642d60f01b84830152518092602683015e01015f838201520301601f19810187528661170d565b60236040519a8b92624e4f2d60e81b60208501525180918385015e820161642d60f01b828201528d5190818b602583015e01015f838201520301601f19810189528861170d565b6105bf600b6025604051809c6402bb4b636160dd1b602083015251808a8484015e81016a206265206861636b65643f60a81b83820152030160141981018c52018a61170d565b604051610d6992838201928284106001600160401b03851117610d985782916105ef91611b059587878639611a10565b03905ff08015610d895760018060a01b031696604051938385018581106001600160401b03821117610d98578594610628948639611a10565b03905ff08015610d89576040516001600160a01b039190911696612230908183016001600160401b03811184821017610d98578a60e06106ee8e6106e088968f8e60409a61286e8b396001600160a01b037f000000000000000000000000000000000000000000000000000000000000000081168a527f00000000000000000000000000000000000000000000000000000000000000001660208a01528a8901526060880152610100608088018190528701906117d1565b9085820360a08701526117d1565b9280840360c0820152600e84526d6861636b2d696e737572616e636560901b602085015201520301905ff08015610d89576001600160a01b031696843b15610d9457604051636dcea85f60e01b8152600481018990525f81602481838a5af18015610d8957610d74575b50863b15610d6557604051636dcea85f60e01b8152600481018990528281602481838c5af18015610d6957908391610d50575b5050604051956402bb4b636160dd1b60208801526107d4600b6025898d5180898484015e81016a206265206861636b65643f60a81b83820152030160141981018a52018861170d565b6040516107e0816116f1565b898152602081019787895260408201988a8a5260608301908d825260409a8b9283519161080d858461170d565b600e83526d6861636b2d696e737572616e636560901b6020808501919091526080880193845260a088018d815260c089018b815260e08a0198895260016101008b018181529b8e52928d9052968c20985189546001600160a01b03199081166001600160a01b03928316178b559651928a018054881693821693909317909255915160028901805490961691161790935551805160038701916001600160401b038211610d3c5781906108c084546117f5565b601f8111610cec575b50602090601f8311600114610c8a578c92610c7f575b50508160011b915f199060031b1c19161790555b51805160048601916001600160401b038211610c6b57819061091584546117f5565b601f8111610c1b575b50602090601f8311600114610bb9578b92610bae575b50508160011b915f199060031b1c19161790555b51600584015551600683015551805160078301916001600160401b038211610b9a5761097483546117f5565b601f8111610b55575b50602090601f8311600114610aef57600894939291889183610ae4575b50508160011b915f199060031b1c19161790555b019051151560ff80198354169116179055600154600160401b811015610ad057606099610abe89968896610a558d8c81997f5014c34bb0b498c0d4fad9101ff487c96d659a9cee67cc2b071b58a39310724699610a168a6001610aac9c0160015560016116dc565b81549060031b9086821b9160018060a01b03901b1916179055610a4884845180610a408d826118df565b0390206119cf565b81526003602052206119cf565b610a9b600b60258d5180946402bb4b636160dd1b6020830152885180918484015e81016a206265206861636b65643f60a81b83820152030160141981018452018261170d565b8a519485948f86528f8601906117d1565b9160208501528382038b8501526117d1565b0390a481519384526020840152820152f35b634e487b7160e01b83526041600452602483fd5b015190505f8061099a565b8388528188209190601f198416895b818110610b3d575091600193918560089897969410610b25575b505050811b0190556109ae565b01515f1960f88460031b161c191690555f8080610b18565b92936020600181928786015181550195019301610afe565b83885260208820601f840160051c81019160208510610b90575b601f0160051c01905b818110610b85575061097d565b888155600101610b78565b9091508190610b6f565b634e487b7160e01b87526041600452602487fd5b015190505f80610934565b848c52818c209250601f1984168c5b818110610c035750908460019594939210610beb575b505050811b019055610948565b01515f1960f88460031b161c191690555f8080610bde565b92936020600181928786015181550195019301610bc8565b909150838b5260208b20601f840160051c81019160208510610c61575b90601f859493920160051c01905b818110610c53575061091e565b8c8155849350600101610c46565b9091508190610c38565b634e487b7160e01b8a52604160045260248afd5b015190505f806108df565b848d52818d209250601f1984168d5b818110610cd45750908460019594939210610cbc575b505050811b0190556108f3565b01515f1960f88460031b161c191690555f8080610caf565b92936020600181928786015181550195019301610c99565b909150838c5260208c20601f840160051c81019160208510610d32575b90601f859493920160051c01905b818110610d2457506108c9565b8d8155849350600101610d17565b9091508190610d09565b634e487b7160e01b8b52604160045260248bfd5b81610d5a9161170d565b610d6557815f61078b565b5080fd5b6040513d85823e3d90fd5b610d819192505f9061170d565b5f905f610758565b6040513d5f823e3d90fd5b5f80fd5b634e487b7160e01b5f52604160045260245ffd5b60405162461bcd60e51b81526020600482015260156024820152744d61726b657420616c72656164792065786973747360581b6044820152606490fd5b634e487b7160e01b5f52601160045260245ffd5b60405162461bcd60e51b8152602060048201526016602482015275111d5c985d1a5bdb881b9bdd081cdd5c1c1bdc9d195960521b6044820152606490fd5b60405162461bcd60e51b8152602060048201526016602482015275141c9bdd1bd8dbdb081b9bdd081cdd5c1c1bdc9d195960521b6044820152606490fd5b34610d94575f366003190112610d94576040517f00000000000000000000000000000000000000000000000000000000000000006001600160a01b03168152602090f35b34610d94575f366003190112610d94576001545f805b8281106110625750610ee481611992565b90610ef2604051928361170d565b808252610f01601f1991611992565b013660208301375f915f5b818110610f2157604051806101a0858261178f565b610f2a816116ac565b90546040516318cbe5db60e11b815260039290921b1c6001600160a01b031690602081600481855afa908115610d89575f91611031575b504211159081610fd2575b50610f7a575b600101610f0c565b92610f84846116ac565b9054845160039290921b1c6001600160a01b031690821015610fbe5781610fb691602060019460051b870101526119c1565b939050610f72565b634e487b7160e01b5f52603260045260245ffd5b604051633f6fa65560e01b81529150602090829060049082905afa908115610d89575f91611003575b501585610f6c565b611024915060203d811161102a575b61101c818361170d565b8101906119a9565b85610ffb565b503d611012565b90506020813d821161105a575b8161104b6020938361170d565b81010312610d94575186610f61565b3d915061103e565b61106b816116ac565b90546040516318cbe5db60e11b815260039290921b1c6001600160a01b031690602081600481855afa908115610d89575f9161111e575b5042111590816110cf575b506110bb575b600101610ed3565b906110c76001916119c1565b9190506110b3565b604051633f6fa65560e01b81529150602090829060049082905afa908115610d89575f91611100575b5015846110ad565b611118915060203d811161102a5761101c818361170d565b846110f8565b90506020813d8211611147575b816111386020938361170d565b81010312610d945751856110a2565b3d915061112b565b34610d94576020366003190112610d94576004355f525f60205260405f2060018060a01b0381541660018060a01b036001830154169161123a60018060a01b0360028301541691604051906111ab82610298816003850161182d565b604051916111c0836102bb816004860161182d565b61122260058301549361121460068501549360ff6008604051976111eb89610302816007850161182d565b015416986040519b8c9b8c5260208c015260408b015261012060608b01526101208a01906117d1565b9088820360808a01526117d1565b9260a087015260c086015284820360e08601526117d1565b9015156101008301520390f35b34610d94576040366003190112610d94576024356004355f52600360205260405f208054821015610d9457602091610119916116dc565b34610d94575f366003190112610d94576040518060206005549283815201809260055f527f036b6384b5eca791c62761152d0c79bb0604c104a5fb6f4eb0703f3154bb3db0905f5b81811061131e57505050816112dc91038261170d565b604051918291602083019060208452518091526040830191905f5b818110611305575050500390f35b82518452859450602093840193909201916001016112f7565b82548452602090930192600192830192016112c6565b34610d94576020366003190112610d9457600435600454811015610d945761135b906116c4565b6113905761137561137c6101a0926040519283809261182d565b038261170d565b6040519182916020835260208301906117d1565b634e487b7160e01b5f525f60045260245ffd5b34610d94576020366003190112610d94576004355f52600360205260405f206040519081602082549182815201915f5260205f20905f5b8181106113f1576101a0856101948187038261170d565b82546001600160a01b03168452602090930192600192830192016113da565b34610d94575f366003190112610d945760045461142c81611992565b9061143a604051928361170d565b80825260208201908160045f527f8a35acfbc15ff81a39ae7d344fd709f28e8600b4aa8c65c6b64bfe7fe36bd19b5f915b8383106114d857848660405191829160208301906020845251809152604083019060408160051b85010192915f905b8282106114a957505050500390f35b919360019193955060206114c88192603f198a820301865288516117d1565b960192019201859493919261149a565b6001602081926040516114ef81611375818961182d565b81520192019201919061146b565b34610d94576020366003190112610d9457600435600154811015610d94576101196020916116ac565b34610d94576020366003190112610d94576004356001600160401b038111610d945761156061155b6020923690600401611749565b611947565b6040519015158152f35b34610d94575f366003190112610d94576040517f00000000000000000000000000000000000000000000000000000000000000006001600160a01b03168152602090f35b34610d94576020366003190112610d94576004356001600160401b038111610d94576115e16115ed913690600401611749565b604051918291826118df565b0390206040519081602082549182815201915f5260205f20905f5b81811061161f576101a0856101948187038261170d565b82546001600160a01b0316845260209093019260019283019201611608565b34610d94576020366003190112610d9457600435600554811015610d9457611667602091611694565b90549060031b1c604051908152f35b34610d94576020366003190112610d9457602061156060043561190d565b600554811015610fbe5760055f5260205f2001905f90565b600154811015610fbe5760015f5260205f2001905f90565b600454811015610fbe5760045f5260205f2001905f90565b8054821015610fbe575f5260205f2001905f90565b61012081019081106001600160401b03821117610d9857604052565b90601f801991011681019081106001600160401b03821117610d9857604052565b6001600160401b038111610d9857601f01601f191660200190565b81601f82011215610d94578035906117608261172e565b9261176e604051948561170d565b82845260208383010111610d9457815f926020809301838601378301015290565b60206040818301928281528451809452019201905f5b8181106117b25750505090565b82516001600160a01b03168452602093840193909201916001016117a5565b805180835260209291819084018484015e5f828201840152601f01601f1916010190565b90600182811c92168015611823575b602083101461180f57565b634e487b7160e01b5f52602260045260245ffd5b91607f1691611804565b5f929181549161183c836117f5565b8083529260018116908115611891575060011461185857505050565b5f9081526020812093945091925b838310611877575060209250010190565b600181602092949394548385870101520191019190611866565b915050602093945060ff929192191683830152151560051b010190565b6040600319820112610d9457600435906001600160401b038211610d94576118d891600401611749565b9060243590565b602091908291805192839101825e01600281520190565b60209291908391805192839101825e019081520190565b600554905f5b828110611921575050505f90565b8161192b82611694565b90549060031b1c1461193f57600101611913565b505050600190565b600454905f5b82811061195b575050505f90565b61137561197761196a836116c4565b506040519283809261182d565b60208151910120825160208401201461193f5760010161194d565b6001600160401b038111610d985760051b60200190565b90816020910312610d9457518015158103610d945790565b5f198114610de95760010190565b8054600160401b811015610d98576119ec916001820181556116dc565b81546001600160a01b0393841660039290921b91821b9390911b1916919091179055565b9291611a3a604091611a2c6001946060885260608801906117d1565b9086820360208801526117d1565b930152565b8015611ae4575f81805b611ad05750611a578161172e565b90611a65604051928361170d565b808252601f19611a748261172e565b013660208401375b80928015611ac9575f198201918211610de9578193600a82066030019283603011610de95784511115610fbe57600a9260f81b6001600160f81b0319165f1a908401601f01530491611a7c565b5050905090565b90611adc600a916119c1565b910480611a49565b50604051611af360408261170d565b60018152600360fc1b60208201529056fe60806040523461034857610d69803803806100198161034c565b9283398101906060818303126103485780516001600160401b0381116103485782610045918301610371565b60208201519092906001600160401b03811161034857604091610069918401610371565b9101516001600160a01b03811690819003610348576002805460ff1916601217905582516001600160401b03811161025c575f54600181811c9116801561033e575b602082101461023e57601f81116102dc575b506020601f821160011461027b57819293945f92610270575b50508160011b915f199060031b1c1916175f555b81516001600160401b03811161025c57600154600181811c91168015610252575b602082101461023e57601f81116101db575b50602092601f821160011461017a57928192935f9261016f575b50508160011b915f199060031b1c1916176001555b600480546001600160a01b0319169190911790556040516109a690816103c38239f35b015190505f80610137565b601f1982169360015f52805f20915f5b8681106101c357508360019596106101ab575b505050811b0160015561014c565b01515f1960f88460031b161c191690555f808061019d565b9192602060018192868501518155019401920161018a565b60015f527fb10e2d527612073b26eecdfd717e6a320cf44b4afac2b0732d9fcbe2b7fa0cf6601f830160051c81019160208410610234575b601f0160051c01905b818110610229575061011d565b5f815560010161021c565b9091508190610213565b634e487b7160e01b5f52602260045260245ffd5b90607f169061010b565b634e487b7160e01b5f52604160045260245ffd5b015190505f806100d6565b601f198216905f8052805f20915f5b8181106102c4575095836001959697106102ac575b505050811b015f556100ea565b01515f1960f88460031b161c191690555f808061029f565b9192602060018192868b01518155019401920161028a565b5f80527f290decd9548b62a8d60345a988386fc84ba6bc95484008f6362f93160ef3e563601f830160051c81019160208410610334575b601f0160051c01905b81811061032957506100bd565b5f815560010161031c565b9091508190610313565b90607f16906100ab565b5f80fd5b6040519190601f01601f191682016001600160401b0381118382101761025c57604052565b81601f82011215610348578051906001600160401b03821161025c576103a0601f8301601f191660200161034c565b928284526020838301011161034857815f9260208093018386015e830101529056fe60806040526004361015610011575f80fd5b5f3560e01c806306fdde03146106bb578063095ea7b31461064257806318160ddd1461062557806323b872dd14610503578063313ce567146104e357806340c10f191461041a5780636dcea85f1461034057806370a082311461030857806379cc67901461019b57806380f55605146102e057806395d89b41146101c25780639dc29fac1461019b578063a9059cbb146101075763dd62ed3e146100b3575f80fd5b34610103576040366003190112610103576100cc6107b7565b6100d46107cd565b6001600160a01b039182165f908152600660209081526040808320949093168252928352819020549051908152f35b5f80fd5b34610103576040366003190112610103576101206107b7565b60243590335f52600560205261013c8260405f205410156107e3565b335f52600560205260405f20610153838254610826565b905560018060a01b031690815f52600560205260405f20610175828254610847565b90556040519081525f5160206109515f395f51905f5260203392a3602060405160018152f35b34610103576040366003190112610103576101c06101b76107b7565b60243590610897565b005b34610103575f366003190112610103576040515f6001548060011c906001811680156102d6575b6020831081146102c2578285529081156102a65750600114610250575b50819003601f01601f191681019067ffffffffffffffff82118183101761023c5760408290528190610238908261078d565b0390f35b634e487b7160e01b5f52604160045260245ffd5b60015f9081529091507fb10e2d527612073b26eecdfd717e6a320cf44b4afac2b0732d9fcbe2b7fa0cf65b82821061029057506020915082010182610206565b600181602092548385880101520191019061027b565b90506020925060ff191682840152151560051b82010182610206565b634e487b7160e01b5f52602260045260245ffd5b91607f16916101e9565b34610103575f366003190112610103576004546040516001600160a01b039091168152602090f35b34610103576020366003190112610103576001600160a01b036103296107b7565b165f526005602052602060405f2054604051908152f35b34610103576020366003190112610103576103596107b7565b600454906001600160a01b038216801590811561040f575b50156103d5576001600160a01b0316908115610397576001600160a01b03191617600455005b60405162461bcd60e51b8152602060048201526016602482015275496e76616c6964206d61726b6574206164647265737360501b6044820152606490fd5b60405162461bcd60e51b815260206004820152601260248201527113585c9ad95d08185b1c9958591e481cd95d60721b6044820152606490fd5b600191501483610371565b34610103576040366003190112610103576104336107b7565b6024359061044c60018060a01b03600454163314610854565b6001600160a01b031690811561049e575f5160206109515f395f51905f5260205f928484526005825260408420610484828254610847565b905561049281600354610847565b600355604051908152a3005b60405162461bcd60e51b815260206004820152601b60248201527f43616e6e6f74206d696e7420746f207a65726f206164647265737300000000006044820152606490fd5b34610103575f36600319011261010357602060ff60025416604051908152f35b346101035760603660031901126101035761051c6107b7565b6105246107cd565b6044359160018060a01b031690815f5260056020526105498360405f205410156107e3565b5f82815260066020908152604080832033845290915290205483116105e75760205f5160206109515f395f51905f5291835f526005825260405f2061058f868254610826565b905560018060a01b031693845f526005825260405f206105b0828254610847565b90555f8481526006835260408082203383528452902080546105d3908390610826565b9055604051908152a3602060405160018152f35b60405162461bcd60e51b8152602060048201526016602482015275496e73756666696369656e7420616c6c6f77616e636560501b6044820152606490fd5b34610103575f366003190112610103576020600354604051908152f35b346101035760403660031901126101035761065b6107b7565b335f8181526006602090815260408083206001600160a01b03909516808452948252918290206024359081905591519182527f8c5be1e5ebec7d5bd14f71427d1e84f3dd0314c0f7b2291e5b200ac8c7c3b92591a3602060405160018152f35b34610103575f366003190112610103576040515f5f548060011c90600181168015610783575b6020831081146102c2578285529081156102a6575060011461072f5750819003601f01601f191681019067ffffffffffffffff82118183101761023c5760408290528190610238908261078d565b5f8080529091507f290decd9548b62a8d60345a988386fc84ba6bc95484008f6362f93160ef3e5635b82821061076d57506020915082010182610206565b6001816020925483858801015201910190610758565b91607f16916106e1565b602060409281835280519182918282860152018484015e5f828201840152601f01601f1916010190565b600435906001600160a01b038216820361010357565b602435906001600160a01b038216820361010357565b156107ea57565b60405162461bcd60e51b8152602060048201526014602482015273496e73756666696369656e742062616c616e636560601b6044820152606490fd5b9190820391821161083357565b634e487b7160e01b5f52601160045260245ffd5b9190820180921161083357565b1561085b57565b60405162461bcd60e51b815260206004820152601460248201527313db9b1e481b585c9ad95d0818d85b8818d85b1b60621b6044820152606490fd5b6108ac60018060a01b03600454163314610854565b6001600160a01b03165f81815260056020526040902054821161090b575f5160206109515f395f51905f5260205f9383855260058252604085206108f1828254610826565b90556108ff81600354610826565b600355604051908152a3565b60405162461bcd60e51b815260206004820152601c60248201527f496e73756666696369656e742062616c616e636520746f206275726e000000006044820152606490fdfeddf252ad1be2c89b69c2b068fc378daa952ba7f163c4a11628f55a4df523b3efa2646970667358221220de0c408fc376e0e68be38e6c7a67d4271819f7f258441970ebc94e588fc396bc64736f6c634300081c0033610100604052346105da576122308038038061001a816105de565b9283398101610100828203126105da5761003382610603565b602083015192906001600160a01b03841684036105da5761005660408301610603565b61006260608401610603565b60808401519091906001600160401b0381116105da5785610084918601610617565b60a08501519096906001600160401b0381116105da57866100a6918701610617565b60c08601519096906001600160401b0381116105da5760e0916100ca918801610617565b9501516001600160a01b0394851660805260a09190915290831660c052911660e05283516001600160401b038111610413575f54600181811c911680156105d0575b60208210146103f557601f811161056e575b50602094601f821160011461050d579481929394955f92610502575b50508160011b915f199060031b1c1916175f555b82516001600160401b03811161041357600154600181811c911680156104f8575b60208210146103f557601f8111610495575b506020601f821160011461043257819293945f92610427575b50508160011b915f199060031b1c1916176001555b81516001600160401b03811161041357600254600181811c91168015610409575b60208210146103f557601f8111610392575b50602092601f821160011461033157928192935f92610326575b50508160011b915f199060031b1c1916176002555b620151808102908082046201518014901517156103125742018042116103125760035569d3c21bcecceda100000060045569d3c21bcecceda100000060055573af298d050e4395d69670b12b7f41000000000000600655604051611bc79081610669823960805181818161020101528181610a4a01528181610d8a015281816111730152818161139e01526114fc015260a0518181816105f70152818161081501528181610f2c01526111f4015260c05181818161027b015281816103be015281816109d501528181610fe20152818161156801526119f2015260e051818181610b5801528181610dfa01528181611038015281816114590152611afe0152f35b634e487b7160e01b5f52601160045260245ffd5b015190505f806101fc565b601f1982169360025f52805f20915f5b86811061037a5750836001959610610362575b505050811b01600255610211565b01515f1960f88460031b161c191690555f8080610354565b91926020600181928685015181550194019201610341565b60025f527f405787fa12a823e0f2b7631cc41b3ba8828b3321ca811111fa75cd3aa3bb5ace601f830160051c810191602084106103eb575b601f0160051c01905b8181106103e057506101e2565b5f81556001016103d3565b90915081906103ca565b634e487b7160e01b5f52602260045260245ffd5b90607f16906101d0565b634e487b7160e01b5f52604160045260245ffd5b015190505f8061019a565b601f1982169060015f52805f20915f5b81811061047d57509583600195969710610465575b505050811b016001556101af565b01515f1960f88460031b161c191690555f8080610457565b9192602060018192868b015181550194019201610442565b60015f527fb10e2d527612073b26eecdfd717e6a320cf44b4afac2b0732d9fcbe2b7fa0cf6601f830160051c810191602084106104ee575b601f0160051c01905b8181106104e35750610181565b5f81556001016104d6565b90915081906104cd565b90607f169061016f565b015190505f8061013a565b601f198216955f8052805f20915f5b8881106105565750836001959697981061053e575b505050811b015f5561014e565b01515f1960f88460031b161c191690555f8080610531565b9192602060018192868501518155019401920161051c565b5f80527f290decd9548b62a8d60345a988386fc84ba6bc95484008f6362f93160ef3e563601f830160051c810191602084106105c6575b601f0160051c01905b8181106105bb575061011e565b5f81556001016105ae565b90915081906105a5565b90607f169061010c565b5f80fd5b6040519190601f01601f191682016001600160401b0381118382101761041357604052565b51906001600160a01b03821682036105da57565b81601f820112156105da578051906001600160401b03821161041357610646601f8301601f19166020016105de565b92828452602083830101116105da57815f9260208093018386015e830101529056fe6080806040526004361015610012575f80fd5b5f905f3560e01c908163054f7d9c1461161157508063061dd98d1461148857806311a9f10a1461144357806312b01b161461142857806329e2a741146114095780633197cbb6146113eb57806331b7d413146113cd5780633e413bee146113885780633f6fa655146113655780633fad9ae0146112c75780634b339c0d146111ce57806358c36e5c146110ff5780635b7c2dad14610f9d57806373b2e80e14610f5b5780637dc0d1d014610f1657806385c8bd6d14610ef15780638779086f14610ed657806394677ba614610d1c578063997aa8e014610cfe578063a877933f14610cbf578063aaf5eb6814610c9c578063b401faf11461094c578063b4f40c611461092e578063c390bd30146107e1578063c573b731146107ba578063c580f7371461079c578063cbee38dc14610776578063d816574314610704578063df2e5066146105d1578063e1eb0600146105b3578063e567e869146104f6578063ef430aa6146103ed578063f0d9bb20146103a85763f191dd3214610194575f80fd5b346103a5576101a236611693565b60095460ff8116159081610396575b508061038b575b6101c1906116a9565b6101d0620f42408310156116e7565b6040516323b872dd60e01b815233600482015230602482015260448101839052602081606481876001600160a01b037f0000000000000000000000000000000000000000000000000000000000000000165af180156103805761023a918591610351575b5061174b565b61024f61024683611863565b91821015611942565b61025a811515611789565b610266816004546117c5565b600455610275826005546117e6565b600555827f00000000000000000000000000000000000000000000000000000000000000006001600160a01b0316803b1561034d576040516340c10f1960e01b8152336004820152602481018490529082908290604490829084905af1801561034257610329575b50506102eb826007546117e6565b6007556040519160018352602083015260408201527f54b3dbdef11dba5c2d31f70f348a70ca0f7fc83fce4f7f1db955a9df2f63934c60603392a280f35b8161033391611633565b61033e57825f6102dd565b8280fd5b6040513d84823e3d90fd5b5080fd5b610373915060203d602011610379575b61036b8183611633565b810190611733565b5f610234565b503d610361565b6040513d86823e3d90fd5b5060035442106101b8565b60ff915060101c16155f6101b1565b80fd5b50346103a557806003193601126103a5576040517f00000000000000000000000000000000000000000000000000000000000000006001600160a01b03168152602090f35b50346103a557806003193601126103a5576040519080600254908160011c916001811680156104ec575b6020841081146104d8578386529081156104b15750600114610454575b6104508461044481860382611633565b60405191829182611669565b0390f35b600281527f405787fa12a823e0f2b7631cc41b3ba8828b3321ca811111fa75cd3aa3bb5ace939250905b8082106104975750909150810160200161044482610434565b91926001816020925483858801015201910190929161047e565b60ff191660208087019190915292151560051b850190920192506104449150839050610434565b634e487b7160e01b83526022600452602483fd5b92607f1692610417565b50346103a557806003193601126103a5576040519080600154908160011c916001811680156105a9575b6020841081146104d8578386529081156104b1575060011461054c576104508461044481860382611633565b600181527fb10e2d527612073b26eecdfd717e6a320cf44b4afac2b0732d9fcbe2b7fa0cf6939250905b80821061058f5750909150810160200161044482610434565b919260018160209254838588010152019101909291610576565b92607f1692610520565b50346103a557806003193601126103a5576020600554604051908152f35b50346103a557806003193601126103a557604051636a51ce3760e01b81523060048201527f00000000000000000000000000000000000000000000000000000000000000006001600160a01b0316602082602481845afa9081156106f9576106479284926106d8575b50816106ce575b50611885565b60095460ff8160101c16610698578061066760ff620100009316156118bf565b62ff00001916176009557fb2ce2a931a2019b6f6fecebbc5e97d79e45042a5268af05c1cad2760b3be40548180a180f35b60405162461bcd60e51b815260206004820152600e60248201526d20b63932b0b23c90333937bd32b760911b6044820152606490fd5b905033145f610641565b6106f291925060203d6020116103795761036b8183611633565b905f61063a565b6040513d85823e3d90fd5b50346103a557806003193601126103a55761010060045460ff60055461072861190b565b610730611824565b60075491600954936040519687526020870152604086015260608501526080840152818116151560a0840152818160081c16151560c084015260101c16151560e0820152f35b50346103a557806003193601126103a557602060ff60095460081c166040519015158152f35b50346103a557806003193601126103a5576020600754604051908152f35b50346103a55760203660031901126103a55760206107d9600435611b77565b604051908152f35b50346103a55760203660031901126103a55760043580151580910361034d57604051636a51ce3760e01b81523060048201527f00000000000000000000000000000000000000000000000000000000000000006001600160a01b0316602082602481845afa908115610380576108639285926106d85750816106ce5750611885565b60095460ff81166108f65760035442106108bb5761ffff1916600882901b61ff0016176001176009556040519081527ff528f3b02f5c2503827fc677c9d0cb54ffbf11ed32cb659f73243b70dea7cf0e90602090a180f35b60405162461bcd60e51b81526020600482015260136024820152724d61726b6574207374696c6c2061637469766560681b6044820152606490fd5b60405162461bcd60e51b815260206004820152601060248201526f105b1c9958591e481c995cdbdb1d995960821b6044820152606490fd5b50346103a557806003193601126103a5576020600654604051908152f35b50346103a557806003193601126103a55760ff6009541661096c81611982565b338252600860205260ff604083205416610c655761098990611982565b610992336119c4565b8015610c3257338252600860205260408220600160ff1982541617905560ff60095460081c165f14610b41576040516370a0823160e01b815233600482015282907f00000000000000000000000000000000000000000000000000000000000000006001600160a01b0316602082602481845afa9182156106f9578392610b06575b5081610ab1575b5050505b60405163a9059cbb60e01b815233600482015260248101829052602081604481866001600160a01b037f0000000000000000000000000000000000000000000000000000000000000000165af180156106f957610a82918491610351575061174b565b6040519081527f1a31e733a172afcf46074b3106c17f0c298e226442682a03c1e99ce256139ec260203392a280f35b803b1561033e57604051632770a7eb60e21b8152336004820152602481019290925282908290604490829084905af1801561034257610af1575b80610a1b565b81610afb91611633565b61034d57815f610aeb565b925090506020823d602011610b39575b81610b2360209383611633565b81010312610b3557839151905f610a14565b5f80fd5b3d9150610b16565b6040516370a0823160e01b815233600482015282907f00000000000000000000000000000000000000000000000000000000000000006001600160a01b0316602082602481845afa9182156106f9578392610bfb575b5081610ba6575b505050610a1f565b803b1561033e57604051632770a7eb60e21b8152336004820152602481019290925282908290604490829084905af1801561034257610be6575b80610b9e565b81610bf091611633565b61034d57815f610be0565b925090506020823d602011610c2a575b81610c1860209383611633565b81010312610b3557839151905f610b97565b3d9150610c0b565b60405162461bcd60e51b815260206004820152600b60248201526a4e6f2077696e6e696e677360a81b6044820152606490fd5b60405162461bcd60e51b815260206004820152600f60248201526e105b1c9958591e4818db185a5b5959608a1b6044820152606490fd5b50346103a557806003193601126103a5576020604051670de0b6b3a76400008152f35b50346103a55760203660031901126103a557600435906001600160a01b03821682036103a55760206107d983610cf960ff60095416611982565b6119c4565b50346103a557806003193601126103a5576020600454604051908152f35b50346103a557610d2b36611693565b60095460ff8116159081610ec7575b5080610ebc575b610d4a906116a9565b610d59620f42408310156116e7565b6040516323b872dd60e01b815233600482015230602482015260448101839052602081606481876001600160a01b037f0000000000000000000000000000000000000000000000000000000000000000165af1801561038057610dc2918591610351575061174b565b610dce61024683611b77565b610dd9811515611789565b610de5816005546117c5565b600555610df4826004546117e6565b600455827f00000000000000000000000000000000000000000000000000000000000000006001600160a01b0316803b1561034d576040516340c10f1960e01b8152336004820152602481018490529082908290604490829084905af1801561034257610ea7575b5050610e6a826007546117e6565b60075560405191838352602083015260408201527f54b3dbdef11dba5c2d31f70f348a70ca0f7fc83fce4f7f1db955a9df2f63934c60603392a280f35b81610eb191611633565b61033e57825f610e5c565b506003544210610d41565b60ff915060101c16155f610d3a565b50346103a557806003193601126103a55760206107d961190b565b50346103a557806003193601126103a557602060405169d3c21bcecceda10000008152f35b50346103a557806003193601126103a5576040517f00000000000000000000000000000000000000000000000000000000000000006001600160a01b03168152602090f35b50346103a55760203660031901126103a5576004356001600160a01b0381169081900361034d5760408260ff9260209452600884522054166040519015158152f35b50346103a55760203660031901126103a5576004356001600160a01b03811691908290036103a5576040516370a0823160e01b815260048101839052906020826024817f00000000000000000000000000000000000000000000000000000000000000006001600160a01b03165afa9182156110f25781926110be575b506040516370a0823160e01b815260048101939093526020836024817f00000000000000000000000000000000000000000000000000000000000000006001600160a01b03165afa9081156110b2579061107f575b6040809350519182526020820152f35b506020823d6020116110aa575b8161109960209383611633565b81010312610b35576040915161106f565b3d915061108c565b604051903d90823e3d90fd5b9091506020813d6020116110ea575b816110da60209383611633565b81010312610b355751905f61101a565b3d91506110cd565b50604051903d90823e3d90fd5b50346103a55760203660031901126103a55760043560095460ff81161590816111bf575b50806111b4575b611133906116a9565b611142620f42408210156116e7565b6040516323b872dd60e01b815233600482015230602482015260448101829052602081606481866001600160a01b037f0000000000000000000000000000000000000000000000000000000000000000165af180156106f9576111ab918491610351575061174b565b610dce81611b77565b50600354421061112a565b60ff915060101c16155f611123565b50346103a557806003193601126103a557604051636a51ce3760e01b81523060048201527f00000000000000000000000000000000000000000000000000000000000000006001600160a01b0316602082602481845afa9081156106f9576112429284926106d85750816106ce5750611885565b60095460ff8160101c161561128e5761125e60ff8216156118bf565b62ff000019166009557fec33a40c16cb54a3aa8055d187508a1746f48ece03ec43ef4428c99f618ffca28180a180f35b60405162461bcd60e51b815260206004820152601160248201527026b0b935b2ba103737ba10333937bd32b760791b6044820152606490fd5b50346103a557806003193601126103a55760405190808054908160011c9160018116801561135b575b6020841081146104d8578386529081156104b1575060011461131c576104508461044481860382611633565b80805260208120939250905b8082106113415750909150810160200161044482610434565b919260018160209254838588010152019101909291611328565b92607f16926112f0565b50346103a557806003193601126103a557602060ff600954166040519015158152f35b50346103a557806003193601126103a5576040517f00000000000000000000000000000000000000000000000000000000000000006001600160a01b03168152602090f35b50346103a557806003193601126103a5576020604051620f42408152f35b50346103a557806003193601126103a5576020600354604051908152f35b50346103a55760203660031901126103a55760206107d9600435611863565b50346103a557806003193601126103a55760206107d9611824565b50346103a557806003193601126103a5576040517f00000000000000000000000000000000000000000000000000000000000000006001600160a01b03168152602090f35b5034610b35576020366003190112610b355760043560095460ff8116159081611602575b50806115f7575b6114bc906116a9565b6114cb620f42408210156116e7565b6040516323b872dd60e01b8152336004820152306024820152604481018290526020816064815f6001600160a01b037f0000000000000000000000000000000000000000000000000000000000000000165af180156115ec57611534915f91610351575061174b565b61153d81611863565b611548811515611789565b611554816004546117c5565b600455611563826005546117e6565b6005557f00000000000000000000000000000000000000000000000000000000000000006001600160a01b0316803b15610b35576040516340c10f1960e01b815233600482015260248101839052905f908290604490829084905af180156115ec576115d7575b506102eb826007546117e6565b6115e49193505f90611633565b5f915f6115ca565b6040513d5f823e3d90fd5b5060035442106114b3565b60ff915060101c16155f6114ac565b34610b35575f366003190112610b355760209060ff60095460101c1615158152f35b90601f8019910116810190811067ffffffffffffffff82111761165557604052565b634e487b7160e01b5f52604160045260245ffd5b602060409281835280519182918282860152018484015e5f828201840152601f01601f1916010190565b6040906003190112610b35576004359060243590565b156116b057565b60405162461bcd60e51b815260206004820152600f60248201526e4d61726b657420696e61637469766560881b6044820152606490fd5b156116ee57565b60405162461bcd60e51b815260206004820152601a60248201527f42656c6f77206d696e696d756d20747261646520616d6f756e740000000000006044820152606490fd5b90816020910312610b3557518015158103610b355790565b1561175257565b60405162461bcd60e51b815260206004820152600f60248201526e151c985b9cd9995c8819985a5b1959608a1b6044820152606490fd5b1561179057565b60405162461bcd60e51b815260206004820152600d60248201526c139bc81d1bdad95b9cc81bdd5d609a1b6044820152606490fd5b919082039182116117d257565b634e487b7160e01b5f52601160045260245ffd5b919082018092116117d257565b818102929181159184041417156117d257565b8115611810570490565b634e487b7160e01b5f52601260045260245ffd5b600554801561185e5760045490670de0b6b3a7640000820291808304670de0b6b3a764000014901517156117d25761185b91611806565b90565b505f90565b61187d61187561185b926005546117e6565b600654611806565b6004546117c5565b1561188c57565b60405162461bcd60e51b815260206004820152600b60248201526a4f6e6c79206f7261636c6560a81b6044820152606490fd5b156118c657565b60405162461bcd60e51b815260206004820152601760248201527f4d61726b657420616c7265616479207265736f6c7665640000000000000000006044820152606490fd5b600454801561185e5760055490670de0b6b3a7640000820291808304670de0b6b3a764000014901517156117d25761185b91611806565b1561194957565b60405162461bcd60e51b81526020600482015260116024820152700a6d8d2e0e0c2ceca40e8dede40d0d2ced607b1b6044820152606490fd5b1561198957565b60405162461bcd60e51b815260206004820152601360248201527213585c9ad95d081b9bdd081c995cdbdb1d9959606a1b6044820152606490fd5b60095460081c60ff1615611ade576040516370a0823160e01b81526001600160a01b039182166004820152907f000000000000000000000000000000000000000000000000000000000000000016602082602481845afa9182156115ec575f92611aaa575b508115611a72576020600491604051928380926318160ddd60e01b82525afa9081156115ec575f91611a78575b508015611a7257611a6d61185b92600754906117f3565b611806565b50505f90565b90506020813d602011611aa2575b81611a9360209383611633565b81010312610b3557515f611a56565b3d9150611a86565b9091506020813d602011611ad6575b81611ac660209383611633565b81010312610b355751905f611a29565b3d9150611ab9565b6040516370a0823160e01b81526001600160a01b039182166004820152907f000000000000000000000000000000000000000000000000000000000000000016602082602481845afa9182156115ec575f92611aaa57508115611a72576020600491604051928380926318160ddd60e01b82525afa9081156115ec575f91611a7857508015611a7257611a6d61185b92600754906117f3565b611b8961187561185b926004546117e6565b6005546117c556fea26469706673582212208fda6ecb018e2069c5bef6fa40eb7fa954e608d3f6f2ffa1b323a5a4ba39fed264736f6c634300081c0033a264697066735822122036eb00bcd2ba99f672ab8a6b34695cceaa0889211a2d8badaac34d19cb4fc63864736f6c634300081c0033","linkReferences":{}},"methodIdentifiers":{"allMarkets(uint256)":"52d84d1e","deployMarket(string,uint256)":"9ef8e837","getAllActiveMarkets()":"780b7ae2","getAllMarkets()":"b0772d0b","getMarketInfo(string,uint256)":"9f15f2e7","getMarketsByExpiry(uint256)":"533c9a55","getMarketsByProtocol(string)":"3df952d1","getSupportedDurations()":"69d40601","getSupportedProtocols()":"532913a5","isDurationSupported(uint256)":"015157cd","isProtocolSupported(string)":"50924372","markets(bytes32)":"7564912b","marketsByExpiry(uint256,uint256)":"724f9630","marketsByProtocol(string,uint256)":"b29afc96","oracle()":"7dc0d1d0","supportedDurations(uint256)":"0e270b60","supportedProtocols(uint256)":"68e84aef","usdc()":"3e413bee"},"id":27}