{"abi":[{"type":"constructor","inputs":[{"name":"_usdc","type":"address","internalType":"address"},{"name":"_oracle","type":"address","internalType":"contract IOracle"},{"name":"_yesToken","type":"address","internalType":"address"},{"name":"_noToken","type":"address","internalType":"address"},{"name":"_question","type":"string","internalType":"string"},{"name":"_protocolName","type":"string","internalType":"string"},{"name":"_category","type":"string","internalType":"string"},{"name":"_durationInDays","type":"uint256","internalType":"uint256"}],"stateMutability":"nonpayable"},{"type":"function","name":"INITIAL_TOKENS","inputs":[],"outputs":[{"name":"","type":"uint256","internalType":"uint256"}],"stateMutability":"view"},{"type":"function","name":"MIN_TRADE_AMOUNT","inputs":[],"outputs":[{"name":"","type":"uint256","internalType":"uint256"}],"stateMutability":"view"},{"type":"function","name":"PRECISION","inputs":[],"outputs":[{"name":"","type":"uint256","internalType":"uint256"}],"stateMutability":"view"},{"type":"function","name":"buyNo","inputs":[{"name":"usdcAmount","type":"uint256","internalType":"uint256"}],"outputs":[],"stateMutability":"nonpayable"},{"type":"function","name":"buyNoWithSlippage","inputs":[{"name":"usdcAmount","type":"uint256","internalType":"uint256"},{"name":"minTokensOut","type":"uint256","internalType":"uint256"}],"outputs":[],"stateMutability":"nonpayable"},{"type":"function","name":"buyYes","inputs":[{"name":"usdcAmount","type":"uint256","internalType":"uint256"}],"outputs":[],"stateMutability":"nonpayable"},{"type":"function","name":"buyYesWithSlippage","inputs":[{"name":"usdcAmount","type":"uint256","internalType":"uint256"},{"name":"minTokensOut","type":"uint256","internalType":"uint256"}],"outputs":[],"stateMutability":"nonpayable"},{"type":"function","name":"calculatePayout","inputs":[{"name":"user","type":"address","internalType":"address"}],"outputs":[{"name":"","type":"uint256","internalType":"uint256"}],"stateMutability":"view"},{"type":"function","name":"category","inputs":[],"outputs":[{"name":"","type":"string","internalType":"string"}],"stateMutability":"view"},{"type":"function","name":"claimWinnings","inputs":[],"outputs":[],"stateMutability":"nonpayable"},{"type":"function","name":"endTime","inputs":[],"outputs":[{"name":"","type":"uint256","internalType":"uint256"}],"stateMutability":"view"},{"type":"function","name":"freezeMarket","inputs":[],"outputs":[],"stateMutability":"nonpayable"},{"type":"function","name":"frozen","inputs":[],"outputs":[{"name":"","type":"bool","internalType":"bool"}],"stateMutability":"view"},{"type":"function","name":"getMarketState","inputs":[],"outputs":[{"name":"_yesTokens","type":"uint256","internalType":"uint256"},{"name":"_noTokens","type":"uint256","internalType":"uint256"},{"name":"_yesPrice","type":"uint256","internalType":"uint256"},{"name":"_noPrice","type":"uint256","internalType":"uint256"},{"name":"_totalUsdcDeposited","type":"uint256","internalType":"uint256"},{"name":"_resolved","type":"bool","internalType":"bool"},{"name":"_yesWon","type":"bool","internalType":"bool"},{"name":"_frozen","type":"bool","internalType":"bool"}],"stateMutability":"view"},{"type":"function","name":"getNoPrice","inputs":[],"outputs":[{"name":"","type":"uint256","internalType":"uint256"}],"stateMutability":"view"},{"type":"function","name":"getNoTokensOut","inputs":[{"name":"usdcIn","type":"uint256","internalType":"uint256"}],"outputs":[{"name":"","type":"uint256","internalType":"uint256"}],"stateMutability":"view"},{"type":"function","name":"getUserPosition","inputs":[{"name":"user","type":"address","internalType":"address"}],"outputs":[{"name":"yesBalance","type":"uint256","internalType":"uint256"},{"name":"noBalance","type":"uint256","internalType":"uint256"}],"stateMutability":"view"},{"type":"function","name":"getYesPrice","inputs":[],"outputs":[{"name":"","type":"uint256","internalType":"uint256"}],"stateMutability":"view"},{"type":"function","name":"getYesTokensOut","inputs":[{"name":"usdcIn","type":"uint256","internalType":"uint256"}],"outputs":[{"name":"","type":"uint256","internalType":"uint256"}],"stateMutability":"view"},{"type":"function","name":"hasClaimed","inputs":[{"name":"","type":"address","internalType":"address"}],"outputs":[{"name":"","type":"bool","internalType":"bool"}],"stateMutability":"view"},{"type":"function","name":"k","inputs":[],"outputs":[{"name":"","type":"uint256","internalType":"uint256"}],"stateMutability":"view"},{"type":"function","name":"noToken","inputs":[],"outputs":[{"name":"","type":"address","internalType":"contract PredictionToken"}],"stateMutability":"view"},{"type":"function","name":"noTokens","inputs":[],"outputs":[{"name":"","type":"uint256","internalType":"uint256"}],"stateMutability":"view"},{"type":"function","name":"oracle","inputs":[],"outputs":[{"name":"","type":"address","internalType":"contract IOracle"}],"stateMutability":"view"},{"type":"function","name":"protocolName","inputs":[],"outputs":[{"name":"","type":"string","internalType":"string"}],"stateMutability":"view"},{"type":"function","name":"question","inputs":[],"outputs":[{"name":"","type":"string","internalType":"string"}],"stateMutability":"view"},{"type":"function","name":"resolveMarket","inputs":[{"name":"_yesWon","type":"bool","internalType":"bool"}],"outputs":[],"stateMutability":"nonpayable"},{"type":"function","name":"resolved","inputs":[],"outputs":[{"name":"","type":"bool","internalType":"bool"}],"stateMutability":"view"},{"type":"function","name":"totalUsdcDeposited","inputs":[],"outputs":[{"name":"","type":"uint256","internalType":"uint256"}],"stateMutability":"view"},{"type":"function","name":"unfreezeMarket","inputs":[],"outputs":[],"stateMutability":"nonpayable"},{"type":"function","name":"usdc","inputs":[],"outputs":[{"name":"","type":"address","internalType":"contract IERC20"}],"stateMutability":"view"},{"type":"function","name":"yesToken","inputs":[],"outputs":[{"name":"","type":"address","internalType":"contract PredictionToken"}],"stateMutability":"view"},{"type":"function","name":"yesTokens","inputs":[],"outputs":[{"name":"","type":"uint256","internalType":"uint256"}],"stateMutability":"view"},{"type":"function","name":"yesWon","inputs":[],"outputs":[{"name":"","type":"bool","internalType":"bool"}],"stateMutability":"view"},{"type":"event","name":"MarketFrozen","inputs":[],"anonymous":false},{"type":"event","name":"MarketResolved","inputs":[{"name":"yesWon","type":"bool","indexed":false,"internalType":"bool"}],"anonymous":false},{"type":"event","name":"MarketUnfrozen","inputs":[],"anonymous":false},{"type":"event","name":"TokensPurchased","inputs":[{"name":"user","type":"address","indexed":true,"internalType":"address"},{"name":"isYes","type":"bool","indexed":false,"internalType":"bool"},{"name":"usdcAmount","type":"uint256","indexed":false,"internalType":"uint256"},{"name":"tokensReceived","type":"uint256","indexed":false,"internalType":"uint256"}],"anonymous":false},{"type":"event","name":"WinningsClaimed","inputs":[{"name":"user","type":"address","indexed":true,"internalType":"address"},{"name":"amount","type":"uint256","indexed":false,"internalType":"uint256"}],"anonymous":false}],"bytecode":{"object":"0x610100604052346105da576122308038038061001a816105de565b9283398101610100828203126105da5761003382610603565b602083015192906001600160a01b03841684036105da5761005660408301610603565b61006260608401610603565b60808401519091906001600160401b0381116105da5785610084918601610617565b60a08501519096906001600160401b0381116105da57866100a6918701610617565b60c08601519096906001600160401b0381116105da5760e0916100ca918801610617565b9501516001600160a01b0394851660805260a09190915290831660c052911660e05283516001600160401b038111610413575f54600181811c911680156105d0575b60208210146103f557601f811161056e575b50602094601f821160011461050d579481929394955f92610502575b50508160011b915f199060031b1c1916175f555b82516001600160401b03811161041357600154600181811c911680156104f8575b60208210146103f557601f8111610495575b506020601f821160011461043257819293945f92610427575b50508160011b915f199060031b1c1916176001555b81516001600160401b03811161041357600254600181811c91168015610409575b60208210146103f557601f8111610392575b50602092601f821160011461033157928192935f92610326575b50508160011b915f199060031b1c1916176002555b620151808102908082046201518014901517156103125742018042116103125760035569d3c21bcecceda100000060045569d3c21bcecceda100000060055573af298d050e4395d69670b12b7f41000000000000600655604051611bc79081610669823960805181818161020101528181610a4a01528181610d8a015281816111730152818161139e01526114fc015260a0518181816105f70152818161081501528181610f2c01526111f4015260c05181818161027b015281816103be015281816109d501528181610fe20152818161156801526119f2015260e051818181610b5801528181610dfa01528181611038015281816114590152611afe0152f35b634e487b7160e01b5f52601160045260245ffd5b015190505f806101fc565b601f1982169360025f52805f20915f5b86811061037a5750836001959610610362575b505050811b01600255610211565b01515f1960f88460031b161c191690555f8080610354565b91926020600181928685015181550194019201610341565b60025f527f405787fa12a823e0f2b7631cc41b3ba8828b3321ca811111fa75cd3aa3bb5ace601f830160051c810191602084106103eb575b601f0160051c01905b8181106103e057506101e2565b5f81556001016103d3565b90915081906103ca565b634e487b7160e01b5f52602260045260245ffd5b90607f16906101d0565b634e487b7160e01b5f52604160045260245ffd5b015190505f8061019a565b601f1982169060015f52805f20915f5b81811061047d57509583600195969710610465575b505050811b016001556101af565b01515f1960f88460031b161c191690555f8080610457565b9192602060018192868b015181550194019201610442565b60015f527fb10e2d527612073b26eecdfd717e6a320cf44b4afac2b0732d9fcbe2b7fa0cf6601f830160051c810191602084106104ee575b601f0160051c01905b8181106104e35750610181565b5f81556001016104d6565b90915081906104cd565b90607f169061016f565b015190505f8061013a565b601f198216955f8052805f20915f5b8881106105565750836001959697981061053e575b505050811b015f5561014e565b01515f1960f88460031b161c191690555f8080610531565b9192602060018192868501518155019401920161051c565b5f80527f290decd9548b62a8d60345a988386fc84ba6bc95484008f6362f93160ef3e563601f830160051c810191602084106105c6575b601f0160051c01905b8181106105bb575061011e565b5f81556001016105ae565b90915081906105a5565b90607f169061010c565b5f80fd5b6040519190601f01601f191682016001600160401b0381118382101761041357604052565b51906001600160a01b03821682036105da57565b81601f820112156105da578051906001600160401b03821161041357610646601f8301601f19166020016105de565b92828452602083830101116105da57815f9260208093018386015e830101529056fe6080806040526004361015610012575f80fd5b5f905f3560e01c908163054f7d9c1461161157508063061dd98d1461148857806311a9f10a1461144357806312b01b161461142857806329e2a741146114095780633197cbb6146113eb57806331b7d413146113cd5780633e413bee146113885780633f6fa655146113655780633fad9ae0146112c75780634b339c0d146111ce57806358c36e5c146110ff5780635b7c2dad14610f9d57806373b2e80e14610f5b5780637dc0d1d014610f1657806385c8bd6d14610ef15780638779086f14610ed657806394677ba614610d1c578063997aa8e014610cfe578063a877933f14610cbf578063aaf5eb6814610c9c578063b401faf11461094c578063b4f40c611461092e578063c390bd30146107e1578063c573b731146107ba578063c580f7371461079c578063cbee38dc14610776578063d816574314610704578063df2e5066146105d1578063e1eb0600146105b3578063e567e869146104f6578063ef430aa6146103ed578063f0d9bb20146103a85763f191dd3214610194575f80fd5b346103a5576101a236611693565b60095460ff8116159081610396575b508061038b575b6101c1906116a9565b6101d0620f42408310156116e7565b6040516323b872dd60e01b815233600482015230602482015260448101839052602081606481876001600160a01b037f0000000000000000000000000000000000000000000000000000000000000000165af180156103805761023a918591610351575b5061174b565b61024f61024683611863565b91821015611942565b61025a811515611789565b610266816004546117c5565b600455610275826005546117e6565b600555827f00000000000000000000000000000000000000000000000000000000000000006001600160a01b0316803b1561034d576040516340c10f1960e01b8152336004820152602481018490529082908290604490829084905af1801561034257610329575b50506102eb826007546117e6565b6007556040519160018352602083015260408201527f54b3dbdef11dba5c2d31f70f348a70ca0f7fc83fce4f7f1db955a9df2f63934c60603392a280f35b8161033391611633565b61033e57825f6102dd565b8280fd5b6040513d84823e3d90fd5b5080fd5b610373915060203d602011610379575b61036b8183611633565b810190611733565b5f610234565b503d610361565b6040513d86823e3d90fd5b5060035442106101b8565b60ff915060101c16155f6101b1565b80fd5b50346103a557806003193601126103a5576040517f00000000000000000000000000000000000000000000000000000000000000006001600160a01b03168152602090f35b50346103a557806003193601126103a5576040519080600254908160011c916001811680156104ec575b6020841081146104d8578386529081156104b15750600114610454575b6104508461044481860382611633565b60405191829182611669565b0390f35b600281527f405787fa12a823e0f2b7631cc41b3ba8828b3321ca811111fa75cd3aa3bb5ace939250905b8082106104975750909150810160200161044482610434565b91926001816020925483858801015201910190929161047e565b60ff191660208087019190915292151560051b850190920192506104449150839050610434565b634e487b7160e01b83526022600452602483fd5b92607f1692610417565b50346103a557806003193601126103a5576040519080600154908160011c916001811680156105a9575b6020841081146104d8578386529081156104b1575060011461054c576104508461044481860382611633565b600181527fb10e2d527612073b26eecdfd717e6a320cf44b4afac2b0732d9fcbe2b7fa0cf6939250905b80821061058f5750909150810160200161044482610434565b919260018160209254838588010152019101909291610576565b92607f1692610520565b50346103a557806003193601126103a5576020600554604051908152f35b50346103a557806003193601126103a557604051636a51ce3760e01b81523060048201527f00000000000000000000000000000000000000000000000000000000000000006001600160a01b0316602082602481845afa9081156106f9576106479284926106d8575b50816106ce575b50611885565b60095460ff8160101c16610698578061066760ff620100009316156118bf565b62ff00001916176009557fb2ce2a931a2019b6f6fecebbc5e97d79e45042a5268af05c1cad2760b3be40548180a180f35b60405162461bcd60e51b815260206004820152600e60248201526d20b63932b0b23c90333937bd32b760911b6044820152606490fd5b905033145f610641565b6106f291925060203d6020116103795761036b8183611633565b905f61063a565b6040513d85823e3d90fd5b50346103a557806003193601126103a55761010060045460ff60055461072861190b565b610730611824565b60075491600954936040519687526020870152604086015260608501526080840152818116151560a0840152818160081c16151560c084015260101c16151560e0820152f35b50346103a557806003193601126103a557602060ff60095460081c166040519015158152f35b50346103a557806003193601126103a5576020600754604051908152f35b50346103a55760203660031901126103a55760206107d9600435611b77565b604051908152f35b50346103a55760203660031901126103a55760043580151580910361034d57604051636a51ce3760e01b81523060048201527f00000000000000000000000000000000000000000000000000000000000000006001600160a01b0316602082602481845afa908115610380576108639285926106d85750816106ce5750611885565b60095460ff81166108f65760035442106108bb5761ffff1916600882901b61ff0016176001176009556040519081527ff528f3b02f5c2503827fc677c9d0cb54ffbf11ed32cb659f73243b70dea7cf0e90602090a180f35b60405162461bcd60e51b81526020600482015260136024820152724d61726b6574207374696c6c2061637469766560681b6044820152606490fd5b60405162461bcd60e51b815260206004820152601060248201526f105b1c9958591e481c995cdbdb1d995960821b6044820152606490fd5b50346103a557806003193601126103a5576020600654604051908152f35b50346103a557806003193601126103a55760ff6009541661096c81611982565b338252600860205260ff604083205416610c655761098990611982565b610992336119c4565b8015610c3257338252600860205260408220600160ff1982541617905560ff60095460081c165f14610b41576040516370a0823160e01b815233600482015282907f00000000000000000000000000000000000000000000000000000000000000006001600160a01b0316602082602481845afa9182156106f9578392610b06575b5081610ab1575b5050505b60405163a9059cbb60e01b815233600482015260248101829052602081604481866001600160a01b037f0000000000000000000000000000000000000000000000000000000000000000165af180156106f957610a82918491610351575061174b565b6040519081527f1a31e733a172afcf46074b3106c17f0c298e226442682a03c1e99ce256139ec260203392a280f35b803b1561033e57604051632770a7eb60e21b8152336004820152602481019290925282908290604490829084905af1801561034257610af1575b80610a1b565b81610afb91611633565b61034d57815f610aeb565b925090506020823d602011610b39575b81610b2360209383611633565b81010312610b3557839151905f610a14565b5f80fd5b3d9150610b16565b6040516370a0823160e01b815233600482015282907f00000000000000000000000000000000000000000000000000000000000000006001600160a01b0316602082602481845afa9182156106f9578392610bfb575b5081610ba6575b505050610a1f565b803b1561033e57604051632770a7eb60e21b8152336004820152602481019290925282908290604490829084905af1801561034257610be6575b80610b9e565b81610bf091611633565b61034d57815f610be0565b925090506020823d602011610c2a575b81610c1860209383611633565b81010312610b3557839151905f610b97565b3d9150610c0b565b60405162461bcd60e51b815260206004820152600b60248201526a4e6f2077696e6e696e677360a81b6044820152606490fd5b60405162461bcd60e51b815260206004820152600f60248201526e105b1c9958591e4818db185a5b5959608a1b6044820152606490fd5b50346103a557806003193601126103a5576020604051670de0b6b3a76400008152f35b50346103a55760203660031901126103a557600435906001600160a01b03821682036103a55760206107d983610cf960ff60095416611982565b6119c4565b50346103a557806003193601126103a5576020600454604051908152f35b50346103a557610d2b36611693565b60095460ff8116159081610ec7575b5080610ebc575b610d4a906116a9565b610d59620f42408310156116e7565b6040516323b872dd60e01b815233600482015230602482015260448101839052602081606481876001600160a01b037f0000000000000000000000000000000000000000000000000000000000000000165af1801561038057610dc2918591610351575061174b565b610dce61024683611b77565b610dd9811515611789565b610de5816005546117c5565b600555610df4826004546117e6565b600455827f00000000000000000000000000000000000000000000000000000000000000006001600160a01b0316803b1561034d576040516340c10f1960e01b8152336004820152602481018490529082908290604490829084905af1801561034257610ea7575b5050610e6a826007546117e6565b60075560405191838352602083015260408201527f54b3dbdef11dba5c2d31f70f348a70ca0f7fc83fce4f7f1db955a9df2f63934c60603392a280f35b81610eb191611633565b61033e57825f610e5c565b506003544210610d41565b60ff915060101c16155f610d3a565b50346103a557806003193601126103a55760206107d961190b565b50346103a557806003193601126103a557602060405169d3c21bcecceda10000008152f35b50346103a557806003193601126103a5576040517f00000000000000000000000000000000000000000000000000000000000000006001600160a01b03168152602090f35b50346103a55760203660031901126103a5576004356001600160a01b0381169081900361034d5760408260ff9260209452600884522054166040519015158152f35b50346103a55760203660031901126103a5576004356001600160a01b03811691908290036103a5576040516370a0823160e01b815260048101839052906020826024817f00000000000000000000000000000000000000000000000000000000000000006001600160a01b03165afa9182156110f25781926110be575b506040516370a0823160e01b815260048101939093526020836024817f00000000000000000000000000000000000000000000000000000000000000006001600160a01b03165afa9081156110b2579061107f575b6040809350519182526020820152f35b506020823d6020116110aa575b8161109960209383611633565b81010312610b35576040915161106f565b3d915061108c565b604051903d90823e3d90fd5b9091506020813d6020116110ea575b816110da60209383611633565b81010312610b355751905f61101a565b3d91506110cd565b50604051903d90823e3d90fd5b50346103a55760203660031901126103a55760043560095460ff81161590816111bf575b50806111b4575b611133906116a9565b611142620f42408210156116e7565b6040516323b872dd60e01b815233600482015230602482015260448101829052602081606481866001600160a01b037f0000000000000000000000000000000000000000000000000000000000000000165af180156106f9576111ab918491610351575061174b565b610dce81611b77565b50600354421061112a565b60ff915060101c16155f611123565b50346103a557806003193601126103a557604051636a51ce3760e01b81523060048201527f00000000000000000000000000000000000000000000000000000000000000006001600160a01b0316602082602481845afa9081156106f9576112429284926106d85750816106ce5750611885565b60095460ff8160101c161561128e5761125e60ff8216156118bf565b62ff000019166009557fec33a40c16cb54a3aa8055d187508a1746f48ece03ec43ef4428c99f618ffca28180a180f35b60405162461bcd60e51b815260206004820152601160248201527026b0b935b2ba103737ba10333937bd32b760791b6044820152606490fd5b50346103a557806003193601126103a55760405190808054908160011c9160018116801561135b575b6020841081146104d8578386529081156104b1575060011461131c576104508461044481860382611633565b80805260208120939250905b8082106113415750909150810160200161044482610434565b919260018160209254838588010152019101909291611328565b92607f16926112f0565b50346103a557806003193601126103a557602060ff600954166040519015158152f35b50346103a557806003193601126103a5576040517f00000000000000000000000000000000000000000000000000000000000000006001600160a01b03168152602090f35b50346103a557806003193601126103a5576020604051620f42408152f35b50346103a557806003193601126103a5576020600354604051908152f35b50346103a55760203660031901126103a55760206107d9600435611863565b50346103a557806003193601126103a55760206107d9611824565b50346103a557806003193601126103a5576040517f00000000000000000000000000000000000000000000000000000000000000006001600160a01b03168152602090f35b5034610b35576020366003190112610b355760043560095460ff8116159081611602575b50806115f7575b6114bc906116a9565b6114cb620f42408210156116e7565b6040516323b872dd60e01b8152336004820152306024820152604481018290526020816064815f6001600160a01b037f0000000000000000000000000000000000000000000000000000000000000000165af180156115ec57611534915f91610351575061174b565b61153d81611863565b611548811515611789565b611554816004546117c5565b600455611563826005546117e6565b6005557f00000000000000000000000000000000000000000000000000000000000000006001600160a01b0316803b15610b35576040516340c10f1960e01b815233600482015260248101839052905f908290604490829084905af180156115ec576115d7575b506102eb826007546117e6565b6115e49193505f90611633565b5f915f6115ca565b6040513d5f823e3d90fd5b5060035442106114b3565b60ff915060101c16155f6114ac565b34610b35575f366003190112610b355760209060ff60095460101c1615158152f35b90601f8019910116810190811067ffffffffffffffff82111761165557604052565b634e487b7160e01b5f52604160045260245ffd5b602060409281835280519182918282860152018484015e5f828201840152601f01601f1916010190565b6040906003190112610b35576004359060243590565b156116b057565b60405162461bcd60e51b815260206004820152600f60248201526e4d61726b657420696e61637469766560881b6044820152606490fd5b156116ee57565b60405162461bcd60e51b815260206004820152601a60248201527f42656c6f77206d696e696d756d20747261646520616d6f756e740000000000006044820152606490fd5b90816020910312610b3557518015158103610b355790565b1561175257565b60405162461bcd60e51b815260206004820152600f60248201526e151c985b9cd9995c8819985a5b1959608a1b6044820152606490fd5b1561179057565b60405162461bcd60e51b815260206004820152600d60248201526c139bc81d1bdad95b9cc81bdd5d609a1b6044820152606490fd5b919082039182116117d257565b634e487b7160e01b5f52601160045260245ffd5b919082018092116117d257565b818102929181159184041417156117d257565b8115611810570490565b634e487b7160e01b5f52601260045260245ffd5b600554801561185e5760045490670de0b6b3a7640000820291808304670de0b6b3a764000014901517156117d25761185b91611806565b90565b505f90565b61187d61187561185b926005546117e6565b600654611806565b6004546117c5565b1561188c57565b60405162461bcd60e51b815260206004820152600b60248201526a4f6e6c79206f7261636c6560a81b6044820152606490fd5b156118c657565b60405162461bcd60e51b815260206004820152601760248201527f4d61726b657420616c7265616479207265736f6c7665640000000000000000006044820152606490fd5b600454801561185e5760055490670de0b6b3a7640000820291808304670de0b6b3a764000014901517156117d25761185b91611806565b1561194957565b60405162461bcd60e51b81526020600482015260116024820152700a6d8d2e0e0c2ceca40e8dede40d0d2ced607b1b6044820152606490fd5b1561198957565b60405162461bcd60e51b815260206004820152601360248201527213585c9ad95d081b9bdd081c995cdbdb1d9959606a1b6044820152606490fd5b60095460081c60ff1615611ade576040516370a0823160e01b81526001600160a01b039182166004820152907f000000000000000000000000000000000000000000000000000000000000000016602082602481845afa9182156115ec575f92611aaa575b508115611a72576020600491604051928380926318160ddd60e01b82525afa9081156115ec575f91611a78575b508015611a7257611a6d61185b92600754906117f3565b611806565b50505f90565b90506020813d602011611aa2575b81611a9360209383611633565b81010312610b3557515f611a56565b3d9150611a86565b9091506020813d602011611ad6575b81611ac660209383611633565b81010312610b355751905f611a29565b3d9150611ab9565b6040516370a0823160e01b81526001600160a01b039182166004820152907f000000000000000000000000000000000000000000000000000000000000000016602082602481845afa9182156115ec575f92611aaa57508115611a72576020600491604051928380926318160ddd60e01b82525afa9081156115ec575f91611a7857508015611a7257611a6d61185b92600754906117f3565b611b8961187561185b926004546117e6565b6005546117c556fea26469706673582212206983c40f150c63db2ad3a66fc8e3e8aafa70b1b4c0cb5b0c8bb76b020841205464736f6c634300081e0033","linkReferences":{}},"methodIdentifiers":{"INITIAL_TOKENS()":"85c8bd6d","MIN_TRADE_AMOUNT()":"31b7d413","PRECISION()":"aaf5eb68","buyNo(uint256)":"58c36e5c","buyNoWithSlippage(uint256,uint256)":"94677ba6","buyYes(uint256)":"061dd98d","buyYesWithSlippage(uint256,uint256)":"f191dd32","calculatePayout(address)":"a877933f","category()":"ef430aa6","claimWinnings()":"b401faf1","endTime()":"3197cbb6","freezeMarket()":"df2e5066","frozen()":"054f7d9c","getMarketState()":"d8165743","getNoPrice()":"12b01b16","getNoTokensOut(uint256)":"c573b731","getUserPosition(address)":"5b7c2dad","getYesPrice()":"8779086f","getYesTokensOut(uint256)":"29e2a741","hasClaimed(address)":"73b2e80e","k()":"b4f40c61","noToken()":"11a9f10a","noTokens()":"e1eb0600","oracle()":"7dc0d1d0","protocolName()":"e567e869","question()":"3fad9ae0","resolveMarket(bool)":"c390bd30","resolved()":"3f6fa655","totalUsdcDeposited()":"c580f737","unfreezeMarket()":"4b339c0d","usdc()":"3e413bee","yesToken()":"f0d9bb20","yesTokens()":"997aa8e0","yesWon()":"cbee38dc"},"id":25}